{
	"ComputeOracle.sol": {
		"ComputeOracle": {
			"abi": [
				{
					"inputs": [
						{
							"internalType": "address",
							"name": "initialOwner",
							"type": "address"
						}
					],
					"stateMutability": "nonpayable",
					"type": "constructor"
				},
				{
					"inputs": [
						{
							"internalType": "address",
							"name": "owner",
							"type": "address"
						}
					],
					"name": "OwnableInvalidOwner",
					"type": "error"
				},
				{
					"inputs": [
						{
							"internalType": "address",
							"name": "account",
							"type": "address"
						}
					],
					"name": "OwnableUnauthorizedAccount",
					"type": "error"
				},
				{
					"anonymous": false,
					"inputs": [
						{
							"indexed": true,
							"internalType": "address",
							"name": "previousOwner",
							"type": "address"
						},
						{
							"indexed": true,
							"internalType": "address",
							"name": "newOwner",
							"type": "address"
						}
					],
					"name": "OwnershipTransferred",
					"type": "event"
				},
				{
					"anonymous": false,
					"inputs": [
						{
							"indexed": false,
							"internalType": "uint256",
							"name": "id",
							"type": "uint256"
						},
						{
							"indexed": false,
							"internalType": "address",
							"name": "requester",
							"type": "address"
						},
						{
							"indexed": false,
							"internalType": "uint256",
							"name": "fee",
							"type": "uint256"
						},
						{
							"indexed": false,
							"internalType": "bytes",
							"name": "reqData",
							"type": "bytes"
						}
					],
					"name": "Request",
					"type": "event"
				},
				{
					"inputs": [],
					"name": "MIN_FEE",
					"outputs": [
						{
							"internalType": "uint256",
							"name": "",
							"type": "uint256"
						}
					],
					"stateMutability": "view",
					"type": "function"
				},
				{
					"inputs": [
						{
							"internalType": "uint256",
							"name": "_reqId",
							"type": "uint256"
						},
						{
							"internalType": "string",
							"name": "_result",
							"type": "string"
						}
					],
					"name": "callBack",
					"outputs": [],
					"stateMutability": "nonpayable",
					"type": "function"
				},
				{
					"inputs": [],
					"name": "owner",
					"outputs": [
						{
							"internalType": "address",
							"name": "",
							"type": "address"
						}
					],
					"stateMutability": "view",
					"type": "function"
				},
				{
					"inputs": [],
					"name": "renounceOwnership",
					"outputs": [],
					"stateMutability": "nonpayable",
					"type": "function"
				},
				{
					"inputs": [
						{
							"internalType": "bytes",
							"name": "_reqData",
							"type": "bytes"
						}
					],
					"name": "request",
					"outputs": [
						{
							"internalType": "bool",
							"name": "",
							"type": "bool"
						}
					],
					"stateMutability": "payable",
					"type": "function"
				},
				{
					"inputs": [],
					"name": "requestCount",
					"outputs": [
						{
							"internalType": "uint256",
							"name": "",
							"type": "uint256"
						}
					],
					"stateMutability": "view",
					"type": "function"
				},
				{
					"inputs": [
						{
							"internalType": "uint256",
							"name": "",
							"type": "uint256"
						}
					],
					"name": "requests",
					"outputs": [
						{
							"internalType": "uint256",
							"name": "fee",
							"type": "uint256"
						},
						{
							"internalType": "bytes",
							"name": "reqData",
							"type": "bytes"
						},
						{
							"internalType": "string",
							"name": "result",
							"type": "string"
						}
					],
					"stateMutability": "view",
					"type": "function"
				},
				{
					"inputs": [
						{
							"internalType": "address",
							"name": "newOwner",
							"type": "address"
						}
					],
					"name": "transferOwnership",
					"outputs": [],
					"stateMutability": "nonpayable",
					"type": "function"
				}
			],
			"devdoc": {
				"errors": {
					"OwnableInvalidOwner(address)": [
						{
							"details": "The owner is not a valid owner account. (eg. `address(0)`)"
						}
					],
					"OwnableUnauthorizedAccount(address)": [
						{
							"details": "The caller account is not authorized to perform an operation."
						}
					]
				},
				"kind": "dev",
				"methods": {
					"owner()": {
						"details": "Returns the address of the current owner."
					},
					"renounceOwnership()": {
						"details": "Leaves the contract without owner. It will not be possible to call `onlyOwner` functions. Can only be called by the current owner. NOTE: Renouncing ownership will leave the contract without an owner, thereby disabling any functionality that is only available to the owner."
					},
					"transferOwnership(address)": {
						"details": "Transfers ownership of the contract to a new account (`newOwner`). Can only be called by the current owner."
					}
				},
				"version": 1
			},
			"evm": {
				"assembly": "    /* \"ComputeOracle.sol\":83:1124  contract ComputeOracle is Ownable{... */\n  mstore(0x40, 0x80)\n    /* \"ComputeOracle.sol\":129:201  constructor(address initialOwner)... */\n  callvalue\n  dup1\n  iszero\n  tag_1\n  jumpi\n  0x00\n  dup1\n  revert\ntag_1:\n  pop\n  mload(0x40)\n  sub(codesize, bytecodeSize)\n  dup1\n  bytecodeSize\n  dup4\n  codecopy\n  dup2\n  dup2\n  add\n  0x40\n  mstore\n  dup2\n  add\n  swap1\n  tag_2\n  swap2\n  swap1\n  tag_3\n  jump\t// in\ntag_2:\n    /* \"ComputeOracle.sol\":180:192  initialOwner */\n  dup1\n    /* \"@openzeppelin/contracts/access/Ownable.sol\":1297:1298  0 */\n  0x00\n    /* \"@openzeppelin/contracts/access/Ownable.sol\":1273:1299  initialOwner == address(0) */\n  0xffffffffffffffffffffffffffffffffffffffff\n  and\n    /* \"@openzeppelin/contracts/access/Ownable.sol\":1273:1285  initialOwner */\n  dup2\n    /* \"@openzeppelin/contracts/access/Ownable.sol\":1273:1299  initialOwner == address(0) */\n  0xffffffffffffffffffffffffffffffffffffffff\n  and\n  sub\n    /* \"@openzeppelin/contracts/access/Ownable.sol\":1269:1364  if (initialOwner == address(0)) {... */\n  tag_7\n  jumpi\n    /* \"@openzeppelin/contracts/access/Ownable.sol\":1350:1351  0 */\n  0x00\n    /* \"@openzeppelin/contracts/access/Ownable.sol\":1322:1353  OwnableInvalidOwner(address(0)) */\n  mload(0x40)\n  0x1e4fbdf700000000000000000000000000000000000000000000000000000000\n  dup2\n  mstore\n  0x04\n  add\n  tag_8\n  swap2\n  swap1\n  tag_9\n  jump\t// in\ntag_8:\n  mload(0x40)\n  dup1\n  swap2\n  sub\n  swap1\n  revert\n    /* \"@openzeppelin/contracts/access/Ownable.sol\":1269:1364  if (initialOwner == address(0)) {... */\ntag_7:\n    /* \"@openzeppelin/contracts/access/Ownable.sol\":1373:1405  _transferOwnership(initialOwner) */\n  tag_10\n    /* \"@openzeppelin/contracts/access/Ownable.sol\":1392:1404  initialOwner */\n  dup2\n    /* \"@openzeppelin/contracts/access/Ownable.sol\":1373:1391  _transferOwnership */\n  shl(0x20, tag_11)\n    /* \"@openzeppelin/contracts/access/Ownable.sol\":1373:1405  _transferOwnership(initialOwner) */\n  0x20\n  shr\n  jump\t// in\ntag_10:\n    /* \"@openzeppelin/contracts/access/Ownable.sol\":1225:1412  constructor(address initialOwner) {... */\n  pop\n    /* \"ComputeOracle.sol\":129:201  constructor(address initialOwner)... */\n  pop\n    /* \"ComputeOracle.sol\":83:1124  contract ComputeOracle is Ownable{... */\n  jump(tag_13)\n    /* \"@openzeppelin/contracts/access/Ownable.sol\":2912:3099  function _transferOwnership(address newOwner) internal virtual {... */\ntag_11:\n    /* \"@openzeppelin/contracts/access/Ownable.sol\":2985:3001  address oldOwner */\n  0x00\n    /* \"@openzeppelin/contracts/access/Ownable.sol\":3004:3010  _owner */\n  dup1\n  0x00\n  swap1\n  sload\n  swap1\n  0x0100\n  exp\n  swap1\n  div\n  0xffffffffffffffffffffffffffffffffffffffff\n  and\n    /* \"@openzeppelin/contracts/access/Ownable.sol\":2985:3010  address oldOwner = _owner */\n  swap1\n  pop\n    /* \"@openzeppelin/contracts/access/Ownable.sol\":3029:3037  newOwner */\n  dup2\n    /* \"@openzeppelin/contracts/access/Ownable.sol\":3020:3026  _owner */\n  0x00\n  dup1\n    /* \"@openzeppelin/contracts/access/Ownable.sol\":3020:3037  _owner = newOwner */\n  0x0100\n  exp\n  dup2\n  sload\n  dup2\n  0xffffffffffffffffffffffffffffffffffffffff\n  mul\n  not\n  and\n  swap1\n  dup4\n  0xffffffffffffffffffffffffffffffffffffffff\n  and\n  mul\n  or\n  swap1\n  sstore\n  pop\n    /* \"@openzeppelin/contracts/access/Ownable.sol\":3083:3091  newOwner */\n  dup2\n    /* \"@openzeppelin/contracts/access/Ownable.sol\":3052:3092  OwnershipTransferred(oldOwner, newOwner) */\n  0xffffffffffffffffffffffffffffffffffffffff\n  and\n    /* \"@openzeppelin/contracts/access/Ownable.sol\":3073:3081  oldOwner */\n  dup2\n    /* \"@openzeppelin/contracts/access/Ownable.sol\":3052:3092  OwnershipTransferred(oldOwner, newOwner) */\n  0xffffffffffffffffffffffffffffffffffffffff\n  and\n  0x8be0079c531659141344cd1fd0a4f28419497f9722a3daafe3b4186f6b6457e0\n  mload(0x40)\n  mload(0x40)\n  dup1\n  swap2\n  sub\n  swap1\n  log3\n    /* \"@openzeppelin/contracts/access/Ownable.sol\":2975:3099  {... */\n  pop\n    /* \"@openzeppelin/contracts/access/Ownable.sol\":2912:3099  function _transferOwnership(address newOwner) internal virtual {... */\n  pop\n  jump\t// out\n    /* \"#utility.yul\":88:205   */\ntag_16:\n    /* \"#utility.yul\":197:198   */\n  0x00\n    /* \"#utility.yul\":194:195   */\n  dup1\n    /* \"#utility.yul\":187:199   */\n  revert\n    /* \"#utility.yul\":334:460   */\ntag_18:\n    /* \"#utility.yul\":371:378   */\n  0x00\n    /* \"#utility.yul\":411:453   */\n  0xffffffffffffffffffffffffffffffffffffffff\n    /* \"#utility.yul\":404:409   */\n  dup3\n    /* \"#utility.yul\":400:454   */\n  and\n    /* \"#utility.yul\":389:454   */\n  swap1\n  pop\n    /* \"#utility.yul\":334:460   */\n  swap2\n  swap1\n  pop\n  jump\t// out\n    /* \"#utility.yul\":466:562   */\ntag_19:\n    /* \"#utility.yul\":503:510   */\n  0x00\n    /* \"#utility.yul\":532:556   */\n  tag_29\n    /* \"#utility.yul\":550:555   */\n  dup3\n    /* \"#utility.yul\":532:556   */\n  tag_18\n  jump\t// in\ntag_29:\n    /* \"#utility.yul\":521:556   */\n  swap1\n  pop\n    /* \"#utility.yul\":466:562   */\n  swap2\n  swap1\n  pop\n  jump\t// out\n    /* \"#utility.yul\":568:690   */\ntag_20:\n    /* \"#utility.yul\":641:665   */\n  tag_31\n    /* \"#utility.yul\":659:664   */\n  dup2\n    /* \"#utility.yul\":641:665   */\n  tag_19\n  jump\t// in\ntag_31:\n    /* \"#utility.yul\":634:639   */\n  dup2\n    /* \"#utility.yul\":631:666   */\n  eq\n    /* \"#utility.yul\":621:684   */\n  tag_32\n  jumpi\n    /* \"#utility.yul\":680:681   */\n  0x00\n    /* \"#utility.yul\":677:678   */\n  dup1\n    /* \"#utility.yul\":670:682   */\n  revert\n    /* \"#utility.yul\":621:684   */\ntag_32:\n    /* \"#utility.yul\":568:690   */\n  pop\n  jump\t// out\n    /* \"#utility.yul\":696:839   */\ntag_21:\n    /* \"#utility.yul\":753:758   */\n  0x00\n    /* \"#utility.yul\":784:790   */\n  dup2\n    /* \"#utility.yul\":778:791   */\n  mload\n    /* \"#utility.yul\":769:791   */\n  swap1\n  pop\n    /* \"#utility.yul\":800:833   */\n  tag_34\n    /* \"#utility.yul\":827:832   */\n  dup2\n    /* \"#utility.yul\":800:833   */\n  tag_20\n  jump\t// in\ntag_34:\n    /* \"#utility.yul\":696:839   */\n  swap3\n  swap2\n  pop\n  pop\n  jump\t// out\n    /* \"#utility.yul\":845:1196   */\ntag_3:\n    /* \"#utility.yul\":915:921   */\n  0x00\n    /* \"#utility.yul\":964:966   */\n  0x20\n    /* \"#utility.yul\":952:961   */\n  dup3\n    /* \"#utility.yul\":943:950   */\n  dup5\n    /* \"#utility.yul\":939:962   */\n  sub\n    /* \"#utility.yul\":935:967   */\n  slt\n    /* \"#utility.yul\":932:1051   */\n  iszero\n  tag_36\n  jumpi\n    /* \"#utility.yul\":970:1049   */\n  tag_37\n  tag_16\n  jump\t// in\ntag_37:\n    /* \"#utility.yul\":932:1051   */\ntag_36:\n    /* \"#utility.yul\":1090:1091   */\n  0x00\n    /* \"#utility.yul\":1115:1179   */\n  tag_38\n    /* \"#utility.yul\":1171:1178   */\n  dup5\n    /* \"#utility.yul\":1162:1168   */\n  dup3\n    /* \"#utility.yul\":1151:1160   */\n  dup6\n    /* \"#utility.yul\":1147:1169   */\n  add\n    /* \"#utility.yul\":1115:1179   */\n  tag_21\n  jump\t// in\ntag_38:\n    /* \"#utility.yul\":1105:1179   */\n  swap2\n  pop\n    /* \"#utility.yul\":1061:1189   */\n  pop\n    /* \"#utility.yul\":845:1196   */\n  swap3\n  swap2\n  pop\n  pop\n  jump\t// out\n    /* \"#utility.yul\":1202:1320   */\ntag_22:\n    /* \"#utility.yul\":1289:1313   */\n  tag_40\n    /* \"#utility.yul\":1307:1312   */\n  dup2\n    /* \"#utility.yul\":1289:1313   */\n  tag_19\n  jump\t// in\ntag_40:\n    /* \"#utility.yul\":1284:1287   */\n  dup3\n    /* \"#utility.yul\":1277:1314   */\n  mstore\n    /* \"#utility.yul\":1202:1320   */\n  pop\n  pop\n  jump\t// out\n    /* \"#utility.yul\":1326:1548   */\ntag_9:\n    /* \"#utility.yul\":1419:1423   */\n  0x00\n    /* \"#utility.yul\":1457:1459   */\n  0x20\n    /* \"#utility.yul\":1446:1455   */\n  dup3\n    /* \"#utility.yul\":1442:1460   */\n  add\n    /* \"#utility.yul\":1434:1460   */\n  swap1\n  pop\n    /* \"#utility.yul\":1470:1541   */\n  tag_42\n    /* \"#utility.yul\":1538:1539   */\n  0x00\n    /* \"#utility.yul\":1527:1536   */\n  dup4\n    /* \"#utility.yul\":1523:1540   */\n  add\n    /* \"#utility.yul\":1514:1520   */\n  dup5\n    /* \"#utility.yul\":1470:1541   */\n  tag_22\n  jump\t// in\ntag_42:\n    /* \"#utility.yul\":1326:1548   */\n  swap3\n  swap2\n  pop\n  pop\n  jump\t// out\n    /* \"ComputeOracle.sol\":83:1124  contract ComputeOracle is Ownable{... */\ntag_13:\n  dataSize(sub_0)\n  dup1\n  dataOffset(sub_0)\n  0x00\n  codecopy\n  0x00\n  return\nstop\n\nsub_0: assembly {\n        /* \"ComputeOracle.sol\":83:1124  contract ComputeOracle is Ownable{... */\n      mstore(0x40, 0x80)\n      jumpi(tag_1, lt(calldatasize, 0x04))\n      shr(0xe0, calldataload(0x00))\n      dup1\n      0x8da5cb5b\n      gt\n      tag_10\n      jumpi\n      dup1\n      0x8da5cb5b\n      eq\n      tag_6\n      jumpi\n      dup1\n      0xb94207d3\n      eq\n      tag_7\n      jumpi\n      dup1\n      0xbe2cbc26\n      eq\n      tag_8\n      jumpi\n      dup1\n      0xf2fde38b\n      eq\n      tag_9\n      jumpi\n      jump(tag_1)\n    tag_10:\n      dup1\n      0x5badbe4c\n      eq\n      tag_2\n      jumpi\n      dup1\n      0x715018a6\n      eq\n      tag_3\n      jumpi\n      dup1\n      0x76c7a3c7\n      eq\n      tag_4\n      jumpi\n      dup1\n      0x81d12c58\n      eq\n      tag_5\n      jumpi\n    tag_1:\n      0x00\n      dup1\n      revert\n        /* \"ComputeOracle.sol\":316:343  uint256 public requestCount */\n    tag_2:\n      callvalue\n      dup1\n      iszero\n      tag_11\n      jumpi\n      0x00\n      dup1\n      revert\n    tag_11:\n      pop\n      tag_12\n      tag_13\n      jump\t// in\n    tag_12:\n      mload(0x40)\n      tag_14\n      swap2\n      swap1\n      tag_15\n      jump\t// in\n    tag_14:\n      mload(0x40)\n      dup1\n      swap2\n      sub\n      swap1\n      return\n        /* \"@openzeppelin/contracts/access/Ownable.sol\":2293:2394  function renounceOwnership() public virtual onlyOwner {... */\n    tag_3:\n      callvalue\n      dup1\n      iszero\n      tag_16\n      jumpi\n      0x00\n      dup1\n      revert\n    tag_16:\n      pop\n      tag_17\n      tag_18\n      jump\t// in\n    tag_17:\n      stop\n        /* \"ComputeOracle.sol\":350:394  uint256 public constant MIN_FEE = 0.01 ether */\n    tag_4:\n      callvalue\n      dup1\n      iszero\n      tag_19\n      jumpi\n      0x00\n      dup1\n      revert\n    tag_19:\n      pop\n      tag_20\n      tag_21\n      jump\t// in\n    tag_20:\n      mload(0x40)\n      tag_22\n      swap2\n      swap1\n      tag_15\n      jump\t// in\n    tag_22:\n      mload(0x40)\n      dup1\n      swap2\n      sub\n      swap1\n      return\n        /* \"ComputeOracle.sol\":401:451  mapping(uint256 => ComputeRequest) public requests */\n    tag_5:\n      callvalue\n      dup1\n      iszero\n      tag_23\n      jumpi\n      0x00\n      dup1\n      revert\n    tag_23:\n      pop\n      tag_24\n      0x04\n      dup1\n      calldatasize\n      sub\n      dup2\n      add\n      swap1\n      tag_25\n      swap2\n      swap1\n      tag_26\n      jump\t// in\n    tag_25:\n      tag_27\n      jump\t// in\n    tag_24:\n      mload(0x40)\n      tag_28\n      swap4\n      swap3\n      swap2\n      swap1\n      tag_29\n      jump\t// in\n    tag_28:\n      mload(0x40)\n      dup1\n      swap2\n      sub\n      swap1\n      return\n        /* \"@openzeppelin/contracts/access/Ownable.sol\":1638:1723  function owner() public view virtual returns (address) {... */\n    tag_6:\n      callvalue\n      dup1\n      iszero\n      tag_30\n      jumpi\n      0x00\n      dup1\n      revert\n    tag_30:\n      pop\n      tag_31\n      tag_32\n      jump\t// in\n    tag_31:\n      mload(0x40)\n      tag_33\n      swap2\n      swap1\n      tag_34\n      jump\t// in\n    tag_33:\n      mload(0x40)\n      dup1\n      swap2\n      sub\n      swap1\n      return\n        /* \"ComputeOracle.sol\":543:923  function request(bytes calldata _reqData) external payable returns(bool){... */\n    tag_7:\n      tag_35\n      0x04\n      dup1\n      calldatasize\n      sub\n      dup2\n      add\n      swap1\n      tag_36\n      swap2\n      swap1\n      tag_37\n      jump\t// in\n    tag_36:\n      tag_38\n      jump\t// in\n    tag_35:\n      mload(0x40)\n      tag_39\n      swap2\n      swap1\n      tag_40\n      jump\t// in\n    tag_39:\n      mload(0x40)\n      dup1\n      swap2\n      sub\n      swap1\n      return\n        /* \"ComputeOracle.sol\":933:1121  function callBack(uint256 _reqId,string memory _result) external onlyOwner {... */\n    tag_8:\n      callvalue\n      dup1\n      iszero\n      tag_41\n      jumpi\n      0x00\n      dup1\n      revert\n    tag_41:\n      pop\n      tag_42\n      0x04\n      dup1\n      calldatasize\n      sub\n      dup2\n      add\n      swap1\n      tag_43\n      swap2\n      swap1\n      tag_44\n      jump\t// in\n    tag_43:\n      tag_45\n      jump\t// in\n    tag_42:\n      stop\n        /* \"@openzeppelin/contracts/access/Ownable.sol\":2543:2758  function transferOwnership(address newOwner) public virtual onlyOwner {... */\n    tag_9:\n      callvalue\n      dup1\n      iszero\n      tag_46\n      jumpi\n      0x00\n      dup1\n      revert\n    tag_46:\n      pop\n      tag_47\n      0x04\n      dup1\n      calldatasize\n      sub\n      dup2\n      add\n      swap1\n      tag_48\n      swap2\n      swap1\n      tag_49\n      jump\t// in\n    tag_48:\n      tag_50\n      jump\t// in\n    tag_47:\n      stop\n        /* \"ComputeOracle.sol\":316:343  uint256 public requestCount */\n    tag_13:\n      sload(0x01)\n      dup2\n      jump\t// out\n        /* \"@openzeppelin/contracts/access/Ownable.sol\":2293:2394  function renounceOwnership() public virtual onlyOwner {... */\n    tag_18:\n        /* \"@openzeppelin/contracts/access/Ownable.sol\":1531:1544  _checkOwner() */\n      tag_52\n        /* \"@openzeppelin/contracts/access/Ownable.sol\":1531:1542  _checkOwner */\n      tag_53\n        /* \"@openzeppelin/contracts/access/Ownable.sol\":1531:1544  _checkOwner() */\n      jump\t// in\n    tag_52:\n        /* \"@openzeppelin/contracts/access/Ownable.sol\":2357:2387  _transferOwnership(address(0)) */\n      tag_55\n        /* \"@openzeppelin/contracts/access/Ownable.sol\":2384:2385  0 */\n      0x00\n        /* \"@openzeppelin/contracts/access/Ownable.sol\":2357:2375  _transferOwnership */\n      tag_56\n        /* \"@openzeppelin/contracts/access/Ownable.sol\":2357:2387  _transferOwnership(address(0)) */\n      jump\t// in\n    tag_55:\n        /* \"@openzeppelin/contracts/access/Ownable.sol\":2293:2394  function renounceOwnership() public virtual onlyOwner {... */\n      jump\t// out\n        /* \"ComputeOracle.sol\":350:394  uint256 public constant MIN_FEE = 0.01 ether */\n    tag_21:\n        /* \"ComputeOracle.sol\":384:394  0.01 ether */\n      0x2386f26fc10000\n        /* \"ComputeOracle.sol\":350:394  uint256 public constant MIN_FEE = 0.01 ether */\n      dup2\n      jump\t// out\n        /* \"ComputeOracle.sol\":401:451  mapping(uint256 => ComputeRequest) public requests */\n    tag_27:\n      mstore(0x20, 0x02)\n      dup1\n      0x00\n      mstore\n      keccak256(0x00, 0x40)\n      0x00\n      swap2\n      pop\n      swap1\n      pop\n      dup1\n      0x00\n      add\n      sload\n      swap1\n      dup1\n      0x01\n      add\n      dup1\n      sload\n      tag_57\n      swap1\n      tag_58\n      jump\t// in\n    tag_57:\n      dup1\n      0x1f\n      add\n      0x20\n      dup1\n      swap2\n      div\n      mul\n      0x20\n      add\n      mload(0x40)\n      swap1\n      dup2\n      add\n      0x40\n      mstore\n      dup1\n      swap3\n      swap2\n      swap1\n      dup2\n      dup2\n      mstore\n      0x20\n      add\n      dup3\n      dup1\n      sload\n      tag_59\n      swap1\n      tag_58\n      jump\t// in\n    tag_59:\n      dup1\n      iszero\n      tag_60\n      jumpi\n      dup1\n      0x1f\n      lt\n      tag_61\n      jumpi\n      0x0100\n      dup1\n      dup4\n      sload\n      div\n      mul\n      dup4\n      mstore\n      swap2\n      0x20\n      add\n      swap2\n      jump(tag_60)\n    tag_61:\n      dup3\n      add\n      swap2\n      swap1\n      0x00\n      mstore\n      keccak256(0x00, 0x20)\n      swap1\n    tag_62:\n      dup2\n      sload\n      dup2\n      mstore\n      swap1\n      0x01\n      add\n      swap1\n      0x20\n      add\n      dup1\n      dup4\n      gt\n      tag_62\n      jumpi\n      dup3\n      swap1\n      sub\n      0x1f\n      and\n      dup3\n      add\n      swap2\n    tag_60:\n      pop\n      pop\n      pop\n      pop\n      pop\n      swap1\n      dup1\n      0x02\n      add\n      dup1\n      sload\n      tag_63\n      swap1\n      tag_58\n      jump\t// in\n    tag_63:\n      dup1\n      0x1f\n      add\n      0x20\n      dup1\n      swap2\n      div\n      mul\n      0x20\n      add\n      mload(0x40)\n      swap1\n      dup2\n      add\n      0x40\n      mstore\n      dup1\n      swap3\n      swap2\n      swap1\n      dup2\n      dup2\n      mstore\n      0x20\n      add\n      dup3\n      dup1\n      sload\n      tag_64\n      swap1\n      tag_58\n      jump\t// in\n    tag_64:\n      dup1\n      iszero\n      tag_65\n      jumpi\n      dup1\n      0x1f\n      lt\n      tag_66\n      jumpi\n      0x0100\n      dup1\n      dup4\n      sload\n      div\n      mul\n      dup4\n      mstore\n      swap2\n      0x20\n      add\n      swap2\n      jump(tag_65)\n    tag_66:\n      dup3\n      add\n      swap2\n      swap1\n      0x00\n      mstore\n      keccak256(0x00, 0x20)\n      swap1\n    tag_67:\n      dup2\n      sload\n      dup2\n      mstore\n      swap1\n      0x01\n      add\n      swap1\n      0x20\n      add\n      dup1\n      dup4\n      gt\n      tag_67\n      jumpi\n      dup3\n      swap1\n      sub\n      0x1f\n      and\n      dup3\n      add\n      swap2\n    tag_65:\n      pop\n      pop\n      pop\n      pop\n      pop\n      swap1\n      pop\n      dup4\n      jump\t// out\n        /* \"@openzeppelin/contracts/access/Ownable.sol\":1638:1723  function owner() public view virtual returns (address) {... */\n    tag_32:\n        /* \"@openzeppelin/contracts/access/Ownable.sol\":1684:1691  address */\n      0x00\n        /* \"@openzeppelin/contracts/access/Ownable.sol\":1710:1716  _owner */\n      dup1\n      0x00\n      swap1\n      sload\n      swap1\n      0x0100\n      exp\n      swap1\n      div\n      0xffffffffffffffffffffffffffffffffffffffff\n      and\n        /* \"@openzeppelin/contracts/access/Ownable.sol\":1703:1716  return _owner */\n      swap1\n      pop\n        /* \"@openzeppelin/contracts/access/Ownable.sol\":1638:1723  function owner() public view virtual returns (address) {... */\n      swap1\n      jump\t// out\n        /* \"ComputeOracle.sol\":543:923  function request(bytes calldata _reqData) external payable returns(bool){... */\n    tag_38:\n        /* \"ComputeOracle.sol\":610:614  bool */\n      0x00\n        /* \"ComputeOracle.sol\":384:394  0.01 ether */\n      0x2386f26fc10000\n        /* \"ComputeOracle.sol\":634:643  msg.value */\n      callvalue\n        /* \"ComputeOracle.sol\":634:654  msg.value >= MIN_FEE */\n      lt\n      iszero\n        /* \"ComputeOracle.sol\":626:674  require(msg.value >= MIN_FEE,\"insuffcient fee!\") */\n      tag_70\n      jumpi\n      mload(0x40)\n      0x08c379a000000000000000000000000000000000000000000000000000000000\n      dup2\n      mstore\n      0x04\n      add\n      tag_71\n      swap1\n      tag_72\n      jump\t// in\n    tag_71:\n      mload(0x40)\n      dup1\n      swap2\n      sub\n      swap1\n      revert\n    tag_70:\n        /* \"ComputeOracle.sol\":711:712  0 */\n      0x00\n        /* \"ComputeOracle.sol\":693:701  _reqData */\n      dup4\n      dup4\n        /* \"ComputeOracle.sol\":693:708  _reqData.length */\n      swap1\n      pop\n        /* \"ComputeOracle.sol\":693:712  _reqData.length > 0 */\n      gt\n        /* \"ComputeOracle.sol\":685:728  require(_reqData.length > 0,\"data is nil!\") */\n      tag_73\n      jumpi\n      mload(0x40)\n      0x08c379a000000000000000000000000000000000000000000000000000000000\n      dup2\n      mstore\n      0x04\n      add\n      tag_74\n      swap1\n      tag_75\n      jump\t// in\n    tag_74:\n      mload(0x40)\n      dup1\n      swap2\n      sub\n      swap1\n      revert\n    tag_73:\n        /* \"ComputeOracle.sol\":764:801  ComputeRequest(msg.value,_reqData,\"\") */\n      mload(0x40)\n      dup1\n      0x60\n      add\n      0x40\n      mstore\n      dup1\n        /* \"ComputeOracle.sol\":779:788  msg.value */\n      callvalue\n        /* \"ComputeOracle.sol\":764:801  ComputeRequest(msg.value,_reqData,\"\") */\n      dup2\n      mstore\n      0x20\n      add\n        /* \"ComputeOracle.sol\":789:797  _reqData */\n      dup5\n      dup5\n        /* \"ComputeOracle.sol\":764:801  ComputeRequest(msg.value,_reqData,\"\") */\n      dup1\n      dup1\n      0x1f\n      add\n      0x20\n      dup1\n      swap2\n      div\n      mul\n      0x20\n      add\n      mload(0x40)\n      swap1\n      dup2\n      add\n      0x40\n      mstore\n      dup1\n      swap4\n      swap3\n      swap2\n      swap1\n      dup2\n      dup2\n      mstore\n      0x20\n      add\n      dup4\n      dup4\n      dup1\n      dup3\n      dup5\n      calldatacopy\n      0x00\n      dup2\n      dup5\n      add\n      mstore\n      not(0x1f)\n      0x1f\n      dup3\n      add\n      and\n      swap1\n      pop\n      dup1\n      dup4\n      add\n      swap3\n      pop\n      pop\n      pop\n      pop\n      pop\n      pop\n      pop\n      dup2\n      mstore\n      0x20\n      add\n      mload(0x40)\n      dup1\n      0x20\n      add\n      0x40\n      mstore\n      dup1\n      0x00\n      dup2\n      mstore\n      pop\n      dup2\n      mstore\n      pop\n        /* \"ComputeOracle.sol\":739:747  requests */\n      0x02\n        /* \"ComputeOracle.sol\":739:761  requests[requestCount] */\n      0x00\n        /* \"ComputeOracle.sol\":748:760  requestCount */\n      sload(0x01)\n        /* \"ComputeOracle.sol\":739:761  requests[requestCount] */\n      dup2\n      mstore\n      0x20\n      add\n      swap1\n      dup2\n      mstore\n      0x20\n      add\n      0x00\n      keccak256\n        /* \"ComputeOracle.sol\":739:801  requests[requestCount] = ComputeRequest(msg.value,_reqData,\"\") */\n      0x00\n      dup3\n      add\n      mload\n      dup2\n      0x00\n      add\n      sstore\n      0x20\n      dup3\n      add\n      mload\n      dup2\n      0x01\n      add\n      swap1\n      dup2\n      tag_76\n      swap2\n      swap1\n      tag_77\n      jump\t// in\n    tag_76:\n      pop\n      0x40\n      dup3\n      add\n      mload\n      dup2\n      0x02\n      add\n      swap1\n      dup2\n      tag_78\n      swap2\n      swap1\n      tag_79\n      jump\t// in\n    tag_78:\n      pop\n      swap1\n      pop\n      pop\n        /* \"ComputeOracle.sol\":817:868  Request(requestCount,msg.sender,msg.value,_reqData) */\n      0x9e9857bae24aed7f64140455ee806a2e64f752ae101b95890a3081b5b90e2c51\n        /* \"ComputeOracle.sol\":825:837  requestCount */\n      sload(0x01)\n        /* \"ComputeOracle.sol\":838:848  msg.sender */\n      caller\n        /* \"ComputeOracle.sol\":849:858  msg.value */\n      callvalue\n        /* \"ComputeOracle.sol\":859:867  _reqData */\n      dup7\n      dup7\n        /* \"ComputeOracle.sol\":817:868  Request(requestCount,msg.sender,msg.value,_reqData) */\n      mload(0x40)\n      tag_80\n      swap6\n      swap5\n      swap4\n      swap3\n      swap2\n      swap1\n      tag_81\n      jump\t// in\n    tag_80:\n      mload(0x40)\n      dup1\n      swap2\n      sub\n      swap1\n      log1\n        /* \"ComputeOracle.sol\":879:891  requestCount */\n      0x01\n      0x00\n        /* \"ComputeOracle.sol\":879:893  requestCount++ */\n      dup2\n      sload\n      dup1\n      swap3\n      swap2\n      swap1\n      tag_82\n      swap1\n      tag_83\n      jump\t// in\n    tag_82:\n      swap2\n      swap1\n      pop\n      sstore\n      pop\n        /* \"ComputeOracle.sol\":911:915  true */\n      0x01\n        /* \"ComputeOracle.sol\":904:915  return true */\n      swap1\n      pop\n        /* \"ComputeOracle.sol\":543:923  function request(bytes calldata _reqData) external payable returns(bool){... */\n      swap3\n      swap2\n      pop\n      pop\n      jump\t// out\n        /* \"ComputeOracle.sol\":933:1121  function callBack(uint256 _reqId,string memory _result) external onlyOwner {... */\n    tag_45:\n        /* \"@openzeppelin/contracts/access/Ownable.sol\":1531:1544  _checkOwner() */\n      tag_85\n        /* \"@openzeppelin/contracts/access/Ownable.sol\":1531:1542  _checkOwner */\n      tag_53\n        /* \"@openzeppelin/contracts/access/Ownable.sol\":1531:1544  _checkOwner() */\n      jump\t// in\n    tag_85:\n        /* \"ComputeOracle.sol\":1037:1049  requestCount */\n      sload(0x01)\n        /* \"ComputeOracle.sol\":1027:1033  _reqId */\n      dup3\n        /* \"ComputeOracle.sol\":1027:1049  _reqId <= requestCount */\n      gt\n      iszero\n        /* \"ComputeOracle.sol\":1019:1069  require(_reqId <= requestCount,\"reqId is invalid\") */\n      tag_87\n      jumpi\n      mload(0x40)\n      0x08c379a000000000000000000000000000000000000000000000000000000000\n      dup2\n      mstore\n      0x04\n      add\n      tag_88\n      swap1\n      tag_89\n      jump\t// in\n    tag_88:\n      mload(0x40)\n      dup1\n      swap2\n      sub\n      swap1\n      revert\n    tag_87:\n        /* \"ComputeOracle.sol\":1106:1113  _result */\n      dup1\n        /* \"ComputeOracle.sol\":1080:1088  requests */\n      0x02\n        /* \"ComputeOracle.sol\":1080:1096  requests[_reqId] */\n      0x00\n        /* \"ComputeOracle.sol\":1089:1095  _reqId */\n      dup5\n        /* \"ComputeOracle.sol\":1080:1096  requests[_reqId] */\n      dup2\n      mstore\n      0x20\n      add\n      swap1\n      dup2\n      mstore\n      0x20\n      add\n      0x00\n      keccak256\n        /* \"ComputeOracle.sol\":1080:1103  requests[_reqId].result */\n      0x02\n      add\n        /* \"ComputeOracle.sol\":1080:1113  requests[_reqId].result = _result */\n      swap1\n      dup2\n      tag_90\n      swap2\n      swap1\n      tag_79\n      jump\t// in\n    tag_90:\n      pop\n        /* \"ComputeOracle.sol\":933:1121  function callBack(uint256 _reqId,string memory _result) external onlyOwner {... */\n      pop\n      pop\n      jump\t// out\n        /* \"@openzeppelin/contracts/access/Ownable.sol\":2543:2758  function transferOwnership(address newOwner) public virtual onlyOwner {... */\n    tag_50:\n        /* \"@openzeppelin/contracts/access/Ownable.sol\":1531:1544  _checkOwner() */\n      tag_92\n        /* \"@openzeppelin/contracts/access/Ownable.sol\":1531:1542  _checkOwner */\n      tag_53\n        /* \"@openzeppelin/contracts/access/Ownable.sol\":1531:1544  _checkOwner() */\n      jump\t// in\n    tag_92:\n        /* \"@openzeppelin/contracts/access/Ownable.sol\":2647:2648  0 */\n      0x00\n        /* \"@openzeppelin/contracts/access/Ownable.sol\":2627:2649  newOwner == address(0) */\n      0xffffffffffffffffffffffffffffffffffffffff\n      and\n        /* \"@openzeppelin/contracts/access/Ownable.sol\":2627:2635  newOwner */\n      dup2\n        /* \"@openzeppelin/contracts/access/Ownable.sol\":2627:2649  newOwner == address(0) */\n      0xffffffffffffffffffffffffffffffffffffffff\n      and\n      sub\n        /* \"@openzeppelin/contracts/access/Ownable.sol\":2623:2714  if (newOwner == address(0)) {... */\n      tag_94\n      jumpi\n        /* \"@openzeppelin/contracts/access/Ownable.sol\":2700:2701  0 */\n      0x00\n        /* \"@openzeppelin/contracts/access/Ownable.sol\":2672:2703  OwnableInvalidOwner(address(0)) */\n      mload(0x40)\n      0x1e4fbdf700000000000000000000000000000000000000000000000000000000\n      dup2\n      mstore\n      0x04\n      add\n      tag_95\n      swap2\n      swap1\n      tag_34\n      jump\t// in\n    tag_95:\n      mload(0x40)\n      dup1\n      swap2\n      sub\n      swap1\n      revert\n        /* \"@openzeppelin/contracts/access/Ownable.sol\":2623:2714  if (newOwner == address(0)) {... */\n    tag_94:\n        /* \"@openzeppelin/contracts/access/Ownable.sol\":2723:2751  _transferOwnership(newOwner) */\n      tag_96\n        /* \"@openzeppelin/contracts/access/Ownable.sol\":2742:2750  newOwner */\n      dup2\n        /* \"@openzeppelin/contracts/access/Ownable.sol\":2723:2741  _transferOwnership */\n      tag_56\n        /* \"@openzeppelin/contracts/access/Ownable.sol\":2723:2751  _transferOwnership(newOwner) */\n      jump\t// in\n    tag_96:\n        /* \"@openzeppelin/contracts/access/Ownable.sol\":2543:2758  function transferOwnership(address newOwner) public virtual onlyOwner {... */\n      pop\n      jump\t// out\n        /* \"@openzeppelin/contracts/access/Ownable.sol\":1796:1958  function _checkOwner() internal view virtual {... */\n    tag_53:\n        /* \"@openzeppelin/contracts/access/Ownable.sol\":1866:1878  _msgSender() */\n      tag_98\n        /* \"@openzeppelin/contracts/access/Ownable.sol\":1866:1876  _msgSender */\n      tag_99\n        /* \"@openzeppelin/contracts/access/Ownable.sol\":1866:1878  _msgSender() */\n      jump\t// in\n    tag_98:\n        /* \"@openzeppelin/contracts/access/Ownable.sol\":1855:1878  owner() != _msgSender() */\n      0xffffffffffffffffffffffffffffffffffffffff\n      and\n        /* \"@openzeppelin/contracts/access/Ownable.sol\":1855:1862  owner() */\n      tag_100\n        /* \"@openzeppelin/contracts/access/Ownable.sol\":1855:1860  owner */\n      tag_32\n        /* \"@openzeppelin/contracts/access/Ownable.sol\":1855:1862  owner() */\n      jump\t// in\n    tag_100:\n        /* \"@openzeppelin/contracts/access/Ownable.sol\":1855:1878  owner() != _msgSender() */\n      0xffffffffffffffffffffffffffffffffffffffff\n      and\n      eq\n        /* \"@openzeppelin/contracts/access/Ownable.sol\":1851:1952  if (owner() != _msgSender()) {... */\n      tag_101\n      jumpi\n        /* \"@openzeppelin/contracts/access/Ownable.sol\":1928:1940  _msgSender() */\n      tag_102\n        /* \"@openzeppelin/contracts/access/Ownable.sol\":1928:1938  _msgSender */\n      tag_99\n        /* \"@openzeppelin/contracts/access/Ownable.sol\":1928:1940  _msgSender() */\n      jump\t// in\n    tag_102:\n        /* \"@openzeppelin/contracts/access/Ownable.sol\":1901:1941  OwnableUnauthorizedAccount(_msgSender()) */\n      mload(0x40)\n      0x118cdaa700000000000000000000000000000000000000000000000000000000\n      dup2\n      mstore\n      0x04\n      add\n      tag_103\n      swap2\n      swap1\n      tag_34\n      jump\t// in\n    tag_103:\n      mload(0x40)\n      dup1\n      swap2\n      sub\n      swap1\n      revert\n        /* \"@openzeppelin/contracts/access/Ownable.sol\":1851:1952  if (owner() != _msgSender()) {... */\n    tag_101:\n        /* \"@openzeppelin/contracts/access/Ownable.sol\":1796:1958  function _checkOwner() internal view virtual {... */\n      jump\t// out\n        /* \"@openzeppelin/contracts/access/Ownable.sol\":2912:3099  function _transferOwnership(address newOwner) internal virtual {... */\n    tag_56:\n        /* \"@openzeppelin/contracts/access/Ownable.sol\":2985:3001  address oldOwner */\n      0x00\n        /* \"@openzeppelin/contracts/access/Ownable.sol\":3004:3010  _owner */\n      dup1\n      0x00\n      swap1\n      sload\n      swap1\n      0x0100\n      exp\n      swap1\n      div\n      0xffffffffffffffffffffffffffffffffffffffff\n      and\n        /* \"@openzeppelin/contracts/access/Ownable.sol\":2985:3010  address oldOwner = _owner */\n      swap1\n      pop\n        /* \"@openzeppelin/contracts/access/Ownable.sol\":3029:3037  newOwner */\n      dup2\n        /* \"@openzeppelin/contracts/access/Ownable.sol\":3020:3026  _owner */\n      0x00\n      dup1\n        /* \"@openzeppelin/contracts/access/Ownable.sol\":3020:3037  _owner = newOwner */\n      0x0100\n      exp\n      dup2\n      sload\n      dup2\n      0xffffffffffffffffffffffffffffffffffffffff\n      mul\n      not\n      and\n      swap1\n      dup4\n      0xffffffffffffffffffffffffffffffffffffffff\n      and\n      mul\n      or\n      swap1\n      sstore\n      pop\n        /* \"@openzeppelin/contracts/access/Ownable.sol\":3083:3091  newOwner */\n      dup2\n        /* \"@openzeppelin/contracts/access/Ownable.sol\":3052:3092  OwnershipTransferred(oldOwner, newOwner) */\n      0xffffffffffffffffffffffffffffffffffffffff\n      and\n        /* \"@openzeppelin/contracts/access/Ownable.sol\":3073:3081  oldOwner */\n      dup2\n        /* \"@openzeppelin/contracts/access/Ownable.sol\":3052:3092  OwnershipTransferred(oldOwner, newOwner) */\n      0xffffffffffffffffffffffffffffffffffffffff\n      and\n      0x8be0079c531659141344cd1fd0a4f28419497f9722a3daafe3b4186f6b6457e0\n      mload(0x40)\n      mload(0x40)\n      dup1\n      swap2\n      sub\n      swap1\n      log3\n        /* \"@openzeppelin/contracts/access/Ownable.sol\":2975:3099  {... */\n      pop\n        /* \"@openzeppelin/contracts/access/Ownable.sol\":2912:3099  function _transferOwnership(address newOwner) internal virtual {... */\n      pop\n      jump\t// out\n        /* \"@openzeppelin/contracts/utils/Context.sol\":656:752  function _msgSender() internal view virtual returns (address) {... */\n    tag_99:\n        /* \"@openzeppelin/contracts/utils/Context.sol\":709:716  address */\n      0x00\n        /* \"@openzeppelin/contracts/utils/Context.sol\":735:745  msg.sender */\n      caller\n        /* \"@openzeppelin/contracts/utils/Context.sol\":728:745  return msg.sender */\n      swap1\n      pop\n        /* \"@openzeppelin/contracts/utils/Context.sol\":656:752  function _msgSender() internal view virtual returns (address) {... */\n      swap1\n      jump\t// out\n        /* \"#utility.yul\":7:84   */\n    tag_106:\n        /* \"#utility.yul\":44:51   */\n      0x00\n        /* \"#utility.yul\":73:78   */\n      dup2\n        /* \"#utility.yul\":62:78   */\n      swap1\n      pop\n        /* \"#utility.yul\":7:84   */\n      swap2\n      swap1\n      pop\n      jump\t// out\n        /* \"#utility.yul\":90:208   */\n    tag_107:\n        /* \"#utility.yul\":177:201   */\n      tag_169\n        /* \"#utility.yul\":195:200   */\n      dup2\n        /* \"#utility.yul\":177:201   */\n      tag_106\n      jump\t// in\n    tag_169:\n        /* \"#utility.yul\":172:175   */\n      dup3\n        /* \"#utility.yul\":165:202   */\n      mstore\n        /* \"#utility.yul\":90:208   */\n      pop\n      pop\n      jump\t// out\n        /* \"#utility.yul\":214:436   */\n    tag_15:\n        /* \"#utility.yul\":307:311   */\n      0x00\n        /* \"#utility.yul\":345:347   */\n      0x20\n        /* \"#utility.yul\":334:343   */\n      dup3\n        /* \"#utility.yul\":330:348   */\n      add\n        /* \"#utility.yul\":322:348   */\n      swap1\n      pop\n        /* \"#utility.yul\":358:429   */\n      tag_171\n        /* \"#utility.yul\":426:427   */\n      0x00\n        /* \"#utility.yul\":415:424   */\n      dup4\n        /* \"#utility.yul\":411:428   */\n      add\n        /* \"#utility.yul\":402:408   */\n      dup5\n        /* \"#utility.yul\":358:429   */\n      tag_107\n      jump\t// in\n    tag_171:\n        /* \"#utility.yul\":214:436   */\n      swap3\n      swap2\n      pop\n      pop\n      jump\t// out\n        /* \"#utility.yul\":442:517   */\n    tag_108:\n        /* \"#utility.yul\":475:481   */\n      0x00\n        /* \"#utility.yul\":508:510   */\n      0x40\n        /* \"#utility.yul\":502:511   */\n      mload\n        /* \"#utility.yul\":492:511   */\n      swap1\n      pop\n        /* \"#utility.yul\":442:517   */\n      swap1\n      jump\t// out\n        /* \"#utility.yul\":523:640   */\n    tag_109:\n        /* \"#utility.yul\":632:633   */\n      0x00\n        /* \"#utility.yul\":629:630   */\n      dup1\n        /* \"#utility.yul\":622:634   */\n      revert\n        /* \"#utility.yul\":646:763   */\n    tag_110:\n        /* \"#utility.yul\":755:756   */\n      0x00\n        /* \"#utility.yul\":752:753   */\n      dup1\n        /* \"#utility.yul\":745:757   */\n      revert\n        /* \"#utility.yul\":769:891   */\n    tag_111:\n        /* \"#utility.yul\":842:866   */\n      tag_176\n        /* \"#utility.yul\":860:865   */\n      dup2\n        /* \"#utility.yul\":842:866   */\n      tag_106\n      jump\t// in\n    tag_176:\n        /* \"#utility.yul\":835:840   */\n      dup2\n        /* \"#utility.yul\":832:867   */\n      eq\n        /* \"#utility.yul\":822:885   */\n      tag_177\n      jumpi\n        /* \"#utility.yul\":881:882   */\n      0x00\n        /* \"#utility.yul\":878:879   */\n      dup1\n        /* \"#utility.yul\":871:883   */\n      revert\n        /* \"#utility.yul\":822:885   */\n    tag_177:\n        /* \"#utility.yul\":769:891   */\n      pop\n      jump\t// out\n        /* \"#utility.yul\":897:1036   */\n    tag_112:\n        /* \"#utility.yul\":943:948   */\n      0x00\n        /* \"#utility.yul\":981:987   */\n      dup2\n        /* \"#utility.yul\":968:988   */\n      calldataload\n        /* \"#utility.yul\":959:988   */\n      swap1\n      pop\n        /* \"#utility.yul\":997:1030   */\n      tag_179\n        /* \"#utility.yul\":1024:1029   */\n      dup2\n        /* \"#utility.yul\":997:1030   */\n      tag_111\n      jump\t// in\n    tag_179:\n        /* \"#utility.yul\":897:1036   */\n      swap3\n      swap2\n      pop\n      pop\n      jump\t// out\n        /* \"#utility.yul\":1042:1371   */\n    tag_26:\n        /* \"#utility.yul\":1101:1107   */\n      0x00\n        /* \"#utility.yul\":1150:1152   */\n      0x20\n        /* \"#utility.yul\":1138:1147   */\n      dup3\n        /* \"#utility.yul\":1129:1136   */\n      dup5\n        /* \"#utility.yul\":1125:1148   */\n      sub\n        /* \"#utility.yul\":1121:1153   */\n      slt\n        /* \"#utility.yul\":1118:1237   */\n      iszero\n      tag_181\n      jumpi\n        /* \"#utility.yul\":1156:1235   */\n      tag_182\n      tag_109\n      jump\t// in\n    tag_182:\n        /* \"#utility.yul\":1118:1237   */\n    tag_181:\n        /* \"#utility.yul\":1276:1277   */\n      0x00\n        /* \"#utility.yul\":1301:1354   */\n      tag_183\n        /* \"#utility.yul\":1346:1353   */\n      dup5\n        /* \"#utility.yul\":1337:1343   */\n      dup3\n        /* \"#utility.yul\":1326:1335   */\n      dup6\n        /* \"#utility.yul\":1322:1344   */\n      add\n        /* \"#utility.yul\":1301:1354   */\n      tag_112\n      jump\t// in\n    tag_183:\n        /* \"#utility.yul\":1291:1354   */\n      swap2\n      pop\n        /* \"#utility.yul\":1247:1364   */\n      pop\n        /* \"#utility.yul\":1042:1371   */\n      swap3\n      swap2\n      pop\n      pop\n      jump\t// out\n        /* \"#utility.yul\":1377:1475   */\n    tag_113:\n        /* \"#utility.yul\":1428:1434   */\n      0x00\n        /* \"#utility.yul\":1462:1467   */\n      dup2\n        /* \"#utility.yul\":1456:1468   */\n      mload\n        /* \"#utility.yul\":1446:1468   */\n      swap1\n      pop\n        /* \"#utility.yul\":1377:1475   */\n      swap2\n      swap1\n      pop\n      jump\t// out\n        /* \"#utility.yul\":1481:1649   */\n    tag_114:\n        /* \"#utility.yul\":1564:1575   */\n      0x00\n        /* \"#utility.yul\":1598:1604   */\n      dup3\n        /* \"#utility.yul\":1593:1596   */\n      dup3\n        /* \"#utility.yul\":1586:1605   */\n      mstore\n        /* \"#utility.yul\":1638:1642   */\n      0x20\n        /* \"#utility.yul\":1633:1636   */\n      dup3\n        /* \"#utility.yul\":1629:1643   */\n      add\n        /* \"#utility.yul\":1614:1643   */\n      swap1\n      pop\n        /* \"#utility.yul\":1481:1649   */\n      swap3\n      swap2\n      pop\n      pop\n      jump\t// out\n        /* \"#utility.yul\":1655:1901   */\n    tag_115:\n        /* \"#utility.yul\":1736:1737   */\n      0x00\n        /* \"#utility.yul\":1746:1859   */\n    tag_187:\n        /* \"#utility.yul\":1760:1766   */\n      dup4\n        /* \"#utility.yul\":1757:1758   */\n      dup2\n        /* \"#utility.yul\":1754:1767   */\n      lt\n        /* \"#utility.yul\":1746:1859   */\n      iszero\n      tag_189\n      jumpi\n        /* \"#utility.yul\":1845:1846   */\n      dup1\n        /* \"#utility.yul\":1840:1843   */\n      dup3\n        /* \"#utility.yul\":1836:1847   */\n      add\n        /* \"#utility.yul\":1830:1848   */\n      mload\n        /* \"#utility.yul\":1826:1827   */\n      dup2\n        /* \"#utility.yul\":1821:1824   */\n      dup5\n        /* \"#utility.yul\":1817:1828   */\n      add\n        /* \"#utility.yul\":1810:1849   */\n      mstore\n        /* \"#utility.yul\":1782:1784   */\n      0x20\n        /* \"#utility.yul\":1779:1780   */\n      dup2\n        /* \"#utility.yul\":1775:1785   */\n      add\n        /* \"#utility.yul\":1770:1785   */\n      swap1\n      pop\n        /* \"#utility.yul\":1746:1859   */\n      jump(tag_187)\n    tag_189:\n        /* \"#utility.yul\":1893:1894   */\n      0x00\n        /* \"#utility.yul\":1884:1890   */\n      dup5\n        /* \"#utility.yul\":1879:1882   */\n      dup5\n        /* \"#utility.yul\":1875:1891   */\n      add\n        /* \"#utility.yul\":1868:1895   */\n      mstore\n        /* \"#utility.yul\":1717:1901   */\n      pop\n        /* \"#utility.yul\":1655:1901   */\n      pop\n      pop\n      pop\n      jump\t// out\n        /* \"#utility.yul\":1907:2009   */\n    tag_116:\n        /* \"#utility.yul\":1948:1954   */\n      0x00\n        /* \"#utility.yul\":1999:2001   */\n      0x1f\n        /* \"#utility.yul\":1995:2002   */\n      not\n        /* \"#utility.yul\":1990:1992   */\n      0x1f\n        /* \"#utility.yul\":1983:1988   */\n      dup4\n        /* \"#utility.yul\":1979:1993   */\n      add\n        /* \"#utility.yul\":1975:2003   */\n      and\n        /* \"#utility.yul\":1965:2003   */\n      swap1\n      pop\n        /* \"#utility.yul\":1907:2009   */\n      swap2\n      swap1\n      pop\n      jump\t// out\n        /* \"#utility.yul\":2015:2388   */\n    tag_117:\n        /* \"#utility.yul\":2101:2104   */\n      0x00\n        /* \"#utility.yul\":2129:2167   */\n      tag_192\n        /* \"#utility.yul\":2161:2166   */\n      dup3\n        /* \"#utility.yul\":2129:2167   */\n      tag_113\n      jump\t// in\n    tag_192:\n        /* \"#utility.yul\":2183:2253   */\n      tag_193\n        /* \"#utility.yul\":2246:2252   */\n      dup2\n        /* \"#utility.yul\":2241:2244   */\n      dup6\n        /* \"#utility.yul\":2183:2253   */\n      tag_114\n      jump\t// in\n    tag_193:\n        /* \"#utility.yul\":2176:2253   */\n      swap4\n      pop\n        /* \"#utility.yul\":2262:2327   */\n      tag_194\n        /* \"#utility.yul\":2320:2326   */\n      dup2\n        /* \"#utility.yul\":2315:2318   */\n      dup6\n        /* \"#utility.yul\":2308:2312   */\n      0x20\n        /* \"#utility.yul\":2301:2306   */\n      dup7\n        /* \"#utility.yul\":2297:2313   */\n      add\n        /* \"#utility.yul\":2262:2327   */\n      tag_115\n      jump\t// in\n    tag_194:\n        /* \"#utility.yul\":2352:2381   */\n      tag_195\n        /* \"#utility.yul\":2374:2380   */\n      dup2\n        /* \"#utility.yul\":2352:2381   */\n      tag_116\n      jump\t// in\n    tag_195:\n        /* \"#utility.yul\":2347:2350   */\n      dup5\n        /* \"#utility.yul\":2343:2382   */\n      add\n        /* \"#utility.yul\":2336:2382   */\n      swap2\n      pop\n        /* \"#utility.yul\":2105:2388   */\n      pop\n        /* \"#utility.yul\":2015:2388   */\n      swap3\n      swap2\n      pop\n      pop\n      jump\t// out\n        /* \"#utility.yul\":2394:2493   */\n    tag_118:\n        /* \"#utility.yul\":2446:2452   */\n      0x00\n        /* \"#utility.yul\":2480:2485   */\n      dup2\n        /* \"#utility.yul\":2474:2486   */\n      mload\n        /* \"#utility.yul\":2464:2486   */\n      swap1\n      pop\n        /* \"#utility.yul\":2394:2493   */\n      swap2\n      swap1\n      pop\n      jump\t// out\n        /* \"#utility.yul\":2499:2668   */\n    tag_119:\n        /* \"#utility.yul\":2583:2594   */\n      0x00\n        /* \"#utility.yul\":2617:2623   */\n      dup3\n        /* \"#utility.yul\":2612:2615   */\n      dup3\n        /* \"#utility.yul\":2605:2624   */\n      mstore\n        /* \"#utility.yul\":2657:2661   */\n      0x20\n        /* \"#utility.yul\":2652:2655   */\n      dup3\n        /* \"#utility.yul\":2648:2662   */\n      add\n        /* \"#utility.yul\":2633:2662   */\n      swap1\n      pop\n        /* \"#utility.yul\":2499:2668   */\n      swap3\n      swap2\n      pop\n      pop\n      jump\t// out\n        /* \"#utility.yul\":2674:3051   */\n    tag_120:\n        /* \"#utility.yul\":2762:2765   */\n      0x00\n        /* \"#utility.yul\":2790:2829   */\n      tag_199\n        /* \"#utility.yul\":2823:2828   */\n      dup3\n        /* \"#utility.yul\":2790:2829   */\n      tag_118\n      jump\t// in\n    tag_199:\n        /* \"#utility.yul\":2845:2916   */\n      tag_200\n        /* \"#utility.yul\":2909:2915   */\n      dup2\n        /* \"#utility.yul\":2904:2907   */\n      dup6\n        /* \"#utility.yul\":2845:2916   */\n      tag_119\n      jump\t// in\n    tag_200:\n        /* \"#utility.yul\":2838:2916   */\n      swap4\n      pop\n        /* \"#utility.yul\":2925:2990   */\n      tag_201\n        /* \"#utility.yul\":2983:2989   */\n      dup2\n        /* \"#utility.yul\":2978:2981   */\n      dup6\n        /* \"#utility.yul\":2971:2975   */\n      0x20\n        /* \"#utility.yul\":2964:2969   */\n      dup7\n        /* \"#utility.yul\":2960:2976   */\n      add\n        /* \"#utility.yul\":2925:2990   */\n      tag_115\n      jump\t// in\n    tag_201:\n        /* \"#utility.yul\":3015:3044   */\n      tag_202\n        /* \"#utility.yul\":3037:3043   */\n      dup2\n        /* \"#utility.yul\":3015:3044   */\n      tag_116\n      jump\t// in\n    tag_202:\n        /* \"#utility.yul\":3010:3013   */\n      dup5\n        /* \"#utility.yul\":3006:3045   */\n      add\n        /* \"#utility.yul\":2999:3045   */\n      swap2\n      pop\n        /* \"#utility.yul\":2766:3051   */\n      pop\n        /* \"#utility.yul\":2674:3051   */\n      swap3\n      swap2\n      pop\n      pop\n      jump\t// out\n        /* \"#utility.yul\":3057:3677   */\n    tag_29:\n        /* \"#utility.yul\":3244:3248   */\n      0x00\n        /* \"#utility.yul\":3282:3284   */\n      0x60\n        /* \"#utility.yul\":3271:3280   */\n      dup3\n        /* \"#utility.yul\":3267:3285   */\n      add\n        /* \"#utility.yul\":3259:3285   */\n      swap1\n      pop\n        /* \"#utility.yul\":3295:3366   */\n      tag_204\n        /* \"#utility.yul\":3363:3364   */\n      0x00\n        /* \"#utility.yul\":3352:3361   */\n      dup4\n        /* \"#utility.yul\":3348:3365   */\n      add\n        /* \"#utility.yul\":3339:3345   */\n      dup7\n        /* \"#utility.yul\":3295:3366   */\n      tag_107\n      jump\t// in\n    tag_204:\n        /* \"#utility.yul\":3413:3422   */\n      dup2\n        /* \"#utility.yul\":3407:3411   */\n      dup2\n        /* \"#utility.yul\":3403:3423   */\n      sub\n        /* \"#utility.yul\":3398:3400   */\n      0x20\n        /* \"#utility.yul\":3387:3396   */\n      dup4\n        /* \"#utility.yul\":3383:3401   */\n      add\n        /* \"#utility.yul\":3376:3424   */\n      mstore\n        /* \"#utility.yul\":3441:3517   */\n      tag_205\n        /* \"#utility.yul\":3512:3516   */\n      dup2\n        /* \"#utility.yul\":3503:3509   */\n      dup6\n        /* \"#utility.yul\":3441:3517   */\n      tag_117\n      jump\t// in\n    tag_205:\n        /* \"#utility.yul\":3433:3517   */\n      swap1\n      pop\n        /* \"#utility.yul\":3564:3573   */\n      dup2\n        /* \"#utility.yul\":3558:3562   */\n      dup2\n        /* \"#utility.yul\":3554:3574   */\n      sub\n        /* \"#utility.yul\":3549:3551   */\n      0x40\n        /* \"#utility.yul\":3538:3547   */\n      dup4\n        /* \"#utility.yul\":3534:3552   */\n      add\n        /* \"#utility.yul\":3527:3575   */\n      mstore\n        /* \"#utility.yul\":3592:3670   */\n      tag_206\n        /* \"#utility.yul\":3665:3669   */\n      dup2\n        /* \"#utility.yul\":3656:3662   */\n      dup5\n        /* \"#utility.yul\":3592:3670   */\n      tag_120\n      jump\t// in\n    tag_206:\n        /* \"#utility.yul\":3584:3670   */\n      swap1\n      pop\n        /* \"#utility.yul\":3057:3677   */\n      swap5\n      swap4\n      pop\n      pop\n      pop\n      pop\n      jump\t// out\n        /* \"#utility.yul\":3683:3809   */\n    tag_121:\n        /* \"#utility.yul\":3720:3727   */\n      0x00\n        /* \"#utility.yul\":3760:3802   */\n      0xffffffffffffffffffffffffffffffffffffffff\n        /* \"#utility.yul\":3753:3758   */\n      dup3\n        /* \"#utility.yul\":3749:3803   */\n      and\n        /* \"#utility.yul\":3738:3803   */\n      swap1\n      pop\n        /* \"#utility.yul\":3683:3809   */\n      swap2\n      swap1\n      pop\n      jump\t// out\n        /* \"#utility.yul\":3815:3911   */\n    tag_122:\n        /* \"#utility.yul\":3852:3859   */\n      0x00\n        /* \"#utility.yul\":3881:3905   */\n      tag_209\n        /* \"#utility.yul\":3899:3904   */\n      dup3\n        /* \"#utility.yul\":3881:3905   */\n      tag_121\n      jump\t// in\n    tag_209:\n        /* \"#utility.yul\":3870:3905   */\n      swap1\n      pop\n        /* \"#utility.yul\":3815:3911   */\n      swap2\n      swap1\n      pop\n      jump\t// out\n        /* \"#utility.yul\":3917:4035   */\n    tag_123:\n        /* \"#utility.yul\":4004:4028   */\n      tag_211\n        /* \"#utility.yul\":4022:4027   */\n      dup2\n        /* \"#utility.yul\":4004:4028   */\n      tag_122\n      jump\t// in\n    tag_211:\n        /* \"#utility.yul\":3999:4002   */\n      dup3\n        /* \"#utility.yul\":3992:4029   */\n      mstore\n        /* \"#utility.yul\":3917:4035   */\n      pop\n      pop\n      jump\t// out\n        /* \"#utility.yul\":4041:4263   */\n    tag_34:\n        /* \"#utility.yul\":4134:4138   */\n      0x00\n        /* \"#utility.yul\":4172:4174   */\n      0x20\n        /* \"#utility.yul\":4161:4170   */\n      dup3\n        /* \"#utility.yul\":4157:4175   */\n      add\n        /* \"#utility.yul\":4149:4175   */\n      swap1\n      pop\n        /* \"#utility.yul\":4185:4256   */\n      tag_213\n        /* \"#utility.yul\":4253:4254   */\n      0x00\n        /* \"#utility.yul\":4242:4251   */\n      dup4\n        /* \"#utility.yul\":4238:4255   */\n      add\n        /* \"#utility.yul\":4229:4235   */\n      dup5\n        /* \"#utility.yul\":4185:4256   */\n      tag_123\n      jump\t// in\n    tag_213:\n        /* \"#utility.yul\":4041:4263   */\n      swap3\n      swap2\n      pop\n      pop\n      jump\t// out\n        /* \"#utility.yul\":4269:4386   */\n    tag_124:\n        /* \"#utility.yul\":4378:4379   */\n      0x00\n        /* \"#utility.yul\":4375:4376   */\n      dup1\n        /* \"#utility.yul\":4368:4380   */\n      revert\n        /* \"#utility.yul\":4392:4509   */\n    tag_125:\n        /* \"#utility.yul\":4501:4502   */\n      0x00\n        /* \"#utility.yul\":4498:4499   */\n      dup1\n        /* \"#utility.yul\":4491:4503   */\n      revert\n        /* \"#utility.yul\":4515:4632   */\n    tag_126:\n        /* \"#utility.yul\":4624:4625   */\n      0x00\n        /* \"#utility.yul\":4621:4622   */\n      dup1\n        /* \"#utility.yul\":4614:4626   */\n      revert\n        /* \"#utility.yul\":4651:5203   */\n    tag_127:\n        /* \"#utility.yul\":4708:4716   */\n      0x00\n        /* \"#utility.yul\":4718:4724   */\n      dup1\n        /* \"#utility.yul\":4768:4771   */\n      dup4\n        /* \"#utility.yul\":4761:4765   */\n      0x1f\n        /* \"#utility.yul\":4753:4759   */\n      dup5\n        /* \"#utility.yul\":4749:4766   */\n      add\n        /* \"#utility.yul\":4745:4772   */\n      slt\n        /* \"#utility.yul\":4735:4857   */\n      tag_218\n      jumpi\n        /* \"#utility.yul\":4776:4855   */\n      tag_219\n      tag_124\n      jump\t// in\n    tag_219:\n        /* \"#utility.yul\":4735:4857   */\n    tag_218:\n        /* \"#utility.yul\":4889:4895   */\n      dup3\n        /* \"#utility.yul\":4876:4896   */\n      calldataload\n        /* \"#utility.yul\":4866:4896   */\n      swap1\n      pop\n        /* \"#utility.yul\":4919:4937   */\n      0xffffffffffffffff\n        /* \"#utility.yul\":4911:4917   */\n      dup2\n        /* \"#utility.yul\":4908:4938   */\n      gt\n        /* \"#utility.yul\":4905:5022   */\n      iszero\n      tag_220\n      jumpi\n        /* \"#utility.yul\":4941:5020   */\n      tag_221\n      tag_125\n      jump\t// in\n    tag_221:\n        /* \"#utility.yul\":4905:5022   */\n    tag_220:\n        /* \"#utility.yul\":5055:5059   */\n      0x20\n        /* \"#utility.yul\":5047:5053   */\n      dup4\n        /* \"#utility.yul\":5043:5060   */\n      add\n        /* \"#utility.yul\":5031:5060   */\n      swap2\n      pop\n        /* \"#utility.yul\":5109:5112   */\n      dup4\n        /* \"#utility.yul\":5101:5105   */\n      0x01\n        /* \"#utility.yul\":5093:5099   */\n      dup3\n        /* \"#utility.yul\":5089:5106   */\n      mul\n        /* \"#utility.yul\":5079:5087   */\n      dup4\n        /* \"#utility.yul\":5075:5107   */\n      add\n        /* \"#utility.yul\":5072:5113   */\n      gt\n        /* \"#utility.yul\":5069:5197   */\n      iszero\n      tag_222\n      jumpi\n        /* \"#utility.yul\":5116:5195   */\n      tag_223\n      tag_126\n      jump\t// in\n    tag_223:\n        /* \"#utility.yul\":5069:5197   */\n    tag_222:\n        /* \"#utility.yul\":4651:5203   */\n      swap3\n      pop\n      swap3\n      swap1\n      pop\n      jump\t// out\n        /* \"#utility.yul\":5209:5736   */\n    tag_37:\n        /* \"#utility.yul\":5279:5285   */\n      0x00\n        /* \"#utility.yul\":5287:5293   */\n      dup1\n        /* \"#utility.yul\":5336:5338   */\n      0x20\n        /* \"#utility.yul\":5324:5333   */\n      dup4\n        /* \"#utility.yul\":5315:5322   */\n      dup6\n        /* \"#utility.yul\":5311:5334   */\n      sub\n        /* \"#utility.yul\":5307:5339   */\n      slt\n        /* \"#utility.yul\":5304:5423   */\n      iszero\n      tag_225\n      jumpi\n        /* \"#utility.yul\":5342:5421   */\n      tag_226\n      tag_109\n      jump\t// in\n    tag_226:\n        /* \"#utility.yul\":5304:5423   */\n    tag_225:\n        /* \"#utility.yul\":5490:5491   */\n      0x00\n        /* \"#utility.yul\":5479:5488   */\n      dup4\n        /* \"#utility.yul\":5475:5492   */\n      add\n        /* \"#utility.yul\":5462:5493   */\n      calldataload\n        /* \"#utility.yul\":5520:5538   */\n      0xffffffffffffffff\n        /* \"#utility.yul\":5512:5518   */\n      dup2\n        /* \"#utility.yul\":5509:5539   */\n      gt\n        /* \"#utility.yul\":5506:5623   */\n      iszero\n      tag_227\n      jumpi\n        /* \"#utility.yul\":5542:5621   */\n      tag_228\n      tag_110\n      jump\t// in\n    tag_228:\n        /* \"#utility.yul\":5506:5623   */\n    tag_227:\n        /* \"#utility.yul\":5655:5719   */\n      tag_229\n        /* \"#utility.yul\":5711:5718   */\n      dup6\n        /* \"#utility.yul\":5702:5708   */\n      dup3\n        /* \"#utility.yul\":5691:5700   */\n      dup7\n        /* \"#utility.yul\":5687:5709   */\n      add\n        /* \"#utility.yul\":5655:5719   */\n      tag_127\n      jump\t// in\n    tag_229:\n        /* \"#utility.yul\":5637:5719   */\n      swap3\n      pop\n      swap3\n      pop\n        /* \"#utility.yul\":5433:5729   */\n      pop\n        /* \"#utility.yul\":5209:5736   */\n      swap3\n      pop\n      swap3\n      swap1\n      pop\n      jump\t// out\n        /* \"#utility.yul\":5742:5832   */\n    tag_128:\n        /* \"#utility.yul\":5776:5783   */\n      0x00\n        /* \"#utility.yul\":5819:5824   */\n      dup2\n        /* \"#utility.yul\":5812:5825   */\n      iszero\n        /* \"#utility.yul\":5805:5826   */\n      iszero\n        /* \"#utility.yul\":5794:5826   */\n      swap1\n      pop\n        /* \"#utility.yul\":5742:5832   */\n      swap2\n      swap1\n      pop\n      jump\t// out\n        /* \"#utility.yul\":5838:5947   */\n    tag_129:\n        /* \"#utility.yul\":5919:5940   */\n      tag_232\n        /* \"#utility.yul\":5934:5939   */\n      dup2\n        /* \"#utility.yul\":5919:5940   */\n      tag_128\n      jump\t// in\n    tag_232:\n        /* \"#utility.yul\":5914:5917   */\n      dup3\n        /* \"#utility.yul\":5907:5941   */\n      mstore\n        /* \"#utility.yul\":5838:5947   */\n      pop\n      pop\n      jump\t// out\n        /* \"#utility.yul\":5953:6163   */\n    tag_40:\n        /* \"#utility.yul\":6040:6044   */\n      0x00\n        /* \"#utility.yul\":6078:6080   */\n      0x20\n        /* \"#utility.yul\":6067:6076   */\n      dup3\n        /* \"#utility.yul\":6063:6081   */\n      add\n        /* \"#utility.yul\":6055:6081   */\n      swap1\n      pop\n        /* \"#utility.yul\":6091:6156   */\n      tag_234\n        /* \"#utility.yul\":6153:6154   */\n      0x00\n        /* \"#utility.yul\":6142:6151   */\n      dup4\n        /* \"#utility.yul\":6138:6155   */\n      add\n        /* \"#utility.yul\":6129:6135   */\n      dup5\n        /* \"#utility.yul\":6091:6156   */\n      tag_129\n      jump\t// in\n    tag_234:\n        /* \"#utility.yul\":5953:6163   */\n      swap3\n      swap2\n      pop\n      pop\n      jump\t// out\n        /* \"#utility.yul\":6169:6286   */\n    tag_130:\n        /* \"#utility.yul\":6278:6279   */\n      0x00\n        /* \"#utility.yul\":6275:6276   */\n      dup1\n        /* \"#utility.yul\":6268:6280   */\n      revert\n        /* \"#utility.yul\":6292:6472   */\n    tag_131:\n        /* \"#utility.yul\":6340:6417   */\n      0x4e487b7100000000000000000000000000000000000000000000000000000000\n        /* \"#utility.yul\":6337:6338   */\n      0x00\n        /* \"#utility.yul\":6330:6418   */\n      mstore\n        /* \"#utility.yul\":6437:6441   */\n      0x41\n        /* \"#utility.yul\":6434:6435   */\n      0x04\n        /* \"#utility.yul\":6427:6442   */\n      mstore\n        /* \"#utility.yul\":6461:6465   */\n      0x24\n        /* \"#utility.yul\":6458:6459   */\n      0x00\n        /* \"#utility.yul\":6451:6466   */\n      revert\n        /* \"#utility.yul\":6478:6759   */\n    tag_132:\n        /* \"#utility.yul\":6561:6588   */\n      tag_238\n        /* \"#utility.yul\":6583:6587   */\n      dup3\n        /* \"#utility.yul\":6561:6588   */\n      tag_116\n      jump\t// in\n    tag_238:\n        /* \"#utility.yul\":6553:6559   */\n      dup2\n        /* \"#utility.yul\":6549:6589   */\n      add\n        /* \"#utility.yul\":6691:6697   */\n      dup2\n        /* \"#utility.yul\":6679:6689   */\n      dup2\n        /* \"#utility.yul\":6676:6698   */\n      lt\n        /* \"#utility.yul\":6655:6673   */\n      0xffffffffffffffff\n        /* \"#utility.yul\":6643:6653   */\n      dup3\n        /* \"#utility.yul\":6640:6674   */\n      gt\n        /* \"#utility.yul\":6637:6699   */\n      or\n        /* \"#utility.yul\":6634:6722   */\n      iszero\n      tag_239\n      jumpi\n        /* \"#utility.yul\":6702:6720   */\n      tag_240\n      tag_131\n      jump\t// in\n    tag_240:\n        /* \"#utility.yul\":6634:6722   */\n    tag_239:\n        /* \"#utility.yul\":6742:6752   */\n      dup1\n        /* \"#utility.yul\":6738:6740   */\n      0x40\n        /* \"#utility.yul\":6731:6753   */\n      mstore\n        /* \"#utility.yul\":6521:6759   */\n      pop\n        /* \"#utility.yul\":6478:6759   */\n      pop\n      pop\n      jump\t// out\n        /* \"#utility.yul\":6765:6894   */\n    tag_133:\n        /* \"#utility.yul\":6799:6805   */\n      0x00\n        /* \"#utility.yul\":6826:6846   */\n      tag_242\n      tag_108\n      jump\t// in\n    tag_242:\n        /* \"#utility.yul\":6816:6846   */\n      swap1\n      pop\n        /* \"#utility.yul\":6855:6888   */\n      tag_243\n        /* \"#utility.yul\":6883:6887   */\n      dup3\n        /* \"#utility.yul\":6875:6881   */\n      dup3\n        /* \"#utility.yul\":6855:6888   */\n      tag_132\n      jump\t// in\n    tag_243:\n        /* \"#utility.yul\":6765:6894   */\n      swap2\n      swap1\n      pop\n      jump\t// out\n        /* \"#utility.yul\":6900:7208   */\n    tag_134:\n        /* \"#utility.yul\":6962:6966   */\n      0x00\n        /* \"#utility.yul\":7052:7070   */\n      0xffffffffffffffff\n        /* \"#utility.yul\":7044:7050   */\n      dup3\n        /* \"#utility.yul\":7041:7071   */\n      gt\n        /* \"#utility.yul\":7038:7094   */\n      iszero\n      tag_245\n      jumpi\n        /* \"#utility.yul\":7074:7092   */\n      tag_246\n      tag_131\n      jump\t// in\n    tag_246:\n        /* \"#utility.yul\":7038:7094   */\n    tag_245:\n        /* \"#utility.yul\":7112:7141   */\n      tag_247\n        /* \"#utility.yul\":7134:7140   */\n      dup3\n        /* \"#utility.yul\":7112:7141   */\n      tag_116\n      jump\t// in\n    tag_247:\n        /* \"#utility.yul\":7104:7141   */\n      swap1\n      pop\n        /* \"#utility.yul\":7196:7200   */\n      0x20\n        /* \"#utility.yul\":7190:7194   */\n      dup2\n        /* \"#utility.yul\":7186:7201   */\n      add\n        /* \"#utility.yul\":7178:7201   */\n      swap1\n      pop\n        /* \"#utility.yul\":6900:7208   */\n      swap2\n      swap1\n      pop\n      jump\t// out\n        /* \"#utility.yul\":7214:7360   */\n    tag_135:\n        /* \"#utility.yul\":7311:7317   */\n      dup3\n        /* \"#utility.yul\":7306:7309   */\n      dup2\n        /* \"#utility.yul\":7301:7304   */\n      dup4\n        /* \"#utility.yul\":7288:7318   */\n      calldatacopy\n        /* \"#utility.yul\":7352:7353   */\n      0x00\n        /* \"#utility.yul\":7343:7349   */\n      dup4\n        /* \"#utility.yul\":7338:7341   */\n      dup4\n        /* \"#utility.yul\":7334:7350   */\n      add\n        /* \"#utility.yul\":7327:7354   */\n      mstore\n        /* \"#utility.yul\":7214:7360   */\n      pop\n      pop\n      pop\n      jump\t// out\n        /* \"#utility.yul\":7366:7791   */\n    tag_136:\n        /* \"#utility.yul\":7444:7449   */\n      0x00\n        /* \"#utility.yul\":7469:7535   */\n      tag_250\n        /* \"#utility.yul\":7485:7534   */\n      tag_251\n        /* \"#utility.yul\":7527:7533   */\n      dup5\n        /* \"#utility.yul\":7485:7534   */\n      tag_134\n      jump\t// in\n    tag_251:\n        /* \"#utility.yul\":7469:7535   */\n      tag_133\n      jump\t// in\n    tag_250:\n        /* \"#utility.yul\":7460:7535   */\n      swap1\n      pop\n        /* \"#utility.yul\":7558:7564   */\n      dup3\n        /* \"#utility.yul\":7551:7556   */\n      dup2\n        /* \"#utility.yul\":7544:7565   */\n      mstore\n        /* \"#utility.yul\":7596:7600   */\n      0x20\n        /* \"#utility.yul\":7589:7594   */\n      dup2\n        /* \"#utility.yul\":7585:7601   */\n      add\n        /* \"#utility.yul\":7634:7637   */\n      dup5\n        /* \"#utility.yul\":7625:7631   */\n      dup5\n        /* \"#utility.yul\":7620:7623   */\n      dup5\n        /* \"#utility.yul\":7616:7632   */\n      add\n        /* \"#utility.yul\":7613:7638   */\n      gt\n        /* \"#utility.yul\":7610:7722   */\n      iszero\n      tag_252\n      jumpi\n        /* \"#utility.yul\":7641:7720   */\n      tag_253\n      tag_130\n      jump\t// in\n    tag_253:\n        /* \"#utility.yul\":7610:7722   */\n    tag_252:\n        /* \"#utility.yul\":7731:7785   */\n      tag_254\n        /* \"#utility.yul\":7778:7784   */\n      dup5\n        /* \"#utility.yul\":7773:7776   */\n      dup3\n        /* \"#utility.yul\":7768:7771   */\n      dup6\n        /* \"#utility.yul\":7731:7785   */\n      tag_135\n      jump\t// in\n    tag_254:\n        /* \"#utility.yul\":7450:7791   */\n      pop\n        /* \"#utility.yul\":7366:7791   */\n      swap4\n      swap3\n      pop\n      pop\n      pop\n      jump\t// out\n        /* \"#utility.yul\":7811:8151   */\n    tag_137:\n        /* \"#utility.yul\":7867:7872   */\n      0x00\n        /* \"#utility.yul\":7916:7919   */\n      dup3\n        /* \"#utility.yul\":7909:7913   */\n      0x1f\n        /* \"#utility.yul\":7901:7907   */\n      dup4\n        /* \"#utility.yul\":7897:7914   */\n      add\n        /* \"#utility.yul\":7893:7920   */\n      slt\n        /* \"#utility.yul\":7883:8005   */\n      tag_256\n      jumpi\n        /* \"#utility.yul\":7924:8003   */\n      tag_257\n      tag_124\n      jump\t// in\n    tag_257:\n        /* \"#utility.yul\":7883:8005   */\n    tag_256:\n        /* \"#utility.yul\":8041:8047   */\n      dup2\n        /* \"#utility.yul\":8028:8048   */\n      calldataload\n        /* \"#utility.yul\":8066:8145   */\n      tag_258\n        /* \"#utility.yul\":8141:8144   */\n      dup5\n        /* \"#utility.yul\":8133:8139   */\n      dup3\n        /* \"#utility.yul\":8126:8130   */\n      0x20\n        /* \"#utility.yul\":8118:8124   */\n      dup7\n        /* \"#utility.yul\":8114:8131   */\n      add\n        /* \"#utility.yul\":8066:8145   */\n      tag_136\n      jump\t// in\n    tag_258:\n        /* \"#utility.yul\":8057:8145   */\n      swap2\n      pop\n        /* \"#utility.yul\":7873:8151   */\n      pop\n        /* \"#utility.yul\":7811:8151   */\n      swap3\n      swap2\n      pop\n      pop\n      jump\t// out\n        /* \"#utility.yul\":8157:8811   */\n    tag_44:\n        /* \"#utility.yul\":8235:8241   */\n      0x00\n        /* \"#utility.yul\":8243:8249   */\n      dup1\n        /* \"#utility.yul\":8292:8294   */\n      0x40\n        /* \"#utility.yul\":8280:8289   */\n      dup4\n        /* \"#utility.yul\":8271:8278   */\n      dup6\n        /* \"#utility.yul\":8267:8290   */\n      sub\n        /* \"#utility.yul\":8263:8295   */\n      slt\n        /* \"#utility.yul\":8260:8379   */\n      iszero\n      tag_260\n      jumpi\n        /* \"#utility.yul\":8298:8377   */\n      tag_261\n      tag_109\n      jump\t// in\n    tag_261:\n        /* \"#utility.yul\":8260:8379   */\n    tag_260:\n        /* \"#utility.yul\":8418:8419   */\n      0x00\n        /* \"#utility.yul\":8443:8496   */\n      tag_262\n        /* \"#utility.yul\":8488:8495   */\n      dup6\n        /* \"#utility.yul\":8479:8485   */\n      dup3\n        /* \"#utility.yul\":8468:8477   */\n      dup7\n        /* \"#utility.yul\":8464:8486   */\n      add\n        /* \"#utility.yul\":8443:8496   */\n      tag_112\n      jump\t// in\n    tag_262:\n        /* \"#utility.yul\":8433:8496   */\n      swap3\n      pop\n        /* \"#utility.yul\":8389:8506   */\n      pop\n        /* \"#utility.yul\":8573:8575   */\n      0x20\n        /* \"#utility.yul\":8562:8571   */\n      dup4\n        /* \"#utility.yul\":8558:8576   */\n      add\n        /* \"#utility.yul\":8545:8577   */\n      calldataload\n        /* \"#utility.yul\":8604:8622   */\n      0xffffffffffffffff\n        /* \"#utility.yul\":8596:8602   */\n      dup2\n        /* \"#utility.yul\":8593:8623   */\n      gt\n        /* \"#utility.yul\":8590:8707   */\n      iszero\n      tag_263\n      jumpi\n        /* \"#utility.yul\":8626:8705   */\n      tag_264\n      tag_110\n      jump\t// in\n    tag_264:\n        /* \"#utility.yul\":8590:8707   */\n    tag_263:\n        /* \"#utility.yul\":8731:8794   */\n      tag_265\n        /* \"#utility.yul\":8786:8793   */\n      dup6\n        /* \"#utility.yul\":8777:8783   */\n      dup3\n        /* \"#utility.yul\":8766:8775   */\n      dup7\n        /* \"#utility.yul\":8762:8784   */\n      add\n        /* \"#utility.yul\":8731:8794   */\n      tag_137\n      jump\t// in\n    tag_265:\n        /* \"#utility.yul\":8721:8794   */\n      swap2\n      pop\n        /* \"#utility.yul\":8516:8804   */\n      pop\n        /* \"#utility.yul\":8157:8811   */\n      swap3\n      pop\n      swap3\n      swap1\n      pop\n      jump\t// out\n        /* \"#utility.yul\":8817:8939   */\n    tag_138:\n        /* \"#utility.yul\":8890:8914   */\n      tag_267\n        /* \"#utility.yul\":8908:8913   */\n      dup2\n        /* \"#utility.yul\":8890:8914   */\n      tag_122\n      jump\t// in\n    tag_267:\n        /* \"#utility.yul\":8883:8888   */\n      dup2\n        /* \"#utility.yul\":8880:8915   */\n      eq\n        /* \"#utility.yul\":8870:8933   */\n      tag_268\n      jumpi\n        /* \"#utility.yul\":8929:8930   */\n      0x00\n        /* \"#utility.yul\":8926:8927   */\n      dup1\n        /* \"#utility.yul\":8919:8931   */\n      revert\n        /* \"#utility.yul\":8870:8933   */\n    tag_268:\n        /* \"#utility.yul\":8817:8939   */\n      pop\n      jump\t// out\n        /* \"#utility.yul\":8945:9084   */\n    tag_139:\n        /* \"#utility.yul\":8991:8996   */\n      0x00\n        /* \"#utility.yul\":9029:9035   */\n      dup2\n        /* \"#utility.yul\":9016:9036   */\n      calldataload\n        /* \"#utility.yul\":9007:9036   */\n      swap1\n      pop\n        /* \"#utility.yul\":9045:9078   */\n      tag_270\n        /* \"#utility.yul\":9072:9077   */\n      dup2\n        /* \"#utility.yul\":9045:9078   */\n      tag_138\n      jump\t// in\n    tag_270:\n        /* \"#utility.yul\":8945:9084   */\n      swap3\n      swap2\n      pop\n      pop\n      jump\t// out\n        /* \"#utility.yul\":9090:9419   */\n    tag_49:\n        /* \"#utility.yul\":9149:9155   */\n      0x00\n        /* \"#utility.yul\":9198:9200   */\n      0x20\n        /* \"#utility.yul\":9186:9195   */\n      dup3\n        /* \"#utility.yul\":9177:9184   */\n      dup5\n        /* \"#utility.yul\":9173:9196   */\n      sub\n        /* \"#utility.yul\":9169:9201   */\n      slt\n        /* \"#utility.yul\":9166:9285   */\n      iszero\n      tag_272\n      jumpi\n        /* \"#utility.yul\":9204:9283   */\n      tag_273\n      tag_109\n      jump\t// in\n    tag_273:\n        /* \"#utility.yul\":9166:9285   */\n    tag_272:\n        /* \"#utility.yul\":9324:9325   */\n      0x00\n        /* \"#utility.yul\":9349:9402   */\n      tag_274\n        /* \"#utility.yul\":9394:9401   */\n      dup5\n        /* \"#utility.yul\":9385:9391   */\n      dup3\n        /* \"#utility.yul\":9374:9383   */\n      dup6\n        /* \"#utility.yul\":9370:9392   */\n      add\n        /* \"#utility.yul\":9349:9402   */\n      tag_139\n      jump\t// in\n    tag_274:\n        /* \"#utility.yul\":9339:9402   */\n      swap2\n      pop\n        /* \"#utility.yul\":9295:9412   */\n      pop\n        /* \"#utility.yul\":9090:9419   */\n      swap3\n      swap2\n      pop\n      pop\n      jump\t// out\n        /* \"#utility.yul\":9425:9605   */\n    tag_140:\n        /* \"#utility.yul\":9473:9550   */\n      0x4e487b7100000000000000000000000000000000000000000000000000000000\n        /* \"#utility.yul\":9470:9471   */\n      0x00\n        /* \"#utility.yul\":9463:9551   */\n      mstore\n        /* \"#utility.yul\":9570:9574   */\n      0x22\n        /* \"#utility.yul\":9567:9568   */\n      0x04\n        /* \"#utility.yul\":9560:9575   */\n      mstore\n        /* \"#utility.yul\":9594:9598   */\n      0x24\n        /* \"#utility.yul\":9591:9592   */\n      0x00\n        /* \"#utility.yul\":9584:9599   */\n      revert\n        /* \"#utility.yul\":9611:9931   */\n    tag_58:\n        /* \"#utility.yul\":9655:9661   */\n      0x00\n        /* \"#utility.yul\":9692:9693   */\n      0x02\n        /* \"#utility.yul\":9686:9690   */\n      dup3\n        /* \"#utility.yul\":9682:9694   */\n      div\n        /* \"#utility.yul\":9672:9694   */\n      swap1\n      pop\n        /* \"#utility.yul\":9739:9740   */\n      0x01\n        /* \"#utility.yul\":9733:9737   */\n      dup3\n        /* \"#utility.yul\":9729:9741   */\n      and\n        /* \"#utility.yul\":9760:9778   */\n      dup1\n        /* \"#utility.yul\":9750:9831   */\n      tag_277\n      jumpi\n        /* \"#utility.yul\":9816:9820   */\n      0x7f\n        /* \"#utility.yul\":9808:9814   */\n      dup3\n        /* \"#utility.yul\":9804:9821   */\n      and\n        /* \"#utility.yul\":9794:9821   */\n      swap2\n      pop\n        /* \"#utility.yul\":9750:9831   */\n    tag_277:\n        /* \"#utility.yul\":9878:9880   */\n      0x20\n        /* \"#utility.yul\":9870:9876   */\n      dup3\n        /* \"#utility.yul\":9867:9881   */\n      lt\n        /* \"#utility.yul\":9847:9865   */\n      dup2\n        /* \"#utility.yul\":9844:9882   */\n      sub\n        /* \"#utility.yul\":9841:9925   */\n      tag_278\n      jumpi\n        /* \"#utility.yul\":9897:9915   */\n      tag_279\n      tag_140\n      jump\t// in\n    tag_279:\n        /* \"#utility.yul\":9841:9925   */\n    tag_278:\n        /* \"#utility.yul\":9662:9931   */\n      pop\n        /* \"#utility.yul\":9611:9931   */\n      swap2\n      swap1\n      pop\n      jump\t// out\n        /* \"#utility.yul\":9937:10103   */\n    tag_141:\n        /* \"#utility.yul\":10077:10095   */\n      0x696e737566666369656e74206665652100000000000000000000000000000000\n        /* \"#utility.yul\":10073:10074   */\n      0x00\n        /* \"#utility.yul\":10065:10071   */\n      dup3\n        /* \"#utility.yul\":10061:10075   */\n      add\n        /* \"#utility.yul\":10054:10096   */\n      mstore\n        /* \"#utility.yul\":9937:10103   */\n      pop\n      jump\t// out\n        /* \"#utility.yul\":10109:10475   */\n    tag_142:\n        /* \"#utility.yul\":10251:10254   */\n      0x00\n        /* \"#utility.yul\":10272:10339   */\n      tag_282\n        /* \"#utility.yul\":10336:10338   */\n      0x10\n        /* \"#utility.yul\":10331:10334   */\n      dup4\n        /* \"#utility.yul\":10272:10339   */\n      tag_119\n      jump\t// in\n    tag_282:\n        /* \"#utility.yul\":10265:10339   */\n      swap2\n      pop\n        /* \"#utility.yul\":10348:10441   */\n      tag_283\n        /* \"#utility.yul\":10437:10440   */\n      dup3\n        /* \"#utility.yul\":10348:10441   */\n      tag_141\n      jump\t// in\n    tag_283:\n        /* \"#utility.yul\":10466:10468   */\n      0x20\n        /* \"#utility.yul\":10461:10464   */\n      dup3\n        /* \"#utility.yul\":10457:10469   */\n      add\n        /* \"#utility.yul\":10450:10469   */\n      swap1\n      pop\n        /* \"#utility.yul\":10109:10475   */\n      swap2\n      swap1\n      pop\n      jump\t// out\n        /* \"#utility.yul\":10481:10900   */\n    tag_72:\n        /* \"#utility.yul\":10647:10651   */\n      0x00\n        /* \"#utility.yul\":10685:10687   */\n      0x20\n        /* \"#utility.yul\":10674:10683   */\n      dup3\n        /* \"#utility.yul\":10670:10688   */\n      add\n        /* \"#utility.yul\":10662:10688   */\n      swap1\n      pop\n        /* \"#utility.yul\":10734:10743   */\n      dup2\n        /* \"#utility.yul\":10728:10732   */\n      dup2\n        /* \"#utility.yul\":10724:10744   */\n      sub\n        /* \"#utility.yul\":10720:10721   */\n      0x00\n        /* \"#utility.yul\":10709:10718   */\n      dup4\n        /* \"#utility.yul\":10705:10722   */\n      add\n        /* \"#utility.yul\":10698:10745   */\n      mstore\n        /* \"#utility.yul\":10762:10893   */\n      tag_285\n        /* \"#utility.yul\":10888:10892   */\n      dup2\n        /* \"#utility.yul\":10762:10893   */\n      tag_142\n      jump\t// in\n    tag_285:\n        /* \"#utility.yul\":10754:10893   */\n      swap1\n      pop\n        /* \"#utility.yul\":10481:10900   */\n      swap2\n      swap1\n      pop\n      jump\t// out\n        /* \"#utility.yul\":10906:11068   */\n    tag_143:\n        /* \"#utility.yul\":11046:11060   */\n      0x64617461206973206e696c210000000000000000000000000000000000000000\n        /* \"#utility.yul\":11042:11043   */\n      0x00\n        /* \"#utility.yul\":11034:11040   */\n      dup3\n        /* \"#utility.yul\":11030:11044   */\n      add\n        /* \"#utility.yul\":11023:11061   */\n      mstore\n        /* \"#utility.yul\":10906:11068   */\n      pop\n      jump\t// out\n        /* \"#utility.yul\":11074:11440   */\n    tag_144:\n        /* \"#utility.yul\":11216:11219   */\n      0x00\n        /* \"#utility.yul\":11237:11304   */\n      tag_288\n        /* \"#utility.yul\":11301:11303   */\n      0x0c\n        /* \"#utility.yul\":11296:11299   */\n      dup4\n        /* \"#utility.yul\":11237:11304   */\n      tag_119\n      jump\t// in\n    tag_288:\n        /* \"#utility.yul\":11230:11304   */\n      swap2\n      pop\n        /* \"#utility.yul\":11313:11406   */\n      tag_289\n        /* \"#utility.yul\":11402:11405   */\n      dup3\n        /* \"#utility.yul\":11313:11406   */\n      tag_143\n      jump\t// in\n    tag_289:\n        /* \"#utility.yul\":11431:11433   */\n      0x20\n        /* \"#utility.yul\":11426:11429   */\n      dup3\n        /* \"#utility.yul\":11422:11434   */\n      add\n        /* \"#utility.yul\":11415:11434   */\n      swap1\n      pop\n        /* \"#utility.yul\":11074:11440   */\n      swap2\n      swap1\n      pop\n      jump\t// out\n        /* \"#utility.yul\":11446:11865   */\n    tag_75:\n        /* \"#utility.yul\":11612:11616   */\n      0x00\n        /* \"#utility.yul\":11650:11652   */\n      0x20\n        /* \"#utility.yul\":11639:11648   */\n      dup3\n        /* \"#utility.yul\":11635:11653   */\n      add\n        /* \"#utility.yul\":11627:11653   */\n      swap1\n      pop\n        /* \"#utility.yul\":11699:11708   */\n      dup2\n        /* \"#utility.yul\":11693:11697   */\n      dup2\n        /* \"#utility.yul\":11689:11709   */\n      sub\n        /* \"#utility.yul\":11685:11686   */\n      0x00\n        /* \"#utility.yul\":11674:11683   */\n      dup4\n        /* \"#utility.yul\":11670:11687   */\n      add\n        /* \"#utility.yul\":11663:11710   */\n      mstore\n        /* \"#utility.yul\":11727:11858   */\n      tag_291\n        /* \"#utility.yul\":11853:11857   */\n      dup2\n        /* \"#utility.yul\":11727:11858   */\n      tag_144\n      jump\t// in\n    tag_291:\n        /* \"#utility.yul\":11719:11858   */\n      swap1\n      pop\n        /* \"#utility.yul\":11446:11865   */\n      swap2\n      swap1\n      pop\n      jump\t// out\n        /* \"#utility.yul\":11871:12011   */\n    tag_145:\n        /* \"#utility.yul\":11919:11923   */\n      0x00\n        /* \"#utility.yul\":11942:11945   */\n      dup2\n        /* \"#utility.yul\":11934:11945   */\n      swap1\n      pop\n        /* \"#utility.yul\":11965:11968   */\n      dup2\n        /* \"#utility.yul\":11962:11963   */\n      0x00\n        /* \"#utility.yul\":11955:11969   */\n      mstore\n        /* \"#utility.yul\":11999:12003   */\n      0x20\n        /* \"#utility.yul\":11996:11997   */\n      0x00\n        /* \"#utility.yul\":11986:12004   */\n      keccak256\n        /* \"#utility.yul\":11978:12004   */\n      swap1\n      pop\n        /* \"#utility.yul\":11871:12011   */\n      swap2\n      swap1\n      pop\n      jump\t// out\n        /* \"#utility.yul\":12017:12110   */\n    tag_146:\n        /* \"#utility.yul\":12054:12060   */\n      0x00\n        /* \"#utility.yul\":12101:12103   */\n      0x20\n        /* \"#utility.yul\":12096:12098   */\n      0x1f\n        /* \"#utility.yul\":12089:12094   */\n      dup4\n        /* \"#utility.yul\":12085:12099   */\n      add\n        /* \"#utility.yul\":12081:12104   */\n      div\n        /* \"#utility.yul\":12071:12104   */\n      swap1\n      pop\n        /* \"#utility.yul\":12017:12110   */\n      swap2\n      swap1\n      pop\n      jump\t// out\n        /* \"#utility.yul\":12116:12223   */\n    tag_147:\n        /* \"#utility.yul\":12160:12168   */\n      0x00\n        /* \"#utility.yul\":12210:12215   */\n      dup3\n        /* \"#utility.yul\":12204:12208   */\n      dup3\n        /* \"#utility.yul\":12200:12216   */\n      shl\n        /* \"#utility.yul\":12179:12216   */\n      swap1\n      pop\n        /* \"#utility.yul\":12116:12223   */\n      swap3\n      swap2\n      pop\n      pop\n      jump\t// out\n        /* \"#utility.yul\":12229:12622   */\n    tag_148:\n        /* \"#utility.yul\":12298:12304   */\n      0x00\n        /* \"#utility.yul\":12348:12349   */\n      0x08\n        /* \"#utility.yul\":12336:12346   */\n      dup4\n        /* \"#utility.yul\":12332:12350   */\n      mul\n        /* \"#utility.yul\":12371:12468   */\n      tag_296\n        /* \"#utility.yul\":12401:12467   */\n      0xffffffffffffffffffffffffffffffffffffffffffffffffffffffffffffffff\n        /* \"#utility.yul\":12390:12399   */\n      dup3\n        /* \"#utility.yul\":12371:12468   */\n      tag_147\n      jump\t// in\n    tag_296:\n        /* \"#utility.yul\":12489:12528   */\n      tag_297\n        /* \"#utility.yul\":12519:12527   */\n      dup7\n        /* \"#utility.yul\":12508:12517   */\n      dup4\n        /* \"#utility.yul\":12489:12528   */\n      tag_147\n      jump\t// in\n    tag_297:\n        /* \"#utility.yul\":12477:12528   */\n      swap6\n      pop\n        /* \"#utility.yul\":12561:12565   */\n      dup1\n        /* \"#utility.yul\":12557:12566   */\n      not\n        /* \"#utility.yul\":12550:12555   */\n      dup5\n        /* \"#utility.yul\":12546:12567   */\n      and\n        /* \"#utility.yul\":12537:12567   */\n      swap4\n      pop\n        /* \"#utility.yul\":12610:12614   */\n      dup1\n        /* \"#utility.yul\":12600:12608   */\n      dup7\n        /* \"#utility.yul\":12596:12615   */\n      and\n        /* \"#utility.yul\":12589:12594   */\n      dup5\n        /* \"#utility.yul\":12586:12616   */\n      or\n        /* \"#utility.yul\":12576:12616   */\n      swap3\n      pop\n        /* \"#utility.yul\":12305:12622   */\n      pop\n      pop\n        /* \"#utility.yul\":12229:12622   */\n      swap4\n      swap3\n      pop\n      pop\n      pop\n      jump\t// out\n        /* \"#utility.yul\":12628:12688   */\n    tag_149:\n        /* \"#utility.yul\":12656:12659   */\n      0x00\n        /* \"#utility.yul\":12677:12682   */\n      dup2\n        /* \"#utility.yul\":12670:12682   */\n      swap1\n      pop\n        /* \"#utility.yul\":12628:12688   */\n      swap2\n      swap1\n      pop\n      jump\t// out\n        /* \"#utility.yul\":12694:12836   */\n    tag_150:\n        /* \"#utility.yul\":12744:12753   */\n      0x00\n        /* \"#utility.yul\":12777:12830   */\n      tag_300\n        /* \"#utility.yul\":12795:12829   */\n      tag_301\n        /* \"#utility.yul\":12804:12828   */\n      tag_302\n        /* \"#utility.yul\":12822:12827   */\n      dup5\n        /* \"#utility.yul\":12804:12828   */\n      tag_106\n      jump\t// in\n    tag_302:\n        /* \"#utility.yul\":12795:12829   */\n      tag_149\n      jump\t// in\n    tag_301:\n        /* \"#utility.yul\":12777:12830   */\n      tag_106\n      jump\t// in\n    tag_300:\n        /* \"#utility.yul\":12764:12830   */\n      swap1\n      pop\n        /* \"#utility.yul\":12694:12836   */\n      swap2\n      swap1\n      pop\n      jump\t// out\n        /* \"#utility.yul\":12842:12917   */\n    tag_151:\n        /* \"#utility.yul\":12885:12888   */\n      0x00\n        /* \"#utility.yul\":12906:12911   */\n      dup2\n        /* \"#utility.yul\":12899:12911   */\n      swap1\n      pop\n        /* \"#utility.yul\":12842:12917   */\n      swap2\n      swap1\n      pop\n      jump\t// out\n        /* \"#utility.yul\":12923:13192   */\n    tag_152:\n        /* \"#utility.yul\":13033:13072   */\n      tag_305\n        /* \"#utility.yul\":13064:13071   */\n      dup4\n        /* \"#utility.yul\":13033:13072   */\n      tag_150\n      jump\t// in\n    tag_305:\n        /* \"#utility.yul\":13094:13185   */\n      tag_306\n        /* \"#utility.yul\":13143:13184   */\n      tag_307\n        /* \"#utility.yul\":13167:13183   */\n      dup3\n        /* \"#utility.yul\":13143:13184   */\n      tag_151\n      jump\t// in\n    tag_307:\n        /* \"#utility.yul\":13135:13141   */\n      dup5\n        /* \"#utility.yul\":13128:13132   */\n      dup5\n        /* \"#utility.yul\":13122:13133   */\n      sload\n        /* \"#utility.yul\":13094:13185   */\n      tag_148\n      jump\t// in\n    tag_306:\n        /* \"#utility.yul\":13088:13092   */\n      dup3\n        /* \"#utility.yul\":13081:13186   */\n      sstore\n        /* \"#utility.yul\":12999:13192   */\n      pop\n        /* \"#utility.yul\":12923:13192   */\n      pop\n      pop\n      pop\n      jump\t// out\n        /* \"#utility.yul\":13198:13271   */\n    tag_153:\n        /* \"#utility.yul\":13243:13246   */\n      0x00\n        /* \"#utility.yul\":13198:13271   */\n      swap1\n      jump\t// out\n        /* \"#utility.yul\":13277:13466   */\n    tag_154:\n        /* \"#utility.yul\":13354:13386   */\n      tag_310\n      tag_153\n      jump\t// in\n    tag_310:\n        /* \"#utility.yul\":13395:13460   */\n      tag_311\n        /* \"#utility.yul\":13453:13459   */\n      dup2\n        /* \"#utility.yul\":13445:13451   */\n      dup5\n        /* \"#utility.yul\":13439:13443   */\n      dup5\n        /* \"#utility.yul\":13395:13460   */\n      tag_152\n      jump\t// in\n    tag_311:\n        /* \"#utility.yul\":13330:13466   */\n      pop\n        /* \"#utility.yul\":13277:13466   */\n      pop\n      pop\n      jump\t// out\n        /* \"#utility.yul\":13472:13658   */\n    tag_155:\n        /* \"#utility.yul\":13532:13652   */\n    tag_313:\n        /* \"#utility.yul\":13549:13552   */\n      dup2\n        /* \"#utility.yul\":13542:13547   */\n      dup2\n        /* \"#utility.yul\":13539:13553   */\n      lt\n        /* \"#utility.yul\":13532:13652   */\n      iszero\n      tag_315\n      jumpi\n        /* \"#utility.yul\":13603:13642   */\n      tag_316\n        /* \"#utility.yul\":13640:13641   */\n      0x00\n        /* \"#utility.yul\":13633:13638   */\n      dup3\n        /* \"#utility.yul\":13603:13642   */\n      tag_154\n      jump\t// in\n    tag_316:\n        /* \"#utility.yul\":13576:13577   */\n      0x01\n        /* \"#utility.yul\":13569:13574   */\n      dup2\n        /* \"#utility.yul\":13565:13578   */\n      add\n        /* \"#utility.yul\":13556:13578   */\n      swap1\n      pop\n        /* \"#utility.yul\":13532:13652   */\n      jump(tag_313)\n    tag_315:\n        /* \"#utility.yul\":13472:13658   */\n      pop\n      pop\n      jump\t// out\n        /* \"#utility.yul\":13664:14205   */\n    tag_156:\n        /* \"#utility.yul\":13764:13766   */\n      0x1f\n        /* \"#utility.yul\":13759:13762   */\n      dup3\n        /* \"#utility.yul\":13756:13767   */\n      gt\n        /* \"#utility.yul\":13753:14198   */\n      iszero\n      tag_318\n      jumpi\n        /* \"#utility.yul\":13798:13835   */\n      tag_319\n        /* \"#utility.yul\":13829:13834   */\n      dup2\n        /* \"#utility.yul\":13798:13835   */\n      tag_145\n      jump\t// in\n    tag_319:\n        /* \"#utility.yul\":13881:13910   */\n      tag_320\n        /* \"#utility.yul\":13899:13909   */\n      dup5\n        /* \"#utility.yul\":13881:13910   */\n      tag_146\n      jump\t// in\n    tag_320:\n        /* \"#utility.yul\":13871:13879   */\n      dup2\n        /* \"#utility.yul\":13867:13911   */\n      add\n        /* \"#utility.yul\":14064:14066   */\n      0x20\n        /* \"#utility.yul\":14052:14062   */\n      dup6\n        /* \"#utility.yul\":14049:14067   */\n      lt\n        /* \"#utility.yul\":14046:14095   */\n      iszero\n      tag_321\n      jumpi\n        /* \"#utility.yul\":14085:14093   */\n      dup2\n        /* \"#utility.yul\":14070:14093   */\n      swap1\n      pop\n        /* \"#utility.yul\":14046:14095   */\n    tag_321:\n        /* \"#utility.yul\":14108:14188   */\n      tag_322\n        /* \"#utility.yul\":14164:14186   */\n      tag_323\n        /* \"#utility.yul\":14182:14185   */\n      dup6\n        /* \"#utility.yul\":14164:14186   */\n      tag_146\n      jump\t// in\n    tag_323:\n        /* \"#utility.yul\":14154:14162   */\n      dup4\n        /* \"#utility.yul\":14150:14187   */\n      add\n        /* \"#utility.yul\":14137:14148   */\n      dup3\n        /* \"#utility.yul\":14108:14188   */\n      tag_155\n      jump\t// in\n    tag_322:\n        /* \"#utility.yul\":13768:14198   */\n      pop\n      pop\n        /* \"#utility.yul\":13753:14198   */\n    tag_318:\n        /* \"#utility.yul\":13664:14205   */\n      pop\n      pop\n      pop\n      jump\t// out\n        /* \"#utility.yul\":14211:14328   */\n    tag_157:\n        /* \"#utility.yul\":14265:14273   */\n      0x00\n        /* \"#utility.yul\":14315:14320   */\n      dup3\n        /* \"#utility.yul\":14309:14313   */\n      dup3\n        /* \"#utility.yul\":14305:14321   */\n      shr\n        /* \"#utility.yul\":14284:14321   */\n      swap1\n      pop\n        /* \"#utility.yul\":14211:14328   */\n      swap3\n      swap2\n      pop\n      pop\n      jump\t// out\n        /* \"#utility.yul\":14334:14503   */\n    tag_158:\n        /* \"#utility.yul\":14378:14384   */\n      0x00\n        /* \"#utility.yul\":14411:14462   */\n      tag_326\n        /* \"#utility.yul\":14459:14460   */\n      0x00\n        /* \"#utility.yul\":14455:14461   */\n      not\n        /* \"#utility.yul\":14447:14452   */\n      dup5\n        /* \"#utility.yul\":14444:14445   */\n      0x08\n        /* \"#utility.yul\":14440:14453   */\n      mul\n        /* \"#utility.yul\":14411:14462   */\n      tag_157\n      jump\t// in\n    tag_326:\n        /* \"#utility.yul\":14407:14463   */\n      not\n        /* \"#utility.yul\":14492:14496   */\n      dup1\n        /* \"#utility.yul\":14486:14490   */\n      dup4\n        /* \"#utility.yul\":14482:14497   */\n      and\n        /* \"#utility.yul\":14472:14497   */\n      swap2\n      pop\n        /* \"#utility.yul\":14385:14503   */\n      pop\n        /* \"#utility.yul\":14334:14503   */\n      swap3\n      swap2\n      pop\n      pop\n      jump\t// out\n        /* \"#utility.yul\":14508:14803   */\n    tag_159:\n        /* \"#utility.yul\":14584:14588   */\n      0x00\n        /* \"#utility.yul\":14730:14759   */\n      tag_328\n        /* \"#utility.yul\":14755:14758   */\n      dup4\n        /* \"#utility.yul\":14749:14753   */\n      dup4\n        /* \"#utility.yul\":14730:14759   */\n      tag_158\n      jump\t// in\n    tag_328:\n        /* \"#utility.yul\":14722:14759   */\n      swap2\n      pop\n        /* \"#utility.yul\":14792:14795   */\n      dup3\n        /* \"#utility.yul\":14789:14790   */\n      0x02\n        /* \"#utility.yul\":14785:14796   */\n      mul\n        /* \"#utility.yul\":14779:14783   */\n      dup3\n        /* \"#utility.yul\":14776:14797   */\n      or\n        /* \"#utility.yul\":14768:14797   */\n      swap1\n      pop\n        /* \"#utility.yul\":14508:14803   */\n      swap3\n      swap2\n      pop\n      pop\n      jump\t// out\n        /* \"#utility.yul\":14808:16198   */\n    tag_77:\n        /* \"#utility.yul\":14923:14959   */\n      tag_330\n        /* \"#utility.yul\":14955:14958   */\n      dup3\n        /* \"#utility.yul\":14923:14959   */\n      tag_113\n      jump\t// in\n    tag_330:\n        /* \"#utility.yul\":15024:15042   */\n      0xffffffffffffffff\n        /* \"#utility.yul\":15016:15022   */\n      dup2\n        /* \"#utility.yul\":15013:15043   */\n      gt\n        /* \"#utility.yul\":15010:15066   */\n      iszero\n      tag_331\n      jumpi\n        /* \"#utility.yul\":15046:15064   */\n      tag_332\n      tag_131\n      jump\t// in\n    tag_332:\n        /* \"#utility.yul\":15010:15066   */\n    tag_331:\n        /* \"#utility.yul\":15090:15128   */\n      tag_333\n        /* \"#utility.yul\":15122:15126   */\n      dup3\n        /* \"#utility.yul\":15116:15127   */\n      sload\n        /* \"#utility.yul\":15090:15128   */\n      tag_58\n      jump\t// in\n    tag_333:\n        /* \"#utility.yul\":15175:15241   */\n      tag_334\n        /* \"#utility.yul\":15234:15240   */\n      dup3\n        /* \"#utility.yul\":15226:15232   */\n      dup3\n        /* \"#utility.yul\":15220:15224   */\n      dup6\n        /* \"#utility.yul\":15175:15241   */\n      tag_156\n      jump\t// in\n    tag_334:\n        /* \"#utility.yul\":15268:15269   */\n      0x00\n        /* \"#utility.yul\":15292:15296   */\n      0x20\n        /* \"#utility.yul\":15279:15296   */\n      swap1\n      pop\n        /* \"#utility.yul\":15324:15326   */\n      0x1f\n        /* \"#utility.yul\":15316:15322   */\n      dup4\n        /* \"#utility.yul\":15313:15327   */\n      gt\n        /* \"#utility.yul\":15341:15342   */\n      0x01\n        /* \"#utility.yul\":15336:15953   */\n      dup2\n      eq\n      tag_336\n      jumpi\n        /* \"#utility.yul\":15997:15998   */\n      0x00\n        /* \"#utility.yul\":16014:16020   */\n      dup5\n        /* \"#utility.yul\":16011:16088   */\n      iszero\n      tag_337\n      jumpi\n        /* \"#utility.yul\":16063:16072   */\n      dup3\n        /* \"#utility.yul\":16058:16061   */\n      dup8\n        /* \"#utility.yul\":16054:16073   */\n      add\n        /* \"#utility.yul\":16048:16074   */\n      mload\n        /* \"#utility.yul\":16039:16074   */\n      swap1\n      pop\n        /* \"#utility.yul\":16011:16088   */\n    tag_337:\n        /* \"#utility.yul\":16114:16181   */\n      tag_338\n        /* \"#utility.yul\":16174:16180   */\n      dup6\n        /* \"#utility.yul\":16167:16172   */\n      dup3\n        /* \"#utility.yul\":16114:16181   */\n      tag_159\n      jump\t// in\n    tag_338:\n        /* \"#utility.yul\":16108:16112   */\n      dup7\n        /* \"#utility.yul\":16101:16182   */\n      sstore\n        /* \"#utility.yul\":15970:16192   */\n      pop\n        /* \"#utility.yul\":15306:16192   */\n      jump(tag_335)\n        /* \"#utility.yul\":15336:15953   */\n    tag_336:\n        /* \"#utility.yul\":15388:15392   */\n      0x1f\n        /* \"#utility.yul\":15384:15393   */\n      not\n        /* \"#utility.yul\":15376:15382   */\n      dup5\n        /* \"#utility.yul\":15372:15394   */\n      and\n        /* \"#utility.yul\":15422:15458   */\n      tag_339\n        /* \"#utility.yul\":15453:15457   */\n      dup7\n        /* \"#utility.yul\":15422:15458   */\n      tag_145\n      jump\t// in\n    tag_339:\n        /* \"#utility.yul\":15480:15481   */\n      0x00\n        /* \"#utility.yul\":15494:15702   */\n    tag_340:\n        /* \"#utility.yul\":15508:15515   */\n      dup3\n        /* \"#utility.yul\":15505:15506   */\n      dup2\n        /* \"#utility.yul\":15502:15516   */\n      lt\n        /* \"#utility.yul\":15494:15702   */\n      iszero\n      tag_342\n      jumpi\n        /* \"#utility.yul\":15587:15596   */\n      dup5\n        /* \"#utility.yul\":15582:15585   */\n      dup10\n        /* \"#utility.yul\":15578:15597   */\n      add\n        /* \"#utility.yul\":15572:15598   */\n      mload\n        /* \"#utility.yul\":15564:15570   */\n      dup3\n        /* \"#utility.yul\":15557:15599   */\n      sstore\n        /* \"#utility.yul\":15638:15639   */\n      0x01\n        /* \"#utility.yul\":15630:15636   */\n      dup3\n        /* \"#utility.yul\":15626:15640   */\n      add\n        /* \"#utility.yul\":15616:15640   */\n      swap2\n      pop\n        /* \"#utility.yul\":15685:15687   */\n      0x20\n        /* \"#utility.yul\":15674:15683   */\n      dup6\n        /* \"#utility.yul\":15670:15688   */\n      add\n        /* \"#utility.yul\":15657:15688   */\n      swap5\n      pop\n        /* \"#utility.yul\":15531:15535   */\n      0x20\n        /* \"#utility.yul\":15528:15529   */\n      dup2\n        /* \"#utility.yul\":15524:15536   */\n      add\n        /* \"#utility.yul\":15519:15536   */\n      swap1\n      pop\n        /* \"#utility.yul\":15494:15702   */\n      jump(tag_340)\n    tag_342:\n        /* \"#utility.yul\":15730:15736   */\n      dup7\n        /* \"#utility.yul\":15721:15728   */\n      dup4\n        /* \"#utility.yul\":15718:15737   */\n      lt\n        /* \"#utility.yul\":15715:15894   */\n      iszero\n      tag_343\n      jumpi\n        /* \"#utility.yul\":15788:15797   */\n      dup5\n        /* \"#utility.yul\":15783:15786   */\n      dup10\n        /* \"#utility.yul\":15779:15798   */\n      add\n        /* \"#utility.yul\":15773:15799   */\n      mload\n        /* \"#utility.yul\":15831:15879   */\n      tag_344\n        /* \"#utility.yul\":15873:15877   */\n      0x1f\n        /* \"#utility.yul\":15865:15871   */\n      dup10\n        /* \"#utility.yul\":15861:15878   */\n      and\n        /* \"#utility.yul\":15850:15859   */\n      dup3\n        /* \"#utility.yul\":15831:15879   */\n      tag_158\n      jump\t// in\n    tag_344:\n        /* \"#utility.yul\":15823:15829   */\n      dup4\n        /* \"#utility.yul\":15816:15880   */\n      sstore\n        /* \"#utility.yul\":15738:15894   */\n      pop\n        /* \"#utility.yul\":15715:15894   */\n    tag_343:\n        /* \"#utility.yul\":15940:15941   */\n      0x01\n        /* \"#utility.yul\":15936:15937   */\n      0x02\n        /* \"#utility.yul\":15928:15934   */\n      dup9\n        /* \"#utility.yul\":15924:15938   */\n      mul\n        /* \"#utility.yul\":15920:15942   */\n      add\n        /* \"#utility.yul\":15914:15918   */\n      dup9\n        /* \"#utility.yul\":15907:15943   */\n      sstore\n        /* \"#utility.yul\":15343:15953   */\n      pop\n      pop\n      pop\n        /* \"#utility.yul\":15306:16192   */\n    tag_335:\n      pop\n        /* \"#utility.yul\":14898:16198   */\n      pop\n      pop\n      pop\n        /* \"#utility.yul\":14808:16198   */\n      pop\n      pop\n      jump\t// out\n        /* \"#utility.yul\":16204:16345   */\n    tag_160:\n        /* \"#utility.yul\":16253:16257   */\n      0x00\n        /* \"#utility.yul\":16276:16279   */\n      dup2\n        /* \"#utility.yul\":16268:16279   */\n      swap1\n      pop\n        /* \"#utility.yul\":16299:16302   */\n      dup2\n        /* \"#utility.yul\":16296:16297   */\n      0x00\n        /* \"#utility.yul\":16289:16303   */\n      mstore\n        /* \"#utility.yul\":16333:16337   */\n      0x20\n        /* \"#utility.yul\":16330:16331   */\n      0x00\n        /* \"#utility.yul\":16320:16338   */\n      keccak256\n        /* \"#utility.yul\":16312:16338   */\n      swap1\n      pop\n        /* \"#utility.yul\":16204:16345   */\n      swap2\n      swap1\n      pop\n      jump\t// out\n        /* \"#utility.yul\":16351:16894   */\n    tag_161:\n        /* \"#utility.yul\":16452:16454   */\n      0x1f\n        /* \"#utility.yul\":16447:16450   */\n      dup3\n        /* \"#utility.yul\":16444:16455   */\n      gt\n        /* \"#utility.yul\":16441:16887   */\n      iszero\n      tag_347\n      jumpi\n        /* \"#utility.yul\":16486:16524   */\n      tag_348\n        /* \"#utility.yul\":16518:16523   */\n      dup2\n        /* \"#utility.yul\":16486:16524   */\n      tag_160\n      jump\t// in\n    tag_348:\n        /* \"#utility.yul\":16570:16599   */\n      tag_349\n        /* \"#utility.yul\":16588:16598   */\n      dup5\n        /* \"#utility.yul\":16570:16599   */\n      tag_146\n      jump\t// in\n    tag_349:\n        /* \"#utility.yul\":16560:16568   */\n      dup2\n        /* \"#utility.yul\":16556:16600   */\n      add\n        /* \"#utility.yul\":16753:16755   */\n      0x20\n        /* \"#utility.yul\":16741:16751   */\n      dup6\n        /* \"#utility.yul\":16738:16756   */\n      lt\n        /* \"#utility.yul\":16735:16784   */\n      iszero\n      tag_350\n      jumpi\n        /* \"#utility.yul\":16774:16782   */\n      dup2\n        /* \"#utility.yul\":16759:16782   */\n      swap1\n      pop\n        /* \"#utility.yul\":16735:16784   */\n    tag_350:\n        /* \"#utility.yul\":16797:16877   */\n      tag_351\n        /* \"#utility.yul\":16853:16875   */\n      tag_352\n        /* \"#utility.yul\":16871:16874   */\n      dup6\n        /* \"#utility.yul\":16853:16875   */\n      tag_146\n      jump\t// in\n    tag_352:\n        /* \"#utility.yul\":16843:16851   */\n      dup4\n        /* \"#utility.yul\":16839:16876   */\n      add\n        /* \"#utility.yul\":16826:16837   */\n      dup3\n        /* \"#utility.yul\":16797:16877   */\n      tag_155\n      jump\t// in\n    tag_351:\n        /* \"#utility.yul\":16456:16887   */\n      pop\n      pop\n        /* \"#utility.yul\":16441:16887   */\n    tag_347:\n        /* \"#utility.yul\":16351:16894   */\n      pop\n      pop\n      pop\n      jump\t// out\n        /* \"#utility.yul\":16900:18295   */\n    tag_79:\n        /* \"#utility.yul\":17017:17054   */\n      tag_354\n        /* \"#utility.yul\":17050:17053   */\n      dup3\n        /* \"#utility.yul\":17017:17054   */\n      tag_118\n      jump\t// in\n    tag_354:\n        /* \"#utility.yul\":17119:17137   */\n      0xffffffffffffffff\n        /* \"#utility.yul\":17111:17117   */\n      dup2\n        /* \"#utility.yul\":17108:17138   */\n      gt\n        /* \"#utility.yul\":17105:17161   */\n      iszero\n      tag_355\n      jumpi\n        /* \"#utility.yul\":17141:17159   */\n      tag_356\n      tag_131\n      jump\t// in\n    tag_356:\n        /* \"#utility.yul\":17105:17161   */\n    tag_355:\n        /* \"#utility.yul\":17185:17223   */\n      tag_357\n        /* \"#utility.yul\":17217:17221   */\n      dup3\n        /* \"#utility.yul\":17211:17222   */\n      sload\n        /* \"#utility.yul\":17185:17223   */\n      tag_58\n      jump\t// in\n    tag_357:\n        /* \"#utility.yul\":17270:17337   */\n      tag_358\n        /* \"#utility.yul\":17330:17336   */\n      dup3\n        /* \"#utility.yul\":17322:17328   */\n      dup3\n        /* \"#utility.yul\":17316:17320   */\n      dup6\n        /* \"#utility.yul\":17270:17337   */\n      tag_161\n      jump\t// in\n    tag_358:\n        /* \"#utility.yul\":17364:17365   */\n      0x00\n        /* \"#utility.yul\":17388:17392   */\n      0x20\n        /* \"#utility.yul\":17375:17392   */\n      swap1\n      pop\n        /* \"#utility.yul\":17420:17422   */\n      0x1f\n        /* \"#utility.yul\":17412:17418   */\n      dup4\n        /* \"#utility.yul\":17409:17423   */\n      gt\n        /* \"#utility.yul\":17437:17438   */\n      0x01\n        /* \"#utility.yul\":17432:18050   */\n      dup2\n      eq\n      tag_360\n      jumpi\n        /* \"#utility.yul\":18094:18095   */\n      0x00\n        /* \"#utility.yul\":18111:18117   */\n      dup5\n        /* \"#utility.yul\":18108:18185   */\n      iszero\n      tag_361\n      jumpi\n        /* \"#utility.yul\":18160:18169   */\n      dup3\n        /* \"#utility.yul\":18155:18158   */\n      dup8\n        /* \"#utility.yul\":18151:18170   */\n      add\n        /* \"#utility.yul\":18145:18171   */\n      mload\n        /* \"#utility.yul\":18136:18171   */\n      swap1\n      pop\n        /* \"#utility.yul\":18108:18185   */\n    tag_361:\n        /* \"#utility.yul\":18211:18278   */\n      tag_362\n        /* \"#utility.yul\":18271:18277   */\n      dup6\n        /* \"#utility.yul\":18264:18269   */\n      dup3\n        /* \"#utility.yul\":18211:18278   */\n      tag_159\n      jump\t// in\n    tag_362:\n        /* \"#utility.yul\":18205:18209   */\n      dup7\n        /* \"#utility.yul\":18198:18279   */\n      sstore\n        /* \"#utility.yul\":18067:18289   */\n      pop\n        /* \"#utility.yul\":17402:18289   */\n      jump(tag_359)\n        /* \"#utility.yul\":17432:18050   */\n    tag_360:\n        /* \"#utility.yul\":17484:17488   */\n      0x1f\n        /* \"#utility.yul\":17480:17489   */\n      not\n        /* \"#utility.yul\":17472:17478   */\n      dup5\n        /* \"#utility.yul\":17468:17490   */\n      and\n        /* \"#utility.yul\":17518:17555   */\n      tag_363\n        /* \"#utility.yul\":17550:17554   */\n      dup7\n        /* \"#utility.yul\":17518:17555   */\n      tag_160\n      jump\t// in\n    tag_363:\n        /* \"#utility.yul\":17577:17578   */\n      0x00\n        /* \"#utility.yul\":17591:17799   */\n    tag_364:\n        /* \"#utility.yul\":17605:17612   */\n      dup3\n        /* \"#utility.yul\":17602:17603   */\n      dup2\n        /* \"#utility.yul\":17599:17613   */\n      lt\n        /* \"#utility.yul\":17591:17799   */\n      iszero\n      tag_366\n      jumpi\n        /* \"#utility.yul\":17684:17693   */\n      dup5\n        /* \"#utility.yul\":17679:17682   */\n      dup10\n        /* \"#utility.yul\":17675:17694   */\n      add\n        /* \"#utility.yul\":17669:17695   */\n      mload\n        /* \"#utility.yul\":17661:17667   */\n      dup3\n        /* \"#utility.yul\":17654:17696   */\n      sstore\n        /* \"#utility.yul\":17735:17736   */\n      0x01\n        /* \"#utility.yul\":17727:17733   */\n      dup3\n        /* \"#utility.yul\":17723:17737   */\n      add\n        /* \"#utility.yul\":17713:17737   */\n      swap2\n      pop\n        /* \"#utility.yul\":17782:17784   */\n      0x20\n        /* \"#utility.yul\":17771:17780   */\n      dup6\n        /* \"#utility.yul\":17767:17785   */\n      add\n        /* \"#utility.yul\":17754:17785   */\n      swap5\n      pop\n        /* \"#utility.yul\":17628:17632   */\n      0x20\n        /* \"#utility.yul\":17625:17626   */\n      dup2\n        /* \"#utility.yul\":17621:17633   */\n      add\n        /* \"#utility.yul\":17616:17633   */\n      swap1\n      pop\n        /* \"#utility.yul\":17591:17799   */\n      jump(tag_364)\n    tag_366:\n        /* \"#utility.yul\":17827:17833   */\n      dup7\n        /* \"#utility.yul\":17818:17825   */\n      dup4\n        /* \"#utility.yul\":17815:17834   */\n      lt\n        /* \"#utility.yul\":17812:17991   */\n      iszero\n      tag_367\n      jumpi\n        /* \"#utility.yul\":17885:17894   */\n      dup5\n        /* \"#utility.yul\":17880:17883   */\n      dup10\n        /* \"#utility.yul\":17876:17895   */\n      add\n        /* \"#utility.yul\":17870:17896   */\n      mload\n        /* \"#utility.yul\":17928:17976   */\n      tag_368\n        /* \"#utility.yul\":17970:17974   */\n      0x1f\n        /* \"#utility.yul\":17962:17968   */\n      dup10\n        /* \"#utility.yul\":17958:17975   */\n      and\n        /* \"#utility.yul\":17947:17956   */\n      dup3\n        /* \"#utility.yul\":17928:17976   */\n      tag_158\n      jump\t// in\n    tag_368:\n        /* \"#utility.yul\":17920:17926   */\n      dup4\n        /* \"#utility.yul\":17913:17977   */\n      sstore\n        /* \"#utility.yul\":17835:17991   */\n      pop\n        /* \"#utility.yul\":17812:17991   */\n    tag_367:\n        /* \"#utility.yul\":18037:18038   */\n      0x01\n        /* \"#utility.yul\":18033:18034   */\n      0x02\n        /* \"#utility.yul\":18025:18031   */\n      dup9\n        /* \"#utility.yul\":18021:18035   */\n      mul\n        /* \"#utility.yul\":18017:18039   */\n      add\n        /* \"#utility.yul\":18011:18015   */\n      dup9\n        /* \"#utility.yul\":18004:18040   */\n      sstore\n        /* \"#utility.yul\":17439:18050   */\n      pop\n      pop\n      pop\n        /* \"#utility.yul\":17402:18289   */\n    tag_359:\n      pop\n        /* \"#utility.yul\":16992:18295   */\n      pop\n      pop\n      pop\n        /* \"#utility.yul\":16900:18295   */\n      pop\n      pop\n      jump\t// out\n        /* \"#utility.yul\":18323:18637   */\n    tag_162:\n        /* \"#utility.yul\":18419:18422   */\n      0x00\n        /* \"#utility.yul\":18440:18510   */\n      tag_370\n        /* \"#utility.yul\":18503:18509   */\n      dup4\n        /* \"#utility.yul\":18498:18501   */\n      dup6\n        /* \"#utility.yul\":18440:18510   */\n      tag_114\n      jump\t// in\n    tag_370:\n        /* \"#utility.yul\":18433:18510   */\n      swap4\n      pop\n        /* \"#utility.yul\":18520:18576   */\n      tag_371\n        /* \"#utility.yul\":18569:18575   */\n      dup4\n        /* \"#utility.yul\":18564:18567   */\n      dup6\n        /* \"#utility.yul\":18557:18562   */\n      dup5\n        /* \"#utility.yul\":18520:18576   */\n      tag_135\n      jump\t// in\n    tag_371:\n        /* \"#utility.yul\":18601:18630   */\n      tag_372\n        /* \"#utility.yul\":18623:18629   */\n      dup4\n        /* \"#utility.yul\":18601:18630   */\n      tag_116\n      jump\t// in\n    tag_372:\n        /* \"#utility.yul\":18596:18599   */\n      dup5\n        /* \"#utility.yul\":18592:18631   */\n      add\n        /* \"#utility.yul\":18585:18631   */\n      swap1\n      pop\n        /* \"#utility.yul\":18323:18637   */\n      swap4\n      swap3\n      pop\n      pop\n      pop\n      jump\t// out\n        /* \"#utility.yul\":18643:19303   */\n    tag_81:\n        /* \"#utility.yul\":18848:18852   */\n      0x00\n        /* \"#utility.yul\":18886:18889   */\n      0x80\n        /* \"#utility.yul\":18875:18884   */\n      dup3\n        /* \"#utility.yul\":18871:18890   */\n      add\n        /* \"#utility.yul\":18863:18890   */\n      swap1\n      pop\n        /* \"#utility.yul\":18900:18971   */\n      tag_374\n        /* \"#utility.yul\":18968:18969   */\n      0x00\n        /* \"#utility.yul\":18957:18966   */\n      dup4\n        /* \"#utility.yul\":18953:18970   */\n      add\n        /* \"#utility.yul\":18944:18950   */\n      dup9\n        /* \"#utility.yul\":18900:18971   */\n      tag_107\n      jump\t// in\n    tag_374:\n        /* \"#utility.yul\":18981:19053   */\n      tag_375\n        /* \"#utility.yul\":19049:19051   */\n      0x20\n        /* \"#utility.yul\":19038:19047   */\n      dup4\n        /* \"#utility.yul\":19034:19052   */\n      add\n        /* \"#utility.yul\":19025:19031   */\n      dup8\n        /* \"#utility.yul\":18981:19053   */\n      tag_123\n      jump\t// in\n    tag_375:\n        /* \"#utility.yul\":19063:19135   */\n      tag_376\n        /* \"#utility.yul\":19131:19133   */\n      0x40\n        /* \"#utility.yul\":19120:19129   */\n      dup4\n        /* \"#utility.yul\":19116:19134   */\n      add\n        /* \"#utility.yul\":19107:19113   */\n      dup7\n        /* \"#utility.yul\":19063:19135   */\n      tag_107\n      jump\t// in\n    tag_376:\n        /* \"#utility.yul\":19182:19191   */\n      dup2\n        /* \"#utility.yul\":19176:19180   */\n      dup2\n        /* \"#utility.yul\":19172:19192   */\n      sub\n        /* \"#utility.yul\":19167:19169   */\n      0x60\n        /* \"#utility.yul\":19156:19165   */\n      dup4\n        /* \"#utility.yul\":19152:19170   */\n      add\n        /* \"#utility.yul\":19145:19193   */\n      mstore\n        /* \"#utility.yul\":19210:19296   */\n      tag_377\n        /* \"#utility.yul\":19291:19295   */\n      dup2\n        /* \"#utility.yul\":19282:19288   */\n      dup5\n        /* \"#utility.yul\":19274:19280   */\n      dup7\n        /* \"#utility.yul\":19210:19296   */\n      tag_162\n      jump\t// in\n    tag_377:\n        /* \"#utility.yul\":19202:19296   */\n      swap1\n      pop\n        /* \"#utility.yul\":18643:19303   */\n      swap7\n      swap6\n      pop\n      pop\n      pop\n      pop\n      pop\n      pop\n      jump\t// out\n        /* \"#utility.yul\":19309:19489   */\n    tag_163:\n        /* \"#utility.yul\":19357:19434   */\n      0x4e487b7100000000000000000000000000000000000000000000000000000000\n        /* \"#utility.yul\":19354:19355   */\n      0x00\n        /* \"#utility.yul\":19347:19435   */\n      mstore\n        /* \"#utility.yul\":19454:19458   */\n      0x11\n        /* \"#utility.yul\":19451:19452   */\n      0x04\n        /* \"#utility.yul\":19444:19459   */\n      mstore\n        /* \"#utility.yul\":19478:19482   */\n      0x24\n        /* \"#utility.yul\":19475:19476   */\n      0x00\n        /* \"#utility.yul\":19468:19483   */\n      revert\n        /* \"#utility.yul\":19495:19728   */\n    tag_83:\n        /* \"#utility.yul\":19534:19537   */\n      0x00\n        /* \"#utility.yul\":19557:19581   */\n      tag_380\n        /* \"#utility.yul\":19575:19580   */\n      dup3\n        /* \"#utility.yul\":19557:19581   */\n      tag_106\n      jump\t// in\n    tag_380:\n        /* \"#utility.yul\":19548:19581   */\n      swap2\n      pop\n        /* \"#utility.yul\":19603:19669   */\n      0xffffffffffffffffffffffffffffffffffffffffffffffffffffffffffffffff\n        /* \"#utility.yul\":19596:19601   */\n      dup3\n        /* \"#utility.yul\":19593:19670   */\n      sub\n        /* \"#utility.yul\":19590:19693   */\n      tag_381\n      jumpi\n        /* \"#utility.yul\":19673:19691   */\n      tag_382\n      tag_163\n      jump\t// in\n    tag_382:\n        /* \"#utility.yul\":19590:19693   */\n    tag_381:\n        /* \"#utility.yul\":19720:19721   */\n      0x01\n        /* \"#utility.yul\":19713:19718   */\n      dup3\n        /* \"#utility.yul\":19709:19722   */\n      add\n        /* \"#utility.yul\":19702:19722   */\n      swap1\n      pop\n        /* \"#utility.yul\":19495:19728   */\n      swap2\n      swap1\n      pop\n      jump\t// out\n        /* \"#utility.yul\":19734:19900   */\n    tag_164:\n        /* \"#utility.yul\":19874:19892   */\n      0x726571496420697320696e76616c696400000000000000000000000000000000\n        /* \"#utility.yul\":19870:19871   */\n      0x00\n        /* \"#utility.yul\":19862:19868   */\n      dup3\n        /* \"#utility.yul\":19858:19872   */\n      add\n        /* \"#utility.yul\":19851:19893   */\n      mstore\n        /* \"#utility.yul\":19734:19900   */\n      pop\n      jump\t// out\n        /* \"#utility.yul\":19906:20272   */\n    tag_165:\n        /* \"#utility.yul\":20048:20051   */\n      0x00\n        /* \"#utility.yul\":20069:20136   */\n      tag_385\n        /* \"#utility.yul\":20133:20135   */\n      0x10\n        /* \"#utility.yul\":20128:20131   */\n      dup4\n        /* \"#utility.yul\":20069:20136   */\n      tag_119\n      jump\t// in\n    tag_385:\n        /* \"#utility.yul\":20062:20136   */\n      swap2\n      pop\n        /* \"#utility.yul\":20145:20238   */\n      tag_386\n        /* \"#utility.yul\":20234:20237   */\n      dup3\n        /* \"#utility.yul\":20145:20238   */\n      tag_164\n      jump\t// in\n    tag_386:\n        /* \"#utility.yul\":20263:20265   */\n      0x20\n        /* \"#utility.yul\":20258:20261   */\n      dup3\n        /* \"#utility.yul\":20254:20266   */\n      add\n        /* \"#utility.yul\":20247:20266   */\n      swap1\n      pop\n        /* \"#utility.yul\":19906:20272   */\n      swap2\n      swap1\n      pop\n      jump\t// out\n        /* \"#utility.yul\":20278:20697   */\n    tag_89:\n        /* \"#utility.yul\":20444:20448   */\n      0x00\n        /* \"#utility.yul\":20482:20484   */\n      0x20\n        /* \"#utility.yul\":20471:20480   */\n      dup3\n        /* \"#utility.yul\":20467:20485   */\n      add\n        /* \"#utility.yul\":20459:20485   */\n      swap1\n      pop\n        /* \"#utility.yul\":20531:20540   */\n      dup2\n        /* \"#utility.yul\":20525:20529   */\n      dup2\n        /* \"#utility.yul\":20521:20541   */\n      sub\n        /* \"#utility.yul\":20517:20518   */\n      0x00\n        /* \"#utility.yul\":20506:20515   */\n      dup4\n        /* \"#utility.yul\":20502:20519   */\n      add\n        /* \"#utility.yul\":20495:20542   */\n      mstore\n        /* \"#utility.yul\":20559:20690   */\n      tag_388\n        /* \"#utility.yul\":20685:20689   */\n      dup2\n        /* \"#utility.yul\":20559:20690   */\n      tag_165\n      jump\t// in\n    tag_388:\n        /* \"#utility.yul\":20551:20690   */\n      swap1\n      pop\n        /* \"#utility.yul\":20278:20697   */\n      swap2\n      swap1\n      pop\n      jump\t// out\n\n    auxdata: 0xa26469706673582212204f2988f3c02cd3b1e7d9e4186b32237fdf0d09a0be2002761836769ac50c771364736f6c63430008180033\n}\n",
				"bytecode": {
					"linkReferences": {},
					"object": "608060405234801562000010575f80fd5b506040516200149c3803806200149c8339818101604052810190620000369190620001e9565b805f73ffffffffffffffffffffffffffffffffffffffff168173ffffffffffffffffffffffffffffffffffffffff1603620000aa575f6040517f1e4fbdf7000000000000000000000000000000000000000000000000000000008152600401620000a191906200022a565b60405180910390fd5b620000bb81620000c360201b60201c565b505062000245565b5f805f9054906101000a900473ffffffffffffffffffffffffffffffffffffffff169050815f806101000a81548173ffffffffffffffffffffffffffffffffffffffff021916908373ffffffffffffffffffffffffffffffffffffffff1602179055508173ffffffffffffffffffffffffffffffffffffffff168173ffffffffffffffffffffffffffffffffffffffff167f8be0079c531659141344cd1fd0a4f28419497f9722a3daafe3b4186f6b6457e060405160405180910390a35050565b5f80fd5b5f73ffffffffffffffffffffffffffffffffffffffff82169050919050565b5f620001b38262000188565b9050919050565b620001c581620001a7565b8114620001d0575f80fd5b50565b5f81519050620001e381620001ba565b92915050565b5f6020828403121562000201576200020062000184565b5b5f6200021084828501620001d3565b91505092915050565b6200022481620001a7565b82525050565b5f6020820190506200023f5f83018462000219565b92915050565b61124980620002535f395ff3fe60806040526004361061007a575f3560e01c80638da5cb5b1161004d5780638da5cb5b14610126578063b94207d314610150578063be2cbc2614610180578063f2fde38b146101a85761007a565b80635badbe4c1461007e578063715018a6146100a857806376c7a3c7146100be57806381d12c58146100e8575b5f80fd5b348015610089575f80fd5b506100926101d0565b60405161009f9190610753565b60405180910390f35b3480156100b3575f80fd5b506100bc6101d6565b005b3480156100c9575f80fd5b506100d26101e9565b6040516100df9190610753565b60405180910390f35b3480156100f3575f80fd5b5061010e600480360381019061010991906107a7565b6101f4565b60405161011d939291906108ae565b60405180910390f35b348015610131575f80fd5b5061013a610326565b6040516101479190610930565b60405180910390f35b61016a600480360381019061016591906109aa565b61034d565b6040516101779190610a0f565b60405180910390f35b34801561018b575f80fd5b506101a660048036038101906101a19190610b50565b6104f5565b005b3480156101b3575f80fd5b506101ce60048036038101906101c99190610bd4565b610568565b005b60015481565b6101de6105ec565b6101e75f610673565b565b662386f26fc1000081565b6002602052805f5260405f205f91509050805f01549080600101805461021990610c2c565b80601f016020809104026020016040519081016040528092919081815260200182805461024590610c2c565b80156102905780601f1061026757610100808354040283529160200191610290565b820191905f5260205f20905b81548152906001019060200180831161027357829003601f168201915b5050505050908060020180546102a590610c2c565b80601f01602080910402602001604051908101604052809291908181526020018280546102d190610c2c565b801561031c5780601f106102f35761010080835404028352916020019161031c565b820191905f5260205f20905b8154815290600101906020018083116102ff57829003601f168201915b5050505050905083565b5f805f9054906101000a900473ffffffffffffffffffffffffffffffffffffffff16905090565b5f662386f26fc10000341015610398576040517f08c379a000000000000000000000000000000000000000000000000000000000815260040161038f90610ca6565b60405180910390fd5b5f83839050116103dd576040517f08c379a00000000000000000000000000000000000000000000000000000000081526004016103d490610d0e565b60405180910390fd5b604051806060016040528034815260200184848080601f0160208091040260200160405190810160405280939291908181526020018383808284375f81840152601f19601f82011690508083019250505050505050815260200160405180602001604052805f81525081525060025f60015481526020019081526020015f205f820151815f015560208201518160010190816104799190610ec9565b50604082015181600201908161048f9190610ff0565b509050507f9e9857bae24aed7f64140455ee806a2e64f752ae101b95890a3081b5b90e2c51600154333486866040516104cc9594939291906110eb565b60405180910390a160015f8154809291906104e690611164565b91905055506001905092915050565b6104fd6105ec565b600154821115610542576040517f08c379a0000000000000000000000000000000000000000000000000000000008152600401610539906111f5565b60405180910390fd5b8060025f8481526020019081526020015f2060020190816105639190610ff0565b505050565b6105706105ec565b5f73ffffffffffffffffffffffffffffffffffffffff168173ffffffffffffffffffffffffffffffffffffffff16036105e0575f6040517f1e4fbdf70000000000000000000000000000000000000000000000000000000081526004016105d79190610930565b60405180910390fd5b6105e981610673565b50565b6105f4610734565b73ffffffffffffffffffffffffffffffffffffffff16610612610326565b73ffffffffffffffffffffffffffffffffffffffff161461067157610635610734565b6040517f118cdaa70000000000000000000000000000000000000000000000000000000081526004016106689190610930565b60405180910390fd5b565b5f805f9054906101000a900473ffffffffffffffffffffffffffffffffffffffff169050815f806101000a81548173ffffffffffffffffffffffffffffffffffffffff021916908373ffffffffffffffffffffffffffffffffffffffff1602179055508173ffffffffffffffffffffffffffffffffffffffff168173ffffffffffffffffffffffffffffffffffffffff167f8be0079c531659141344cd1fd0a4f28419497f9722a3daafe3b4186f6b6457e060405160405180910390a35050565b5f33905090565b5f819050919050565b61074d8161073b565b82525050565b5f6020820190506107665f830184610744565b92915050565b5f604051905090565b5f80fd5b5f80fd5b6107868161073b565b8114610790575f80fd5b50565b5f813590506107a18161077d565b92915050565b5f602082840312156107bc576107bb610775565b5b5f6107c984828501610793565b91505092915050565b5f81519050919050565b5f82825260208201905092915050565b5f5b838110156108095780820151818401526020810190506107ee565b5f8484015250505050565b5f601f19601f8301169050919050565b5f61082e826107d2565b61083881856107dc565b93506108488185602086016107ec565b61085181610814565b840191505092915050565b5f81519050919050565b5f82825260208201905092915050565b5f6108808261085c565b61088a8185610866565b935061089a8185602086016107ec565b6108a381610814565b840191505092915050565b5f6060820190506108c15f830186610744565b81810360208301526108d38185610824565b905081810360408301526108e78184610876565b9050949350505050565b5f73ffffffffffffffffffffffffffffffffffffffff82169050919050565b5f61091a826108f1565b9050919050565b61092a81610910565b82525050565b5f6020820190506109435f830184610921565b92915050565b5f80fd5b5f80fd5b5f80fd5b5f8083601f84011261096a57610969610949565b5b8235905067ffffffffffffffff8111156109875761098661094d565b5b6020830191508360018202830111156109a3576109a2610951565b5b9250929050565b5f80602083850312156109c0576109bf610775565b5b5f83013567ffffffffffffffff8111156109dd576109dc610779565b5b6109e985828601610955565b92509250509250929050565b5f8115159050919050565b610a09816109f5565b82525050565b5f602082019050610a225f830184610a00565b92915050565b5f80fd5b7f4e487b71000000000000000000000000000000000000000000000000000000005f52604160045260245ffd5b610a6282610814565b810181811067ffffffffffffffff82111715610a8157610a80610a2c565b5b80604052505050565b5f610a9361076c565b9050610a9f8282610a59565b919050565b5f67ffffffffffffffff821115610abe57610abd610a2c565b5b610ac782610814565b9050602081019050919050565b828183375f83830152505050565b5f610af4610aef84610aa4565b610a8a565b905082815260208101848484011115610b1057610b0f610a28565b5b610b1b848285610ad4565b509392505050565b5f82601f830112610b3757610b36610949565b5b8135610b47848260208601610ae2565b91505092915050565b5f8060408385031215610b6657610b65610775565b5b5f610b7385828601610793565b925050602083013567ffffffffffffffff811115610b9457610b93610779565b5b610ba085828601610b23565b9150509250929050565b610bb381610910565b8114610bbd575f80fd5b50565b5f81359050610bce81610baa565b92915050565b5f60208284031215610be957610be8610775565b5b5f610bf684828501610bc0565b91505092915050565b7f4e487b71000000000000000000000000000000000000000000000000000000005f52602260045260245ffd5b5f6002820490506001821680610c4357607f821691505b602082108103610c5657610c55610bff565b5b50919050565b7f696e737566666369656e742066656521000000000000000000000000000000005f82015250565b5f610c90601083610866565b9150610c9b82610c5c565b602082019050919050565b5f6020820190508181035f830152610cbd81610c84565b9050919050565b7f64617461206973206e696c2100000000000000000000000000000000000000005f82015250565b5f610cf8600c83610866565b9150610d0382610cc4565b602082019050919050565b5f6020820190508181035f830152610d2581610cec565b9050919050565b5f819050815f5260205f209050919050565b5f6020601f8301049050919050565b5f82821b905092915050565b5f60088302610d887fffffffffffffffffffffffffffffffffffffffffffffffffffffffffffffffff82610d4d565b610d928683610d4d565b95508019841693508086168417925050509392505050565b5f819050919050565b5f610dcd610dc8610dc38461073b565b610daa565b61073b565b9050919050565b5f819050919050565b610de683610db3565b610dfa610df282610dd4565b848454610d59565b825550505050565b5f90565b610e0e610e02565b610e19818484610ddd565b505050565b5b81811015610e3c57610e315f82610e06565b600181019050610e1f565b5050565b601f821115610e8157610e5281610d2c565b610e5b84610d3e565b81016020851015610e6a578190505b610e7e610e7685610d3e565b830182610e1e565b50505b505050565b5f82821c905092915050565b5f610ea15f1984600802610e86565b1980831691505092915050565b5f610eb98383610e92565b9150826002028217905092915050565b610ed2826107d2565b67ffffffffffffffff811115610eeb57610eea610a2c565b5b610ef58254610c2c565b610f00828285610e40565b5f60209050601f831160018114610f31575f8415610f1f578287015190505b610f298582610eae565b865550610f90565b601f198416610f3f86610d2c565b5f5b82811015610f6657848901518255600182019150602085019450602081019050610f41565b86831015610f835784890151610f7f601f891682610e92565b8355505b6001600288020188555050505b505050505050565b5f819050815f5260205f209050919050565b601f821115610feb57610fbc81610f98565b610fc584610d3e565b81016020851015610fd4578190505b610fe8610fe085610d3e565b830182610e1e565b50505b505050565b610ff98261085c565b67ffffffffffffffff81111561101257611011610a2c565b5b61101c8254610c2c565b611027828285610faa565b5f60209050601f831160018114611058575f8415611046578287015190505b6110508582610eae565b8655506110b7565b601f19841661106686610f98565b5f5b8281101561108d57848901518255600182019150602085019450602081019050611068565b868310156110aa57848901516110a6601f891682610e92565b8355505b6001600288020188555050505b505050505050565b5f6110ca83856107dc565b93506110d7838584610ad4565b6110e083610814565b840190509392505050565b5f6080820190506110fe5f830188610744565b61110b6020830187610921565b6111186040830186610744565b818103606083015261112b8184866110bf565b90509695505050505050565b7f4e487b71000000000000000000000000000000000000000000000000000000005f52601160045260245ffd5b5f61116e8261073b565b91507fffffffffffffffffffffffffffffffffffffffffffffffffffffffffffffffff82036111a05761119f611137565b5b600182019050919050565b7f726571496420697320696e76616c6964000000000000000000000000000000005f82015250565b5f6111df601083610866565b91506111ea826111ab565b602082019050919050565b5f6020820190508181035f83015261120c816111d3565b905091905056fea26469706673582212204f2988f3c02cd3b1e7d9e4186b32237fdf0d09a0be2002761836769ac50c771364736f6c63430008180033",
					"opcodes": "PUSH1 0x80 PUSH1 0x40 MSTORE CALLVALUE DUP1 ISZERO PUSH3 0x10 JUMPI PUSH0 DUP1 REVERT JUMPDEST POP PUSH1 0x40 MLOAD PUSH3 0x149C CODESIZE SUB DUP1 PUSH3 0x149C DUP4 CODECOPY DUP2 DUP2 ADD PUSH1 0x40 MSTORE DUP2 ADD SWAP1 PUSH3 0x36 SWAP2 SWAP1 PUSH3 0x1E9 JUMP JUMPDEST DUP1 PUSH0 PUSH20 0xFFFFFFFFFFFFFFFFFFFFFFFFFFFFFFFFFFFFFFFF AND DUP2 PUSH20 0xFFFFFFFFFFFFFFFFFFFFFFFFFFFFFFFFFFFFFFFF AND SUB PUSH3 0xAA JUMPI PUSH0 PUSH1 0x40 MLOAD PUSH32 0x1E4FBDF700000000000000000000000000000000000000000000000000000000 DUP2 MSTORE PUSH1 0x4 ADD PUSH3 0xA1 SWAP2 SWAP1 PUSH3 0x22A JUMP JUMPDEST PUSH1 0x40 MLOAD DUP1 SWAP2 SUB SWAP1 REVERT JUMPDEST PUSH3 0xBB DUP2 PUSH3 0xC3 PUSH1 0x20 SHL PUSH1 0x20 SHR JUMP JUMPDEST POP POP PUSH3 0x245 JUMP JUMPDEST PUSH0 DUP1 PUSH0 SWAP1 SLOAD SWAP1 PUSH2 0x100 EXP SWAP1 DIV PUSH20 0xFFFFFFFFFFFFFFFFFFFFFFFFFFFFFFFFFFFFFFFF AND SWAP1 POP DUP2 PUSH0 DUP1 PUSH2 0x100 EXP DUP2 SLOAD DUP2 PUSH20 0xFFFFFFFFFFFFFFFFFFFFFFFFFFFFFFFFFFFFFFFF MUL NOT AND SWAP1 DUP4 PUSH20 0xFFFFFFFFFFFFFFFFFFFFFFFFFFFFFFFFFFFFFFFF AND MUL OR SWAP1 SSTORE POP DUP2 PUSH20 0xFFFFFFFFFFFFFFFFFFFFFFFFFFFFFFFFFFFFFFFF AND DUP2 PUSH20 0xFFFFFFFFFFFFFFFFFFFFFFFFFFFFFFFFFFFFFFFF AND PUSH32 0x8BE0079C531659141344CD1FD0A4F28419497F9722A3DAAFE3B4186F6B6457E0 PUSH1 0x40 MLOAD PUSH1 0x40 MLOAD DUP1 SWAP2 SUB SWAP1 LOG3 POP POP JUMP JUMPDEST PUSH0 DUP1 REVERT JUMPDEST PUSH0 PUSH20 0xFFFFFFFFFFFFFFFFFFFFFFFFFFFFFFFFFFFFFFFF DUP3 AND SWAP1 POP SWAP2 SWAP1 POP JUMP JUMPDEST PUSH0 PUSH3 0x1B3 DUP3 PUSH3 0x188 JUMP JUMPDEST SWAP1 POP SWAP2 SWAP1 POP JUMP JUMPDEST PUSH3 0x1C5 DUP2 PUSH3 0x1A7 JUMP JUMPDEST DUP2 EQ PUSH3 0x1D0 JUMPI PUSH0 DUP1 REVERT JUMPDEST POP JUMP JUMPDEST PUSH0 DUP2 MLOAD SWAP1 POP PUSH3 0x1E3 DUP2 PUSH3 0x1BA JUMP JUMPDEST SWAP3 SWAP2 POP POP JUMP JUMPDEST PUSH0 PUSH1 0x20 DUP3 DUP5 SUB SLT ISZERO PUSH3 0x201 JUMPI PUSH3 0x200 PUSH3 0x184 JUMP JUMPDEST JUMPDEST PUSH0 PUSH3 0x210 DUP5 DUP3 DUP6 ADD PUSH3 0x1D3 JUMP JUMPDEST SWAP2 POP POP SWAP3 SWAP2 POP POP JUMP JUMPDEST PUSH3 0x224 DUP2 PUSH3 0x1A7 JUMP JUMPDEST DUP3 MSTORE POP POP JUMP JUMPDEST PUSH0 PUSH1 0x20 DUP3 ADD SWAP1 POP PUSH3 0x23F PUSH0 DUP4 ADD DUP5 PUSH3 0x219 JUMP JUMPDEST SWAP3 SWAP2 POP POP JUMP JUMPDEST PUSH2 0x1249 DUP1 PUSH3 0x253 PUSH0 CODECOPY PUSH0 RETURN INVALID PUSH1 0x80 PUSH1 0x40 MSTORE PUSH1 0x4 CALLDATASIZE LT PUSH2 0x7A JUMPI PUSH0 CALLDATALOAD PUSH1 0xE0 SHR DUP1 PUSH4 0x8DA5CB5B GT PUSH2 0x4D JUMPI DUP1 PUSH4 0x8DA5CB5B EQ PUSH2 0x126 JUMPI DUP1 PUSH4 0xB94207D3 EQ PUSH2 0x150 JUMPI DUP1 PUSH4 0xBE2CBC26 EQ PUSH2 0x180 JUMPI DUP1 PUSH4 0xF2FDE38B EQ PUSH2 0x1A8 JUMPI PUSH2 0x7A JUMP JUMPDEST DUP1 PUSH4 0x5BADBE4C EQ PUSH2 0x7E JUMPI DUP1 PUSH4 0x715018A6 EQ PUSH2 0xA8 JUMPI DUP1 PUSH4 0x76C7A3C7 EQ PUSH2 0xBE JUMPI DUP1 PUSH4 0x81D12C58 EQ PUSH2 0xE8 JUMPI JUMPDEST PUSH0 DUP1 REVERT JUMPDEST CALLVALUE DUP1 ISZERO PUSH2 0x89 JUMPI PUSH0 DUP1 REVERT JUMPDEST POP PUSH2 0x92 PUSH2 0x1D0 JUMP JUMPDEST PUSH1 0x40 MLOAD PUSH2 0x9F SWAP2 SWAP1 PUSH2 0x753 JUMP JUMPDEST PUSH1 0x40 MLOAD DUP1 SWAP2 SUB SWAP1 RETURN JUMPDEST CALLVALUE DUP1 ISZERO PUSH2 0xB3 JUMPI PUSH0 DUP1 REVERT JUMPDEST POP PUSH2 0xBC PUSH2 0x1D6 JUMP JUMPDEST STOP JUMPDEST CALLVALUE DUP1 ISZERO PUSH2 0xC9 JUMPI PUSH0 DUP1 REVERT JUMPDEST POP PUSH2 0xD2 PUSH2 0x1E9 JUMP JUMPDEST PUSH1 0x40 MLOAD PUSH2 0xDF SWAP2 SWAP1 PUSH2 0x753 JUMP JUMPDEST PUSH1 0x40 MLOAD DUP1 SWAP2 SUB SWAP1 RETURN JUMPDEST CALLVALUE DUP1 ISZERO PUSH2 0xF3 JUMPI PUSH0 DUP1 REVERT JUMPDEST POP PUSH2 0x10E PUSH1 0x4 DUP1 CALLDATASIZE SUB DUP2 ADD SWAP1 PUSH2 0x109 SWAP2 SWAP1 PUSH2 0x7A7 JUMP JUMPDEST PUSH2 0x1F4 JUMP JUMPDEST PUSH1 0x40 MLOAD PUSH2 0x11D SWAP4 SWAP3 SWAP2 SWAP1 PUSH2 0x8AE JUMP JUMPDEST PUSH1 0x40 MLOAD DUP1 SWAP2 SUB SWAP1 RETURN JUMPDEST CALLVALUE DUP1 ISZERO PUSH2 0x131 JUMPI PUSH0 DUP1 REVERT JUMPDEST POP PUSH2 0x13A PUSH2 0x326 JUMP JUMPDEST PUSH1 0x40 MLOAD PUSH2 0x147 SWAP2 SWAP1 PUSH2 0x930 JUMP JUMPDEST PUSH1 0x40 MLOAD DUP1 SWAP2 SUB SWAP1 RETURN JUMPDEST PUSH2 0x16A PUSH1 0x4 DUP1 CALLDATASIZE SUB DUP2 ADD SWAP1 PUSH2 0x165 SWAP2 SWAP1 PUSH2 0x9AA JUMP JUMPDEST PUSH2 0x34D JUMP JUMPDEST PUSH1 0x40 MLOAD PUSH2 0x177 SWAP2 SWAP1 PUSH2 0xA0F JUMP JUMPDEST PUSH1 0x40 MLOAD DUP1 SWAP2 SUB SWAP1 RETURN JUMPDEST CALLVALUE DUP1 ISZERO PUSH2 0x18B JUMPI PUSH0 DUP1 REVERT JUMPDEST POP PUSH2 0x1A6 PUSH1 0x4 DUP1 CALLDATASIZE SUB DUP2 ADD SWAP1 PUSH2 0x1A1 SWAP2 SWAP1 PUSH2 0xB50 JUMP JUMPDEST PUSH2 0x4F5 JUMP JUMPDEST STOP JUMPDEST CALLVALUE DUP1 ISZERO PUSH2 0x1B3 JUMPI PUSH0 DUP1 REVERT JUMPDEST POP PUSH2 0x1CE PUSH1 0x4 DUP1 CALLDATASIZE SUB DUP2 ADD SWAP1 PUSH2 0x1C9 SWAP2 SWAP1 PUSH2 0xBD4 JUMP JUMPDEST PUSH2 0x568 JUMP JUMPDEST STOP JUMPDEST PUSH1 0x1 SLOAD DUP2 JUMP JUMPDEST PUSH2 0x1DE PUSH2 0x5EC JUMP JUMPDEST PUSH2 0x1E7 PUSH0 PUSH2 0x673 JUMP JUMPDEST JUMP JUMPDEST PUSH7 0x2386F26FC10000 DUP2 JUMP JUMPDEST PUSH1 0x2 PUSH1 0x20 MSTORE DUP1 PUSH0 MSTORE PUSH1 0x40 PUSH0 KECCAK256 PUSH0 SWAP2 POP SWAP1 POP DUP1 PUSH0 ADD SLOAD SWAP1 DUP1 PUSH1 0x1 ADD DUP1 SLOAD PUSH2 0x219 SWAP1 PUSH2 0xC2C JUMP JUMPDEST DUP1 PUSH1 0x1F ADD PUSH1 0x20 DUP1 SWAP2 DIV MUL PUSH1 0x20 ADD PUSH1 0x40 MLOAD SWAP1 DUP2 ADD PUSH1 0x40 MSTORE DUP1 SWAP3 SWAP2 SWAP1 DUP2 DUP2 MSTORE PUSH1 0x20 ADD DUP3 DUP1 SLOAD PUSH2 0x245 SWAP1 PUSH2 0xC2C JUMP JUMPDEST DUP1 ISZERO PUSH2 0x290 JUMPI DUP1 PUSH1 0x1F LT PUSH2 0x267 JUMPI PUSH2 0x100 DUP1 DUP4 SLOAD DIV MUL DUP4 MSTORE SWAP2 PUSH1 0x20 ADD SWAP2 PUSH2 0x290 JUMP JUMPDEST DUP3 ADD SWAP2 SWAP1 PUSH0 MSTORE PUSH1 0x20 PUSH0 KECCAK256 SWAP1 JUMPDEST DUP2 SLOAD DUP2 MSTORE SWAP1 PUSH1 0x1 ADD SWAP1 PUSH1 0x20 ADD DUP1 DUP4 GT PUSH2 0x273 JUMPI DUP3 SWAP1 SUB PUSH1 0x1F AND DUP3 ADD SWAP2 JUMPDEST POP POP POP POP POP SWAP1 DUP1 PUSH1 0x2 ADD DUP1 SLOAD PUSH2 0x2A5 SWAP1 PUSH2 0xC2C JUMP JUMPDEST DUP1 PUSH1 0x1F ADD PUSH1 0x20 DUP1 SWAP2 DIV MUL PUSH1 0x20 ADD PUSH1 0x40 MLOAD SWAP1 DUP2 ADD PUSH1 0x40 MSTORE DUP1 SWAP3 SWAP2 SWAP1 DUP2 DUP2 MSTORE PUSH1 0x20 ADD DUP3 DUP1 SLOAD PUSH2 0x2D1 SWAP1 PUSH2 0xC2C JUMP JUMPDEST DUP1 ISZERO PUSH2 0x31C JUMPI DUP1 PUSH1 0x1F LT PUSH2 0x2F3 JUMPI PUSH2 0x100 DUP1 DUP4 SLOAD DIV MUL DUP4 MSTORE SWAP2 PUSH1 0x20 ADD SWAP2 PUSH2 0x31C JUMP JUMPDEST DUP3 ADD SWAP2 SWAP1 PUSH0 MSTORE PUSH1 0x20 PUSH0 KECCAK256 SWAP1 JUMPDEST DUP2 SLOAD DUP2 MSTORE SWAP1 PUSH1 0x1 ADD SWAP1 PUSH1 0x20 ADD DUP1 DUP4 GT PUSH2 0x2FF JUMPI DUP3 SWAP1 SUB PUSH1 0x1F AND DUP3 ADD SWAP2 JUMPDEST POP POP POP POP POP SWAP1 POP DUP4 JUMP JUMPDEST PUSH0 DUP1 PUSH0 SWAP1 SLOAD SWAP1 PUSH2 0x100 EXP SWAP1 DIV PUSH20 0xFFFFFFFFFFFFFFFFFFFFFFFFFFFFFFFFFFFFFFFF AND SWAP1 POP SWAP1 JUMP JUMPDEST PUSH0 PUSH7 0x2386F26FC10000 CALLVALUE LT ISZERO PUSH2 0x398 JUMPI PUSH1 0x40 MLOAD PUSH32 0x8C379A000000000000000000000000000000000000000000000000000000000 DUP2 MSTORE PUSH1 0x4 ADD PUSH2 0x38F SWAP1 PUSH2 0xCA6 JUMP JUMPDEST PUSH1 0x40 MLOAD DUP1 SWAP2 SUB SWAP1 REVERT JUMPDEST PUSH0 DUP4 DUP4 SWAP1 POP GT PUSH2 0x3DD JUMPI PUSH1 0x40 MLOAD PUSH32 0x8C379A000000000000000000000000000000000000000000000000000000000 DUP2 MSTORE PUSH1 0x4 ADD PUSH2 0x3D4 SWAP1 PUSH2 0xD0E JUMP JUMPDEST PUSH1 0x40 MLOAD DUP1 SWAP2 SUB SWAP1 REVERT JUMPDEST PUSH1 0x40 MLOAD DUP1 PUSH1 0x60 ADD PUSH1 0x40 MSTORE DUP1 CALLVALUE DUP2 MSTORE PUSH1 0x20 ADD DUP5 DUP5 DUP1 DUP1 PUSH1 0x1F ADD PUSH1 0x20 DUP1 SWAP2 DIV MUL PUSH1 0x20 ADD PUSH1 0x40 MLOAD SWAP1 DUP2 ADD PUSH1 0x40 MSTORE DUP1 SWAP4 SWAP3 SWAP2 SWAP1 DUP2 DUP2 MSTORE PUSH1 0x20 ADD DUP4 DUP4 DUP1 DUP3 DUP5 CALLDATACOPY PUSH0 DUP2 DUP5 ADD MSTORE PUSH1 0x1F NOT PUSH1 0x1F DUP3 ADD AND SWAP1 POP DUP1 DUP4 ADD SWAP3 POP POP POP POP POP POP POP DUP2 MSTORE PUSH1 0x20 ADD PUSH1 0x40 MLOAD DUP1 PUSH1 0x20 ADD PUSH1 0x40 MSTORE DUP1 PUSH0 DUP2 MSTORE POP DUP2 MSTORE POP PUSH1 0x2 PUSH0 PUSH1 0x1 SLOAD DUP2 MSTORE PUSH1 0x20 ADD SWAP1 DUP2 MSTORE PUSH1 0x20 ADD PUSH0 KECCAK256 PUSH0 DUP3 ADD MLOAD DUP2 PUSH0 ADD SSTORE PUSH1 0x20 DUP3 ADD MLOAD DUP2 PUSH1 0x1 ADD SWAP1 DUP2 PUSH2 0x479 SWAP2 SWAP1 PUSH2 0xEC9 JUMP JUMPDEST POP PUSH1 0x40 DUP3 ADD MLOAD DUP2 PUSH1 0x2 ADD SWAP1 DUP2 PUSH2 0x48F SWAP2 SWAP1 PUSH2 0xFF0 JUMP JUMPDEST POP SWAP1 POP POP PUSH32 0x9E9857BAE24AED7F64140455EE806A2E64F752AE101B95890A3081B5B90E2C51 PUSH1 0x1 SLOAD CALLER CALLVALUE DUP7 DUP7 PUSH1 0x40 MLOAD PUSH2 0x4CC SWAP6 SWAP5 SWAP4 SWAP3 SWAP2 SWAP1 PUSH2 0x10EB JUMP JUMPDEST PUSH1 0x40 MLOAD DUP1 SWAP2 SUB SWAP1 LOG1 PUSH1 0x1 PUSH0 DUP2 SLOAD DUP1 SWAP3 SWAP2 SWAP1 PUSH2 0x4E6 SWAP1 PUSH2 0x1164 JUMP JUMPDEST SWAP2 SWAP1 POP SSTORE POP PUSH1 0x1 SWAP1 POP SWAP3 SWAP2 POP POP JUMP JUMPDEST PUSH2 0x4FD PUSH2 0x5EC JUMP JUMPDEST PUSH1 0x1 SLOAD DUP3 GT ISZERO PUSH2 0x542 JUMPI PUSH1 0x40 MLOAD PUSH32 0x8C379A000000000000000000000000000000000000000000000000000000000 DUP2 MSTORE PUSH1 0x4 ADD PUSH2 0x539 SWAP1 PUSH2 0x11F5 JUMP JUMPDEST PUSH1 0x40 MLOAD DUP1 SWAP2 SUB SWAP1 REVERT JUMPDEST DUP1 PUSH1 0x2 PUSH0 DUP5 DUP2 MSTORE PUSH1 0x20 ADD SWAP1 DUP2 MSTORE PUSH1 0x20 ADD PUSH0 KECCAK256 PUSH1 0x2 ADD SWAP1 DUP2 PUSH2 0x563 SWAP2 SWAP1 PUSH2 0xFF0 JUMP JUMPDEST POP POP POP JUMP JUMPDEST PUSH2 0x570 PUSH2 0x5EC JUMP JUMPDEST PUSH0 PUSH20 0xFFFFFFFFFFFFFFFFFFFFFFFFFFFFFFFFFFFFFFFF AND DUP2 PUSH20 0xFFFFFFFFFFFFFFFFFFFFFFFFFFFFFFFFFFFFFFFF AND SUB PUSH2 0x5E0 JUMPI PUSH0 PUSH1 0x40 MLOAD PUSH32 0x1E4FBDF700000000000000000000000000000000000000000000000000000000 DUP2 MSTORE PUSH1 0x4 ADD PUSH2 0x5D7 SWAP2 SWAP1 PUSH2 0x930 JUMP JUMPDEST PUSH1 0x40 MLOAD DUP1 SWAP2 SUB SWAP1 REVERT JUMPDEST PUSH2 0x5E9 DUP2 PUSH2 0x673 JUMP JUMPDEST POP JUMP JUMPDEST PUSH2 0x5F4 PUSH2 0x734 JUMP JUMPDEST PUSH20 0xFFFFFFFFFFFFFFFFFFFFFFFFFFFFFFFFFFFFFFFF AND PUSH2 0x612 PUSH2 0x326 JUMP JUMPDEST PUSH20 0xFFFFFFFFFFFFFFFFFFFFFFFFFFFFFFFFFFFFFFFF AND EQ PUSH2 0x671 JUMPI PUSH2 0x635 PUSH2 0x734 JUMP JUMPDEST PUSH1 0x40 MLOAD PUSH32 0x118CDAA700000000000000000000000000000000000000000000000000000000 DUP2 MSTORE PUSH1 0x4 ADD PUSH2 0x668 SWAP2 SWAP1 PUSH2 0x930 JUMP JUMPDEST PUSH1 0x40 MLOAD DUP1 SWAP2 SUB SWAP1 REVERT JUMPDEST JUMP JUMPDEST PUSH0 DUP1 PUSH0 SWAP1 SLOAD SWAP1 PUSH2 0x100 EXP SWAP1 DIV PUSH20 0xFFFFFFFFFFFFFFFFFFFFFFFFFFFFFFFFFFFFFFFF AND SWAP1 POP DUP2 PUSH0 DUP1 PUSH2 0x100 EXP DUP2 SLOAD DUP2 PUSH20 0xFFFFFFFFFFFFFFFFFFFFFFFFFFFFFFFFFFFFFFFF MUL NOT AND SWAP1 DUP4 PUSH20 0xFFFFFFFFFFFFFFFFFFFFFFFFFFFFFFFFFFFFFFFF AND MUL OR SWAP1 SSTORE POP DUP2 PUSH20 0xFFFFFFFFFFFFFFFFFFFFFFFFFFFFFFFFFFFFFFFF AND DUP2 PUSH20 0xFFFFFFFFFFFFFFFFFFFFFFFFFFFFFFFFFFFFFFFF AND PUSH32 0x8BE0079C531659141344CD1FD0A4F28419497F9722A3DAAFE3B4186F6B6457E0 PUSH1 0x40 MLOAD PUSH1 0x40 MLOAD DUP1 SWAP2 SUB SWAP1 LOG3 POP POP JUMP JUMPDEST PUSH0 CALLER SWAP1 POP SWAP1 JUMP JUMPDEST PUSH0 DUP2 SWAP1 POP SWAP2 SWAP1 POP JUMP JUMPDEST PUSH2 0x74D DUP2 PUSH2 0x73B JUMP JUMPDEST DUP3 MSTORE POP POP JUMP JUMPDEST PUSH0 PUSH1 0x20 DUP3 ADD SWAP1 POP PUSH2 0x766 PUSH0 DUP4 ADD DUP5 PUSH2 0x744 JUMP JUMPDEST SWAP3 SWAP2 POP POP JUMP JUMPDEST PUSH0 PUSH1 0x40 MLOAD SWAP1 POP SWAP1 JUMP JUMPDEST PUSH0 DUP1 REVERT JUMPDEST PUSH0 DUP1 REVERT JUMPDEST PUSH2 0x786 DUP2 PUSH2 0x73B JUMP JUMPDEST DUP2 EQ PUSH2 0x790 JUMPI PUSH0 DUP1 REVERT JUMPDEST POP JUMP JUMPDEST PUSH0 DUP2 CALLDATALOAD SWAP1 POP PUSH2 0x7A1 DUP2 PUSH2 0x77D JUMP JUMPDEST SWAP3 SWAP2 POP POP JUMP JUMPDEST PUSH0 PUSH1 0x20 DUP3 DUP5 SUB SLT ISZERO PUSH2 0x7BC JUMPI PUSH2 0x7BB PUSH2 0x775 JUMP JUMPDEST JUMPDEST PUSH0 PUSH2 0x7C9 DUP5 DUP3 DUP6 ADD PUSH2 0x793 JUMP JUMPDEST SWAP2 POP POP SWAP3 SWAP2 POP POP JUMP JUMPDEST PUSH0 DUP2 MLOAD SWAP1 POP SWAP2 SWAP1 POP JUMP JUMPDEST PUSH0 DUP3 DUP3 MSTORE PUSH1 0x20 DUP3 ADD SWAP1 POP SWAP3 SWAP2 POP POP JUMP JUMPDEST PUSH0 JUMPDEST DUP4 DUP2 LT ISZERO PUSH2 0x809 JUMPI DUP1 DUP3 ADD MLOAD DUP2 DUP5 ADD MSTORE PUSH1 0x20 DUP2 ADD SWAP1 POP PUSH2 0x7EE JUMP JUMPDEST PUSH0 DUP5 DUP5 ADD MSTORE POP POP POP POP JUMP JUMPDEST PUSH0 PUSH1 0x1F NOT PUSH1 0x1F DUP4 ADD AND SWAP1 POP SWAP2 SWAP1 POP JUMP JUMPDEST PUSH0 PUSH2 0x82E DUP3 PUSH2 0x7D2 JUMP JUMPDEST PUSH2 0x838 DUP2 DUP6 PUSH2 0x7DC JUMP JUMPDEST SWAP4 POP PUSH2 0x848 DUP2 DUP6 PUSH1 0x20 DUP7 ADD PUSH2 0x7EC JUMP JUMPDEST PUSH2 0x851 DUP2 PUSH2 0x814 JUMP JUMPDEST DUP5 ADD SWAP2 POP POP SWAP3 SWAP2 POP POP JUMP JUMPDEST PUSH0 DUP2 MLOAD SWAP1 POP SWAP2 SWAP1 POP JUMP JUMPDEST PUSH0 DUP3 DUP3 MSTORE PUSH1 0x20 DUP3 ADD SWAP1 POP SWAP3 SWAP2 POP POP JUMP JUMPDEST PUSH0 PUSH2 0x880 DUP3 PUSH2 0x85C JUMP JUMPDEST PUSH2 0x88A DUP2 DUP6 PUSH2 0x866 JUMP JUMPDEST SWAP4 POP PUSH2 0x89A DUP2 DUP6 PUSH1 0x20 DUP7 ADD PUSH2 0x7EC JUMP JUMPDEST PUSH2 0x8A3 DUP2 PUSH2 0x814 JUMP JUMPDEST DUP5 ADD SWAP2 POP POP SWAP3 SWAP2 POP POP JUMP JUMPDEST PUSH0 PUSH1 0x60 DUP3 ADD SWAP1 POP PUSH2 0x8C1 PUSH0 DUP4 ADD DUP7 PUSH2 0x744 JUMP JUMPDEST DUP2 DUP2 SUB PUSH1 0x20 DUP4 ADD MSTORE PUSH2 0x8D3 DUP2 DUP6 PUSH2 0x824 JUMP JUMPDEST SWAP1 POP DUP2 DUP2 SUB PUSH1 0x40 DUP4 ADD MSTORE PUSH2 0x8E7 DUP2 DUP5 PUSH2 0x876 JUMP JUMPDEST SWAP1 POP SWAP5 SWAP4 POP POP POP POP JUMP JUMPDEST PUSH0 PUSH20 0xFFFFFFFFFFFFFFFFFFFFFFFFFFFFFFFFFFFFFFFF DUP3 AND SWAP1 POP SWAP2 SWAP1 POP JUMP JUMPDEST PUSH0 PUSH2 0x91A DUP3 PUSH2 0x8F1 JUMP JUMPDEST SWAP1 POP SWAP2 SWAP1 POP JUMP JUMPDEST PUSH2 0x92A DUP2 PUSH2 0x910 JUMP JUMPDEST DUP3 MSTORE POP POP JUMP JUMPDEST PUSH0 PUSH1 0x20 DUP3 ADD SWAP1 POP PUSH2 0x943 PUSH0 DUP4 ADD DUP5 PUSH2 0x921 JUMP JUMPDEST SWAP3 SWAP2 POP POP JUMP JUMPDEST PUSH0 DUP1 REVERT JUMPDEST PUSH0 DUP1 REVERT JUMPDEST PUSH0 DUP1 REVERT JUMPDEST PUSH0 DUP1 DUP4 PUSH1 0x1F DUP5 ADD SLT PUSH2 0x96A JUMPI PUSH2 0x969 PUSH2 0x949 JUMP JUMPDEST JUMPDEST DUP3 CALLDATALOAD SWAP1 POP PUSH8 0xFFFFFFFFFFFFFFFF DUP2 GT ISZERO PUSH2 0x987 JUMPI PUSH2 0x986 PUSH2 0x94D JUMP JUMPDEST JUMPDEST PUSH1 0x20 DUP4 ADD SWAP2 POP DUP4 PUSH1 0x1 DUP3 MUL DUP4 ADD GT ISZERO PUSH2 0x9A3 JUMPI PUSH2 0x9A2 PUSH2 0x951 JUMP JUMPDEST JUMPDEST SWAP3 POP SWAP3 SWAP1 POP JUMP JUMPDEST PUSH0 DUP1 PUSH1 0x20 DUP4 DUP6 SUB SLT ISZERO PUSH2 0x9C0 JUMPI PUSH2 0x9BF PUSH2 0x775 JUMP JUMPDEST JUMPDEST PUSH0 DUP4 ADD CALLDATALOAD PUSH8 0xFFFFFFFFFFFFFFFF DUP2 GT ISZERO PUSH2 0x9DD JUMPI PUSH2 0x9DC PUSH2 0x779 JUMP JUMPDEST JUMPDEST PUSH2 0x9E9 DUP6 DUP3 DUP7 ADD PUSH2 0x955 JUMP JUMPDEST SWAP3 POP SWAP3 POP POP SWAP3 POP SWAP3 SWAP1 POP JUMP JUMPDEST PUSH0 DUP2 ISZERO ISZERO SWAP1 POP SWAP2 SWAP1 POP JUMP JUMPDEST PUSH2 0xA09 DUP2 PUSH2 0x9F5 JUMP JUMPDEST DUP3 MSTORE POP POP JUMP JUMPDEST PUSH0 PUSH1 0x20 DUP3 ADD SWAP1 POP PUSH2 0xA22 PUSH0 DUP4 ADD DUP5 PUSH2 0xA00 JUMP JUMPDEST SWAP3 SWAP2 POP POP JUMP JUMPDEST PUSH0 DUP1 REVERT JUMPDEST PUSH32 0x4E487B7100000000000000000000000000000000000000000000000000000000 PUSH0 MSTORE PUSH1 0x41 PUSH1 0x4 MSTORE PUSH1 0x24 PUSH0 REVERT JUMPDEST PUSH2 0xA62 DUP3 PUSH2 0x814 JUMP JUMPDEST DUP2 ADD DUP2 DUP2 LT PUSH8 0xFFFFFFFFFFFFFFFF DUP3 GT OR ISZERO PUSH2 0xA81 JUMPI PUSH2 0xA80 PUSH2 0xA2C JUMP JUMPDEST JUMPDEST DUP1 PUSH1 0x40 MSTORE POP POP POP JUMP JUMPDEST PUSH0 PUSH2 0xA93 PUSH2 0x76C JUMP JUMPDEST SWAP1 POP PUSH2 0xA9F DUP3 DUP3 PUSH2 0xA59 JUMP JUMPDEST SWAP2 SWAP1 POP JUMP JUMPDEST PUSH0 PUSH8 0xFFFFFFFFFFFFFFFF DUP3 GT ISZERO PUSH2 0xABE JUMPI PUSH2 0xABD PUSH2 0xA2C JUMP JUMPDEST JUMPDEST PUSH2 0xAC7 DUP3 PUSH2 0x814 JUMP JUMPDEST SWAP1 POP PUSH1 0x20 DUP2 ADD SWAP1 POP SWAP2 SWAP1 POP JUMP JUMPDEST DUP3 DUP2 DUP4 CALLDATACOPY PUSH0 DUP4 DUP4 ADD MSTORE POP POP POP JUMP JUMPDEST PUSH0 PUSH2 0xAF4 PUSH2 0xAEF DUP5 PUSH2 0xAA4 JUMP JUMPDEST PUSH2 0xA8A JUMP JUMPDEST SWAP1 POP DUP3 DUP2 MSTORE PUSH1 0x20 DUP2 ADD DUP5 DUP5 DUP5 ADD GT ISZERO PUSH2 0xB10 JUMPI PUSH2 0xB0F PUSH2 0xA28 JUMP JUMPDEST JUMPDEST PUSH2 0xB1B DUP5 DUP3 DUP6 PUSH2 0xAD4 JUMP JUMPDEST POP SWAP4 SWAP3 POP POP POP JUMP JUMPDEST PUSH0 DUP3 PUSH1 0x1F DUP4 ADD SLT PUSH2 0xB37 JUMPI PUSH2 0xB36 PUSH2 0x949 JUMP JUMPDEST JUMPDEST DUP2 CALLDATALOAD PUSH2 0xB47 DUP5 DUP3 PUSH1 0x20 DUP7 ADD PUSH2 0xAE2 JUMP JUMPDEST SWAP2 POP POP SWAP3 SWAP2 POP POP JUMP JUMPDEST PUSH0 DUP1 PUSH1 0x40 DUP4 DUP6 SUB SLT ISZERO PUSH2 0xB66 JUMPI PUSH2 0xB65 PUSH2 0x775 JUMP JUMPDEST JUMPDEST PUSH0 PUSH2 0xB73 DUP6 DUP3 DUP7 ADD PUSH2 0x793 JUMP JUMPDEST SWAP3 POP POP PUSH1 0x20 DUP4 ADD CALLDATALOAD PUSH8 0xFFFFFFFFFFFFFFFF DUP2 GT ISZERO PUSH2 0xB94 JUMPI PUSH2 0xB93 PUSH2 0x779 JUMP JUMPDEST JUMPDEST PUSH2 0xBA0 DUP6 DUP3 DUP7 ADD PUSH2 0xB23 JUMP JUMPDEST SWAP2 POP POP SWAP3 POP SWAP3 SWAP1 POP JUMP JUMPDEST PUSH2 0xBB3 DUP2 PUSH2 0x910 JUMP JUMPDEST DUP2 EQ PUSH2 0xBBD JUMPI PUSH0 DUP1 REVERT JUMPDEST POP JUMP JUMPDEST PUSH0 DUP2 CALLDATALOAD SWAP1 POP PUSH2 0xBCE DUP2 PUSH2 0xBAA JUMP JUMPDEST SWAP3 SWAP2 POP POP JUMP JUMPDEST PUSH0 PUSH1 0x20 DUP3 DUP5 SUB SLT ISZERO PUSH2 0xBE9 JUMPI PUSH2 0xBE8 PUSH2 0x775 JUMP JUMPDEST JUMPDEST PUSH0 PUSH2 0xBF6 DUP5 DUP3 DUP6 ADD PUSH2 0xBC0 JUMP JUMPDEST SWAP2 POP POP SWAP3 SWAP2 POP POP JUMP JUMPDEST PUSH32 0x4E487B7100000000000000000000000000000000000000000000000000000000 PUSH0 MSTORE PUSH1 0x22 PUSH1 0x4 MSTORE PUSH1 0x24 PUSH0 REVERT JUMPDEST PUSH0 PUSH1 0x2 DUP3 DIV SWAP1 POP PUSH1 0x1 DUP3 AND DUP1 PUSH2 0xC43 JUMPI PUSH1 0x7F DUP3 AND SWAP2 POP JUMPDEST PUSH1 0x20 DUP3 LT DUP2 SUB PUSH2 0xC56 JUMPI PUSH2 0xC55 PUSH2 0xBFF JUMP JUMPDEST JUMPDEST POP SWAP2 SWAP1 POP JUMP JUMPDEST PUSH32 0x696E737566666369656E74206665652100000000000000000000000000000000 PUSH0 DUP3 ADD MSTORE POP JUMP JUMPDEST PUSH0 PUSH2 0xC90 PUSH1 0x10 DUP4 PUSH2 0x866 JUMP JUMPDEST SWAP2 POP PUSH2 0xC9B DUP3 PUSH2 0xC5C JUMP JUMPDEST PUSH1 0x20 DUP3 ADD SWAP1 POP SWAP2 SWAP1 POP JUMP JUMPDEST PUSH0 PUSH1 0x20 DUP3 ADD SWAP1 POP DUP2 DUP2 SUB PUSH0 DUP4 ADD MSTORE PUSH2 0xCBD DUP2 PUSH2 0xC84 JUMP JUMPDEST SWAP1 POP SWAP2 SWAP1 POP JUMP JUMPDEST PUSH32 0x64617461206973206E696C210000000000000000000000000000000000000000 PUSH0 DUP3 ADD MSTORE POP JUMP JUMPDEST PUSH0 PUSH2 0xCF8 PUSH1 0xC DUP4 PUSH2 0x866 JUMP JUMPDEST SWAP2 POP PUSH2 0xD03 DUP3 PUSH2 0xCC4 JUMP JUMPDEST PUSH1 0x20 DUP3 ADD SWAP1 POP SWAP2 SWAP1 POP JUMP JUMPDEST PUSH0 PUSH1 0x20 DUP3 ADD SWAP1 POP DUP2 DUP2 SUB PUSH0 DUP4 ADD MSTORE PUSH2 0xD25 DUP2 PUSH2 0xCEC JUMP JUMPDEST SWAP1 POP SWAP2 SWAP1 POP JUMP JUMPDEST PUSH0 DUP2 SWAP1 POP DUP2 PUSH0 MSTORE PUSH1 0x20 PUSH0 KECCAK256 SWAP1 POP SWAP2 SWAP1 POP JUMP JUMPDEST PUSH0 PUSH1 0x20 PUSH1 0x1F DUP4 ADD DIV SWAP1 POP SWAP2 SWAP1 POP JUMP JUMPDEST PUSH0 DUP3 DUP3 SHL SWAP1 POP SWAP3 SWAP2 POP POP JUMP JUMPDEST PUSH0 PUSH1 0x8 DUP4 MUL PUSH2 0xD88 PUSH32 0xFFFFFFFFFFFFFFFFFFFFFFFFFFFFFFFFFFFFFFFFFFFFFFFFFFFFFFFFFFFFFFFF DUP3 PUSH2 0xD4D JUMP JUMPDEST PUSH2 0xD92 DUP7 DUP4 PUSH2 0xD4D JUMP JUMPDEST SWAP6 POP DUP1 NOT DUP5 AND SWAP4 POP DUP1 DUP7 AND DUP5 OR SWAP3 POP POP POP SWAP4 SWAP3 POP POP POP JUMP JUMPDEST PUSH0 DUP2 SWAP1 POP SWAP2 SWAP1 POP JUMP JUMPDEST PUSH0 PUSH2 0xDCD PUSH2 0xDC8 PUSH2 0xDC3 DUP5 PUSH2 0x73B JUMP JUMPDEST PUSH2 0xDAA JUMP JUMPDEST PUSH2 0x73B JUMP JUMPDEST SWAP1 POP SWAP2 SWAP1 POP JUMP JUMPDEST PUSH0 DUP2 SWAP1 POP SWAP2 SWAP1 POP JUMP JUMPDEST PUSH2 0xDE6 DUP4 PUSH2 0xDB3 JUMP JUMPDEST PUSH2 0xDFA PUSH2 0xDF2 DUP3 PUSH2 0xDD4 JUMP JUMPDEST DUP5 DUP5 SLOAD PUSH2 0xD59 JUMP JUMPDEST DUP3 SSTORE POP POP POP POP JUMP JUMPDEST PUSH0 SWAP1 JUMP JUMPDEST PUSH2 0xE0E PUSH2 0xE02 JUMP JUMPDEST PUSH2 0xE19 DUP2 DUP5 DUP5 PUSH2 0xDDD JUMP JUMPDEST POP POP POP JUMP JUMPDEST JUMPDEST DUP2 DUP2 LT ISZERO PUSH2 0xE3C JUMPI PUSH2 0xE31 PUSH0 DUP3 PUSH2 0xE06 JUMP JUMPDEST PUSH1 0x1 DUP2 ADD SWAP1 POP PUSH2 0xE1F JUMP JUMPDEST POP POP JUMP JUMPDEST PUSH1 0x1F DUP3 GT ISZERO PUSH2 0xE81 JUMPI PUSH2 0xE52 DUP2 PUSH2 0xD2C JUMP JUMPDEST PUSH2 0xE5B DUP5 PUSH2 0xD3E JUMP JUMPDEST DUP2 ADD PUSH1 0x20 DUP6 LT ISZERO PUSH2 0xE6A JUMPI DUP2 SWAP1 POP JUMPDEST PUSH2 0xE7E PUSH2 0xE76 DUP6 PUSH2 0xD3E JUMP JUMPDEST DUP4 ADD DUP3 PUSH2 0xE1E JUMP JUMPDEST POP POP JUMPDEST POP POP POP JUMP JUMPDEST PUSH0 DUP3 DUP3 SHR SWAP1 POP SWAP3 SWAP2 POP POP JUMP JUMPDEST PUSH0 PUSH2 0xEA1 PUSH0 NOT DUP5 PUSH1 0x8 MUL PUSH2 0xE86 JUMP JUMPDEST NOT DUP1 DUP4 AND SWAP2 POP POP SWAP3 SWAP2 POP POP JUMP JUMPDEST PUSH0 PUSH2 0xEB9 DUP4 DUP4 PUSH2 0xE92 JUMP JUMPDEST SWAP2 POP DUP3 PUSH1 0x2 MUL DUP3 OR SWAP1 POP SWAP3 SWAP2 POP POP JUMP JUMPDEST PUSH2 0xED2 DUP3 PUSH2 0x7D2 JUMP JUMPDEST PUSH8 0xFFFFFFFFFFFFFFFF DUP2 GT ISZERO PUSH2 0xEEB JUMPI PUSH2 0xEEA PUSH2 0xA2C JUMP JUMPDEST JUMPDEST PUSH2 0xEF5 DUP3 SLOAD PUSH2 0xC2C JUMP JUMPDEST PUSH2 0xF00 DUP3 DUP3 DUP6 PUSH2 0xE40 JUMP JUMPDEST PUSH0 PUSH1 0x20 SWAP1 POP PUSH1 0x1F DUP4 GT PUSH1 0x1 DUP2 EQ PUSH2 0xF31 JUMPI PUSH0 DUP5 ISZERO PUSH2 0xF1F JUMPI DUP3 DUP8 ADD MLOAD SWAP1 POP JUMPDEST PUSH2 0xF29 DUP6 DUP3 PUSH2 0xEAE JUMP JUMPDEST DUP7 SSTORE POP PUSH2 0xF90 JUMP JUMPDEST PUSH1 0x1F NOT DUP5 AND PUSH2 0xF3F DUP7 PUSH2 0xD2C JUMP JUMPDEST PUSH0 JUMPDEST DUP3 DUP2 LT ISZERO PUSH2 0xF66 JUMPI DUP5 DUP10 ADD MLOAD DUP3 SSTORE PUSH1 0x1 DUP3 ADD SWAP2 POP PUSH1 0x20 DUP6 ADD SWAP5 POP PUSH1 0x20 DUP2 ADD SWAP1 POP PUSH2 0xF41 JUMP JUMPDEST DUP7 DUP4 LT ISZERO PUSH2 0xF83 JUMPI DUP5 DUP10 ADD MLOAD PUSH2 0xF7F PUSH1 0x1F DUP10 AND DUP3 PUSH2 0xE92 JUMP JUMPDEST DUP4 SSTORE POP JUMPDEST PUSH1 0x1 PUSH1 0x2 DUP9 MUL ADD DUP9 SSTORE POP POP POP JUMPDEST POP POP POP POP POP POP JUMP JUMPDEST PUSH0 DUP2 SWAP1 POP DUP2 PUSH0 MSTORE PUSH1 0x20 PUSH0 KECCAK256 SWAP1 POP SWAP2 SWAP1 POP JUMP JUMPDEST PUSH1 0x1F DUP3 GT ISZERO PUSH2 0xFEB JUMPI PUSH2 0xFBC DUP2 PUSH2 0xF98 JUMP JUMPDEST PUSH2 0xFC5 DUP5 PUSH2 0xD3E JUMP JUMPDEST DUP2 ADD PUSH1 0x20 DUP6 LT ISZERO PUSH2 0xFD4 JUMPI DUP2 SWAP1 POP JUMPDEST PUSH2 0xFE8 PUSH2 0xFE0 DUP6 PUSH2 0xD3E JUMP JUMPDEST DUP4 ADD DUP3 PUSH2 0xE1E JUMP JUMPDEST POP POP JUMPDEST POP POP POP JUMP JUMPDEST PUSH2 0xFF9 DUP3 PUSH2 0x85C JUMP JUMPDEST PUSH8 0xFFFFFFFFFFFFFFFF DUP2 GT ISZERO PUSH2 0x1012 JUMPI PUSH2 0x1011 PUSH2 0xA2C JUMP JUMPDEST JUMPDEST PUSH2 0x101C DUP3 SLOAD PUSH2 0xC2C JUMP JUMPDEST PUSH2 0x1027 DUP3 DUP3 DUP6 PUSH2 0xFAA JUMP JUMPDEST PUSH0 PUSH1 0x20 SWAP1 POP PUSH1 0x1F DUP4 GT PUSH1 0x1 DUP2 EQ PUSH2 0x1058 JUMPI PUSH0 DUP5 ISZERO PUSH2 0x1046 JUMPI DUP3 DUP8 ADD MLOAD SWAP1 POP JUMPDEST PUSH2 0x1050 DUP6 DUP3 PUSH2 0xEAE JUMP JUMPDEST DUP7 SSTORE POP PUSH2 0x10B7 JUMP JUMPDEST PUSH1 0x1F NOT DUP5 AND PUSH2 0x1066 DUP7 PUSH2 0xF98 JUMP JUMPDEST PUSH0 JUMPDEST DUP3 DUP2 LT ISZERO PUSH2 0x108D JUMPI DUP5 DUP10 ADD MLOAD DUP3 SSTORE PUSH1 0x1 DUP3 ADD SWAP2 POP PUSH1 0x20 DUP6 ADD SWAP5 POP PUSH1 0x20 DUP2 ADD SWAP1 POP PUSH2 0x1068 JUMP JUMPDEST DUP7 DUP4 LT ISZERO PUSH2 0x10AA JUMPI DUP5 DUP10 ADD MLOAD PUSH2 0x10A6 PUSH1 0x1F DUP10 AND DUP3 PUSH2 0xE92 JUMP JUMPDEST DUP4 SSTORE POP JUMPDEST PUSH1 0x1 PUSH1 0x2 DUP9 MUL ADD DUP9 SSTORE POP POP POP JUMPDEST POP POP POP POP POP POP JUMP JUMPDEST PUSH0 PUSH2 0x10CA DUP4 DUP6 PUSH2 0x7DC JUMP JUMPDEST SWAP4 POP PUSH2 0x10D7 DUP4 DUP6 DUP5 PUSH2 0xAD4 JUMP JUMPDEST PUSH2 0x10E0 DUP4 PUSH2 0x814 JUMP JUMPDEST DUP5 ADD SWAP1 POP SWAP4 SWAP3 POP POP POP JUMP JUMPDEST PUSH0 PUSH1 0x80 DUP3 ADD SWAP1 POP PUSH2 0x10FE PUSH0 DUP4 ADD DUP9 PUSH2 0x744 JUMP JUMPDEST PUSH2 0x110B PUSH1 0x20 DUP4 ADD DUP8 PUSH2 0x921 JUMP JUMPDEST PUSH2 0x1118 PUSH1 0x40 DUP4 ADD DUP7 PUSH2 0x744 JUMP JUMPDEST DUP2 DUP2 SUB PUSH1 0x60 DUP4 ADD MSTORE PUSH2 0x112B DUP2 DUP5 DUP7 PUSH2 0x10BF JUMP JUMPDEST SWAP1 POP SWAP7 SWAP6 POP POP POP POP POP POP JUMP JUMPDEST PUSH32 0x4E487B7100000000000000000000000000000000000000000000000000000000 PUSH0 MSTORE PUSH1 0x11 PUSH1 0x4 MSTORE PUSH1 0x24 PUSH0 REVERT JUMPDEST PUSH0 PUSH2 0x116E DUP3 PUSH2 0x73B JUMP JUMPDEST SWAP2 POP PUSH32 0xFFFFFFFFFFFFFFFFFFFFFFFFFFFFFFFFFFFFFFFFFFFFFFFFFFFFFFFFFFFFFFFF DUP3 SUB PUSH2 0x11A0 JUMPI PUSH2 0x119F PUSH2 0x1137 JUMP JUMPDEST JUMPDEST PUSH1 0x1 DUP3 ADD SWAP1 POP SWAP2 SWAP1 POP JUMP JUMPDEST PUSH32 0x726571496420697320696E76616C696400000000000000000000000000000000 PUSH0 DUP3 ADD MSTORE POP JUMP JUMPDEST PUSH0 PUSH2 0x11DF PUSH1 0x10 DUP4 PUSH2 0x866 JUMP JUMPDEST SWAP2 POP PUSH2 0x11EA DUP3 PUSH2 0x11AB JUMP JUMPDEST PUSH1 0x20 DUP3 ADD SWAP1 POP SWAP2 SWAP1 POP JUMP JUMPDEST PUSH0 PUSH1 0x20 DUP3 ADD SWAP1 POP DUP2 DUP2 SUB PUSH0 DUP4 ADD MSTORE PUSH2 0x120C DUP2 PUSH2 0x11D3 JUMP JUMPDEST SWAP1 POP SWAP2 SWAP1 POP JUMP INVALID LOG2 PUSH5 0x6970667358 0x22 SLT KECCAK256 0x4F 0x29 DUP9 RETURN 0xC0 0x2C 0xD3 0xB1 0xE7 0xD9 0xE4 XOR PUSH12 0x32237FDF0D09A0BE20027618 CALLDATASIZE PUSH23 0x9AC50C771364736F6C6343000818003300000000000000 "
				},
				"gasEstimates": {
					"creation": {
						"codeDepositCost": "936200",
						"executionCost": "infinite",
						"totalCost": "infinite"
					},
					"external": {
						"MIN_FEE()": "370",
						"callBack(uint256,string)": "infinite",
						"owner()": "2515",
						"renounceOwnership()": "infinite",
						"request(bytes)": "infinite",
						"requestCount()": "2426",
						"requests(uint256)": "infinite",
						"transferOwnership(address)": "infinite"
					}
				},
				"methodIdentifiers": {
					"MIN_FEE()": "76c7a3c7",
					"callBack(uint256,string)": "be2cbc26",
					"owner()": "8da5cb5b",
					"renounceOwnership()": "715018a6",
					"request(bytes)": "b94207d3",
					"requestCount()": "5badbe4c",
					"requests(uint256)": "81d12c58",
					"transferOwnership(address)": "f2fde38b"
				}
			},
			"storageLayout": {
				"storage": [
					{
						"astId": 8,
						"contract": "ComputeOracle.sol:ComputeOracle",
						"label": "_owner",
						"offset": 0,
						"slot": "0",
						"type": "t_address"
					},
					{
						"astId": 200,
						"contract": "ComputeOracle.sol:ComputeOracle",
						"label": "requestCount",
						"offset": 0,
						"slot": "1",
						"type": "t_uint256"
					},
					{
						"astId": 208,
						"contract": "ComputeOracle.sol:ComputeOracle",
						"label": "requests",
						"offset": 0,
						"slot": "2",
						"type": "t_mapping(t_uint256,t_struct(ComputeRequest)198_storage)"
					}
				],
				"types": {
					"t_address": {
						"encoding": "inplace",
						"label": "address",
						"numberOfBytes": "20"
					},
					"t_bytes_storage": {
						"encoding": "bytes",
						"label": "bytes",
						"numberOfBytes": "32"
					},
					"t_mapping(t_uint256,t_struct(ComputeRequest)198_storage)": {
						"encoding": "mapping",
						"key": "t_uint256",
						"label": "mapping(uint256 => struct ComputeOracle.ComputeRequest)",
						"numberOfBytes": "32",
						"value": "t_struct(ComputeRequest)198_storage"
					},
					"t_string_storage": {
						"encoding": "bytes",
						"label": "string",
						"numberOfBytes": "32"
					},
					"t_struct(ComputeRequest)198_storage": {
						"encoding": "inplace",
						"label": "struct ComputeOracle.ComputeRequest",
						"members": [
							{
								"astId": 193,
								"contract": "ComputeOracle.sol:ComputeOracle",
								"label": "fee",
								"offset": 0,
								"slot": "0",
								"type": "t_uint256"
							},
							{
								"astId": 195,
								"contract": "ComputeOracle.sol:ComputeOracle",
								"label": "reqData",
								"offset": 0,
								"slot": "1",
								"type": "t_bytes_storage"
							},
							{
								"astId": 197,
								"contract": "ComputeOracle.sol:ComputeOracle",
								"label": "result",
								"offset": 0,
								"slot": "2",
								"type": "t_string_storage"
							}
						],
						"numberOfBytes": "96"
					},
					"t_uint256": {
						"encoding": "inplace",
						"label": "uint256",
						"numberOfBytes": "32"
					}
				}
			},
			"userdoc": {
				"kind": "user",
				"methods": {},
				"version": 1
			}
		}
	}
}